:020000040800F2
:10000000B8040020F1010008672B0008AD220008A9
:10001000652B00086D0900085D2F00080000000036
:10002000000000000000000000000000912E000809
:100030005D0A000800000000692B0008952E0008EA
:100040000B0200080B0200080B0200080B0200085C
:100050000B0200080B0200080B0200080B0200084C
:100060000B0200080B0200080B0200080B0200083C
:100070000B0200080B0200080B0200080B0200082C
:100080000B020008000000000B0200080B02000831
:100090000B0200080B0200080B0200080B0200080C
:1000A0000B0200080B0200080B0200080B020008FC
:1000B0000B0200080B0200080B0200080B020008EC
:1000C0000B0200080B0200080B0200080B020008DC
:1000D0000B0200080B0200080B0200080B020008CC
:1000E0000B0200080B0200080B0200080B020008BC
:1000F0000B0200080B0200080B02000800000000C1
:10010000000000000B020008000000000B020008C5
:100110000B020008000000000B0200080B020008A0
:100120000B0200080B0200080B0200080B0200087B
:100130000B02000800000000000000000B02000895
:100140000B0200080B020008000000000000000085
:10015000000000000000000000000000000000009F
:100160000000000000000000000000000B0200087A
:100170000B0200080000000000000000000000006A
:10018000000000000B02000800000000000000005A
:10019000000000000000000000000000000000005F
:1001A00000000000000000000B0200080B02000825
:1001B0000B0200080B0200080B0200080000000000
:1001C000000000000B02000800000000000000001A
:1001D0000B0200080B020008DFF810D000F0CEFA86
:1001E000004800475D380008AFF30080B8040020E5
:1001F0000648804706480047FEE7FEE7FEE7FEE7C1
:10020000FEE7FEE7FEE7FEE7FEE7FEE7412F000818
:10021000D9010008D2B201E000F8012B491EFBD23F
:1002200070470022F6E710B513460A460446194601
:10023000FFF7F0FF204610BD2DE9FE4F804681EA12
:100240000300C00F0C46009021F0004123F0004550
:10025000B8EB0200A94105D24046214690461C4613
:100260000B46024623F00040104347D0270DC7F34A
:100270000A00C3F30A510290401A019040286BDA39
:10028000C3F3130040F4801B0098924620B1002372
:10029000D2EB030A63EB0B0B01985946C0F1400205
:1002A000504600F066F906460D4650465946019AFA
:1002B00000F06EF910EB08006141002487EA11524A
:1002C00084EAE7731A4340D0009A62B3019A012A84
:1002D0004FEA075215DC001B61EB02014FF00042B0
:1002E00002EA0752CDE90042001C41F58011324676
:1002F0002B4600F06EF903B0BDE8F08F4046214672
:10030000F9E7001B61EB0201001C41F580130018A6
:100310005B412018A2F5001747EB030140EAD570B6
:10032000B6196D4111E06D084FEA360645EAC07511
:100330004FEA0752001B61EB0201001C41F58011DE
:1003400049084FEA30000019514132462B4603B0AC
:10035000BDE8F04F00F02EB90098012240000023C4
:10036000D0EB020263EBE073009821464FEAE074A1
:10037000B8EB000061EB0401E9E783F000435BE7C1
:1003800081F0004158E72DE9FE4F81EA030404F0B3
:10039000004421F0004100944FF0000B23F0004393
:1003A00050EA01045ED052EA03045BD0C3F30A545E
:1003B000C1F30A552C44A4F2F3340194A0FB025477
:1003C000C1F3130141F48011C3F3130343F4801309
:1003D00001FB024400FB034E840A970A44EA81545D
:1003E00047EA8357A4FB076802958D0A05FB07853A
:1003F0004FEA932C04FB0C542705029D4FEA065844
:1004000047EA1637B5EB08056EEB070C870E920E20
:1004100047EA811742EA8312A7FB0201B6EB0B0100
:1004200064EB00042B0D43EA0C335E1844EB1C50C4
:10043000DA465146E7FB0201C5F313044FEA0B33DA
:1004400043EA14534FEA0432019C43EA0603A4F141
:100450000C040294009CCDE900B400F0BAF803B09B
:10046000BDE8F08F00200146F9E70EB540F23341B8
:1004700002910021CDE900110A460B4600F0A9F8CF
:1004800003B000BD30B5041E71F1000404DB4FF071
:100490000044404264EB0101141E73F1000405DBCB
:1004A0001C464FF00043524263EB04038B4208BFEB
:1004B000824230BD30B5041E71F1000404DB4FF000
:1004C0000044404264EB0101141E73F1000405DB9B
:1004D0001C464FF00043524263EB0403994208BFAD
:1004E000904230BD30B50B46014600202022012449
:1004F00009E021FA02F59D4205D303FA02F5491BF2
:1005000004FA02F52844151EA2F10102F1DC30BD07
:100510002DE9F05F0546002092469B468846064638
:10052000814640241BE0284641464746224600F0CB
:1005300037F953465A46C01A914110D3114618460E
:10054000224600F016F82D1A67EB01084F462246A6
:100550000120002100F00DF817EB00094E41201E8C
:10056000A4F10104DFDC484631462A464346BDE893
:10057000F09F202A04DB203A00FA02F100207047A5
:100580009140C2F1200320FA03F3194390407047D1
:10059000202A06DBCB17203A41FA02F043EAE07347
:1005A00006E041FA02F3D040C2F120029140084334
:1005B0001946704710B5141E73F1000408DA401C88
:1005C00041F1000192185B411A4301D120F0010072
:1005D00010BD2DE9F04D92469B4611B1B1FA81F262
:1005E00002E0B0FA80F220329046FFF7C2FF0446E4
:1005F0000F4640EA0A0041EA0B0153465A460843B7
:1006000013D0114653EA010019D0C8F140025046F8
:1006100000F0C6F805460E46504659464246FFF7DA
:10062000A8FF084305D0012004E020463946BDE874
:10063000F08D0020054346EAE0762C4337430A98C4
:100640006305E40AA0EB08000022FD0A44EA4754CF
:100650000A3002D500200146E9E701051019694179
:10066000DDE9084500196941BDE8F04DA2E72DE933
:10067000F04D81EA030404F0004B21F000451446DC
:100680004FF0000A23F0004150EA050220D054EA5E
:1006900001021DD0C5F30A570246C5F31303C1F387
:1006A0001300C1F30A5640F4801543F48013A7EBFE
:1006B0000608101BD64608F2FD3873EB050002D37E
:1006C00008F1010801E092185B41B8F1000F03DA6C
:1006D00000200146BDE8F08D00204FF48011064651
:1006E00084460EE0171B73EB050705D3121B63EB63
:1006F000050306434CEA010C49084FEA3000921802
:100700005B4150EA0107EDD152EA030012D082EAC0
:10071000040083EA0501084305D0101BAB4106D253
:100720000122002306E000224FF0004302E06FF0B8
:10073000010253101AEB06004CEB085110EB0A00B3
:1007400041EB0B01BDE8F04DFFF734BFC1F30A5296
:10075000C1F3130140F2FF3341F480119A4202DAEF
:1007600000200146704740F233439A42A2F23342DE
:1007700002DC524200F014B8FFF7FBBE064C074DF6
:1007800006E0E06840F0010394E807009847103461
:10079000AC42F6D3FFF724FD744A0008944A0008DF
:1007A000202A04DB203A21FA02F00021704721FAC6
:1007B00002F3D040C2F1200291400843194670472D
:1007C0002DE9F041044600270D46006802F0C0F80C
:1007D0000646206802F0B8F8304359D02068C16856
:1007E0002C4E890105D5617F012902D1217F012984
:1007F0000BD0022D1DD0206802F0AAF8B8B12068F5
:100800008168C1F3400169B111E00125224902E08C
:100810008F422ED27F1C0268D2435206F8D4402168
:100820000160E8E78168314041F010018160012DED
:1008300011D0206802F088F848B120688168C1F3BF
:10084000400121B98168314041F020018160022DD1
:1008500008D0032D04D0042500F0B8FF064613E0AD
:100860000C25F9E70825F7E700F0B0FF801B052805
:100870000AD9E06D40F01000E065206E40F0010004
:1008800020660120BDE8F081206880682842EBD115
:100890000020F7E7C0FFFF7F000040A370B50446CB
:1008A000006881688268C1F3400112F0010F24D012
:1008B00019BB816801F00D01012910D18168104A2E
:1008C0001140891C816021680320086000F07EFFD0
:1008D00005460EE000F07AFF401B022809D9E06DC2
:1008E00040F01000E065206E40F00100206601201D
:1008F00070BD20688068C007ECD1002070BD00008A
:10090000C0FFFF7F70B504460068816811F0010FD9
:1009100028D18168144A114215D18168D5432940F4
:10092000491C816000F052FF064616E0816811F014
:10093000010F03D181682940491C816000F046FF06
:10094000801B022809D9E06D40F01000E065206EA0
:1009500040F001002066012070BD20680168C94395
:10096000C907E3D1002070BD3F000080FEE7000012
:1009700010B501224FF47F41074800F022FF074CD9
:1009800001220421204600F01CFF20460022BDE881
:100990001040042100F015BF00080048000C00487A
:1009A0000348007808B100F069B800F009B9000008
:1009B0000800002070B500252DED048B9FED228BE3
:1009C0009FED239B244C00F099F9FFF74EFD53EC6B
:1009D000182BFFF7D8FC53EC192BFFF7D4FC94ED40
:1009E000041B53EC112BFFF765FD05D2A0780028FE
:1009F00026D0A570606817E000F080F9FFF735FD9C
:100A000053EC182BFFF7BFFC53EC192BFFF7BBFC83
:100A100094ED061B53EC112BFFF734FD0AD2A0789E
:100A200000280DD0A570A068BDEC048BBDE8704017
:100A300001F0B2BFBDEC048BBDE87040FFF798BF7A
:100A4000BDEC048B70BD00006666666666660A4093
:100A5000000000000000303F080000207047002226
:100A600040F6B83306E00021491C89B29942FBD315
:100A7000521C92B28242F6D37047000010B52DEDA1
:100A8000048B4FF6FF709FED2A8B9FED2B9B2C4C18
:100A900001F0A8FE2BA1182001F008FE00F02EF9AD
:100AA000FFF7E3FC53EC182BFFF76DFC53EC192B0D
:100AB000FFF769FC41EC100B28A153EC102B2D48DB
:100AC00002F04EFA2B49602001F0F0FD00F016F91B
:100AD000FFF7CBFC53EC182BFFF755FC53EC192B0D
:100AE000FFF751FC94ED041B53EC112BFFF7E2FCD4
:100AF00001D221A115E000F001F9FFF7B6FC53EC9B
:100B0000182BFFF740FC53EC192BFFF73CFC94ED3E
:100B1000061B53EC112BFFF7B5FC01D21CA100E022
:100B200021A1BDEC048B9020BDE8104001F0BEBDBA
:100B30006666666666660A40000000000000303F98
:100B40000800002020202020202020204D61696EF8
:100B50002020202020202020000000002020566F90
:100B60006C743A252E32665620202020202020202A
:100B700000000000A40000202020537461747573ED
:100B80003A5570706572202020202020000000005F
:100B900020205374617475733A4C6F77657220200E
:100BA0002020202000000000202053746174757301
:100BB0003A4E6F726D616C202020202000000000F2
:100BC00070B54FF6FF75284601F00CFE2AA11820DB
:100BD00001F06CFD2E4C4FF4FC666078022842D088
:100BE0004FEA050001F0FEFD94ED040B29A153EC42
:100BF000102B2E4802F0B4F92C49302001F056FD9C
:100C00006078042831D0284601F0ECFD94ED060B05
:100C100027A153EC102B254802F0A2F923496020AC
:100C200001F044FD6078062821D0284601F0DAFD65
:100C300025A11E48626802F093F91C49902001F03A
:100C400035FD6078082814D04FEA050001F0CAFD90
:100C500023A11648A26802F083F9BDE87040134949
:100C6000C02001F023BD3046BCE73046CCE730461B
:100C7000DCE73046EAE700002020202020205365F2
:100C80007474696E6720202020202020000000005E
:100C9000080000202020204D617820566F6C743AA7
:100CA000252E31665620202020000000A4000020C0
:100CB0002020204D696E20566F6C743A252E3166C7
:100CC0005620202020000000202020205570706534
:100CD000723A4C442564202020202020200000006F
:100CE000202020204C6F7765723A4C4425642020E8
:100CF00020202020200000007047000010B5084888
:100D000000F0CAFB0221064800F04CFB044800F04A
:100D100019FA84B2024800F039FC204610BD0000E8
:100D2000380000202DE9F84F00270446009790F87E
:100D30005800DFF8DC930D46B846012811D0012693
:100D400084F85860206801F003FE60B1E06D40F067
:100D50002000E0655FF0010784F858803846BDE860
:100D6000F88F0220FBE7D5E900210C23206803EA75
:100D700091131844036B01F01F014FF01F0C0CFA84
:100D800001FCC2F3846223EA0C038A401343036329
:100D9000206801F0DDFD8246206801F0D5FD5AEAA9
:100DA00000003CD1AA6829682068B2F1004F37D012
:100DB00001F0DAFD2068416921F0004141612068BD
:100DC0006969C268C2F3C102520091402A69042ACB
:100DD00031D000EB82002B68026EDFF838C303F0DD
:100DE000F84302EA0C020B431A4342F00041016649
:100DF00022682869A96902EB8000026E22F08072E5
:100E00000A430266297F20682A69012910D000213F
:100E100000EB8200026E22F000720A4302667DE05F
:100E2000002201F0A1FD2068416941F00041C5E7C1
:100E30004FF00071ECE7002101F080FD40032068D5
:100E40004FF0000172D001F079FD90FAA0F0B0FAF5
:100E500080F1286842036ED090FAA0F0B0FA80F0DA
:100E6000814204D100221146206801F08CFD01214D
:100E7000206801F063FD400320684FF001015DD060
:100E800001F05CFD90FAA0F0B0FA80F1286842030E
:100E900059D090FAA0F0B0FA80F0814204D100223B
:100EA0000121206801F06FFD0221206801F046FD5C
:100EB000400320684FF0020148D001F03FFD90FA56
:100EC000A0F0B0FA80F12868420344D090FAA0F074
:100ED000B0FA80F0814204D100220221206801F0A2
:100EE00052FD0321206801F029FD400320684FF0E6
:100EF000030133D001F022FD90FAA0F0B0FA80F1A6
:100F0000286842032FD090FAA0F0B0FA80F0814216
:100F100004D100220321206801F035FD206881689A
:100F200011F0010F22D0ACE000E004E001F006FD7A
:100F3000C0F384618DE7C0F3846091E701F0FEFCAB
:100F4000C0F38461A2E7C0F38460A6E701F0F6FC79
:100F5000C0F38461B7E7C0F38460BBE701F0EEFC47
:100F6000C0F38461CCE7C0F38460D0E72A7B2968B2
:100F700050F8B03FC1F3120C23EA0C0302F0180C36
:100F8000654A22FA0CF20A4013430360E9684945B6
:100F900077D1286841031CD090FAA0F1B1FA81F111
:100FA000491C01F01F0109294FEA403132D80029BC
:100FB00012D000BF90FAA0F1B1FA81F101F1010164
:100FC00001F01F0106FA01F609D100BFC0F38461E8
:100FD00009E0C0F38461E3E7C0F38461EEE790FACF
:100FE000A0F1B1FA81F101F1010101F01F0146EA1E
:100FF000816102D1C0F3846003E090FAA0F0B0FAFE
:1010000080F000F1010000F01F0000EB400041EA19
:10101000005132E000290ED090FAA0F1B1FA81F12E
:1010200001F1010101F01F0106FA01F606D100BF2E
:10103000C0F3846106E0C0F38461F1E790FAA0F1A7
:10104000B1FA81F101F1010101F01F0146EA81616C
:1010500002D1C0F3846003E090FAA0F0B0FA80F00F
:1010600000F1010000F01F002C4A00EB400002EBF1
:10107000005041EA000141F00071AA68206801F0C7
:1010800073FC27482A6802423FF466AE254881680F
:10109000254B01F0E0719A4202D0244B9A421BD1B9
:1010A0000B0219D42268B2F1A04F7FF455AE8268CA
:1010B00041F4000122F0E0720A4382601C481D499D
:1010C0000068B0FBF1F000EB4000800000E0401E43
:1010D00000900028FBD13FE6174D184BAA4207D1DC
:1010E000CD0105D422689A42F5D041F0807109E023
:1010F000134DAA42EFD14A02EDD422689A42EAD0B7
:1011000041F48001826822F0E0720A43826023E6A3
:1011100000007F4000F0FF03FFFF0700000020FEFB
:101120000000088000030050000021C31000C090A0
:1011300034000020400D0300000052C700010050A1
:10114000000084CB0068006C70470000F8B54FF0D9
:10115000000504002E46009502D0E06D10B107E0B6
:101160000120F8BD204600F0EDF8266684F85860AE
:1011700020688168C1F3407119B18168694A1140E2
:10118000816020688168C1F3007179B98168664A1D
:10119000114041F080518160644865490068B0FBAE
:1011A000F1F000E0401E00900028FBD1206881682B
:1011B000C1F3007141B9E16D41F01001E165216EAB
:1011C00041F001012166012501F0C2FBE16DC90674
:1011D00000D430B1E06D40F01000E06501252846F4
:1011E000F8BDE06D20F4807040F00200E0652068FA
:1011F000806810F0010F11D14FF0A04080684D4978
:1012000000F00100896801F00101084306D14A4855
:101210006168826822F47C120A438260E168E06BB4
:10122000627F0843A16841EA4231084394F82410E0
:1012300040EA0140012904D1218D404A02EB41419D
:101240000843E16A29B101F47871226B014342EA53
:1012500001002168CA683A4B1A400243CA602068FC
:101260000169626B21F0406111430161206801F066
:101270006FFB0646206801F067FB30432ED1207FCC
:1012800094F83810800340EA41022068C16844F2B3
:10129000020399431143C160206900282068016955
:1012A0000AD041F480310161206850F8C01F2269E2
:1012B0006FF30D01114307E021F4803101612068D3
:1012C00050F8C01F6FF30D01016094F84000012831
:1012D0000CD02068016921F00101016160690128D9
:1012E0002068016B21F00F0111D013E0D4E9110146
:1012F0000843D4E913121143084321680A6940F2F4
:10130000FC739A43104340F001000861E6E7226A4B
:10131000521E11430163E06D20F0020040F0010015
:10132000E0655CE7C0FFFF5FC0FFFF7F3400002087
:10133000400D030000010050000300500000FEFFBC
:101340000740F0FF10B586B0044614216846FEF74A
:1013500068FF1149206888421BD11048C16C41F4D4
:101360000051C164C16C01F400510591C16C41F0A0
:101370000201C164C06C694600F0020005904FF4A0
:10138000004000900320019000200290044800F0EB
:101390002FF906B010BD00000001005000100240FF
:1013A000000400482DE9F041044639480F468168A1
:1013B00001F01F05A16908290FD085B1052D0ED0B8
:1013C000092D0CD0806800F4604060B1E06D40F001
:1013D0002000E0650120BDE8F081082604E02068D7
:1013E000C068C007F1E7042600F0F0F9804608E085
:1013F000781C06D000F0EAF9A0EB0800B8420FD83C
:1014000077B1206800683042F2D0E06D40F400709F
:10141000E065206801F0A0FAD0B1607F48B117E024
:10142000E06D40F00400E065002084F858000320DF
:10143000D1E72068006800070AD5E06D20F48070CD
:10144000E065E06DC00403D4E06D40F00100E065AC
:10145000104A20684FF0A041904201D10B4600E0B5
:101460000346834210D07DB1052D0DD0092D0BD040
:10147000904200D00146C968082E07D0490401D423
:101480000C2101600020A6E7C168F5E70821F8E714
:1014900000030050000100502DE9F0410446384897
:1014A000806800F01F05206801F052FA18B102218F
:1014B0000846BDE8F08194F8580001280CD00120BE
:1014C00084F858002046FFF71DFA01004FF0000392
:1014D00004D084F85830EBE70220EAE7E06D40F6EC
:1014E0000162904340F48070E065264A20684FF026
:1014F000A046904201D1374600E00746874200D01F
:101500001DB9E76D27F48017E765E76DFF0404D583
:10151000276E27F00607276600E023661C27076072
:1015200084F858302068904201D1334600E00346E9
:10153000834215D0A5B1052D12D0092D10D0E36D31
:1015400043F48013E365904200D13046C0688001C7
:10155000AED5E06D20F4005040F48050E065A7E780
:10156000C268920105D5E26D22F4005242F4805225
:10157000E2658268044B1A40121D826098E7000001
:101580000003005000010050C0FFFF7F10B504466B
:1015900090F85800012808D0012084F85800032151
:1015A0002046FFF70DF910B10BE0022010BD2046D8
:1015B000FFF774F928B9E16D21F4885141F0010178
:1015C000E165002184F8581010BD000070B5044694
:1015D00000F0FCF80546601C02D004484068044452
:1015E00000F0F4F8401BA042FAD370BD28000020A0
:1015F0002DE9FC4FDFF8A0A1002301250AF1040B1F
:1016000003244FF00F0C0BF1040EBDE005FA03F6B6
:1016100032406FD04F68012F05D0022F03D0112F19
:1016200001D0122F17D1D0F808905F0004FA07F804
:1016300029EA08090097D1F80C8008FA07F848EA67
:101640000908C0F808804768B7430E79C6F300164A
:101650009E403E434660C6684FEA430804FA08F7D6
:10166000BE4301978F6807FA08F73743C7604E6893
:10167000022E01D0122E13D1DE0800EB8606009652
:10168000366A5F07FF0E0CFA07F926EA0906D1F859
:10169000109009FA07F949EA0609009EC6F8209059
:1016A0000668019FBE430F7907F0030707FA08F7A2
:1016B000374307604E68F60065D5384E376E47F001
:1016C00001073766366E23F0030706F00106009621
:1016D000334E3E44B146B6689F074FEA17780CFA7E
:1016E00008F7BE43B0F1904F05D02E4FB84204D159
:1016F000012717E047E0002714E02B4FB84201D143
:1017000002270FE0294FB84201D103270AE0284FF2
:10171000B84201D1042705E0264FB84201D1052780
:1017200000E0062707FA08F73743C9F80870DAF827
:1017300000605746D1F8048096435FEAC83800D568
:1017400016433E60DBF800605F46D1F804809643A4
:101750005FEA883800D516433E60DEF800607746C1
:10176000D1F8048096435FEAC82800D516433E604E
:10177000094F0C373E68D1F8048096435FEA882809
:1017800000D516433E605B1C0A6832FA03F67FF40C
:101790003DAFBDE8FC8F0000000401400010024096
:1017A000000001400004004800080048000C004808
:1017B00000100048001400480069084000D00120D3
:1017C00070470AB181617047816270470148806843
:1017D00070470000280000200248816842681144D8
:1017E000816070472800002010B50024032000F01D
:1017F00069F8002000F008F808B1012401E000F0C9
:1018000025F8204610BD000070B50E4E0546002498
:10181000706898B14FF47A71B1FBF0F00A49096829
:10182000B1FBF0F000F02EFD40B9102D06D20022E1
:101830002946501E00F026F8356000E001242046BD
:1018400070BD000028000020340000200B4808B5BF
:10185000016E41F001010166016E01F0010100918C
:10186000816D41F080518165806D00F08050009065
:101870000348816841F48041816008BD0010024046
:1018800000700040F0B40E4B1B680C46C3F30223FB
:10189000C3F10705042D00D90425191D072901D21C
:1018A000002300E0DB1E012606FA05F1491E214057
:1018B00099409E40761E16403143F0BC01F064BB57
:1018C0000CED00E0064900F0070208684FF6FF0340
:1018D000184040EA0220034A1043086070470000A5
:1018E0000CED00E00000FA052B492C4B0A68322170
:1018F0004A432B4940B1B0F5007F086829D020F455
:10190000C06040F480602CE00868C0F341200228E9
:1019100004D051F8800F20F4807022E0D1F88000CC
:1019200020F48070C1F88000086820F4C06040F4A2
:1019300000700860B2FBF3F0401C00E0401E4A69F2
:10194000520501D50028F9D1486940050AD5032080
:101950007047C0F34120022806D051F8800F40F4B0
:101960008070086000207047D1F8800040F48070DB
:10197000C1F88000086820F4C06040F4007008607E
:10198000B2FBF3F0401C00E0401E4A695205DBD573
:101990000028F9D1D8E700003400002040420F00B1
:1019A000007000402DE9F8430446006800269D4D74
:1019B00000035ED5A86D0027C00008D4A86D40F0D4
:1019C0008050A865A86D012700F080500090DFF8D6
:1019D0005892D9F8001041F48071C9F80010FFF74F
:1019E000F5FE804606E000BFFFF7F0FEA0EB080022
:1019F00002282BD8D9F80000C005F5D5D5F89000FD
:101A000010F4407014D0216C814211D0D5F89000B0
:101A1000D5F8901020F4407041F48031C5F8901052
:101A2000D5F8901021F48031C5F89010C5F89000D9
:101A3000C00711D0FFF7CAFE804641F2883907E09F
:101A4000FFF7C4FEA0EB0801494501D903260BE0CE
:101A5000D5F890008007F3D5D5F89000216C20F4DC
:101A600040700843C5F890001FB1A86D20F0805069
:101A7000A8652078C00707D0D5F88800616820F0F5
:101A800003000843C5F888002078800707D5D5F8FB
:101A90008800A16820F00C000843C5F88800207871
:101AA000400707D5D5F88800E16820F030000843EA
:101AB000C5F888002078000707D5D5F88800216987
:101AC00020F0C0000843C5F888002078800607D5BC
:101AD000D5F88800616920F440600843C5F88800A3
:101AE0002078400607D5D5F88800A16920F4405039
:101AF0000843C5F888002078000607D5D5F8880087
:101B0000E16920F440400843C5F888002088C005FA
:101B100007D5D5F88800216A20F440300843C5F87D
:101B200088002088800507D5D5F88800616A20F4F0
:101B300040200843C5F88800208840050FD5D5F817
:101B40008800A16A20F440100843C5F88800A06A04
:101B5000B0F5801F03D1E86840F48010E860208869
:101B600000050FD5D5F88800E16A20F4400008434D
:101B7000C5F88800E06AB0F5800F03D1E86840F44A
:101B80008010E8602088C0040FD5D5F88800216B4C
:101B900020F040700843C5F88800206BB0F1807FCA
:101BA00003D1E86840F48010E86020884FF00061BD
:101BB00080040ED5D5F88800626B20F04060104399
:101BC000C5F88800606B884203D1E86840F4801053
:101BD000E860208840040ED5D5F88800A26B20F07C
:101BE00040601043C5F88800A06B884203D1E868C4
:101BF00040F48010E860208800040FD5D5F88800F4
:101C0000E16B20F040500843C5F88800E06BB0F16C
:101C1000805F03D1E86840F48030E8603046BDE87A
:101C2000F883000000100240007000402DE9F047EA
:101C30000E4605004FF0000725D0DFF8AC81D8F83C
:101C4000000000F00F00B0420CD2D8F8001021F0D4
:101C50000F013143C8F80010D8F8000000F00F0061
:101C6000B04210D12968614CC80741F2883A5AD075
:101C70006868DFF87C91032808D0022820682DD0FE
:101C8000400500282CDB0120BDE8F087206880019A
:101C9000F9D5E06800F00302E068C0F30310401CCF
:101CA000032A19D0534A00BFB2FBF0F0E268C2F336
:101CB00006225043E268C2F34162521C5200B0FB5C
:101CC000F2F0484517D9A06810F0F00F0CD0880743
:101CD00011D5A86840B10EE0474AE5E78003D0E798
:101CE00000F092F8484506D9A06820F0F00040F0D6
:101CF0008000A0608027A068696820F00300084386
:101D0000A060FFF763FD814606E000BFFFF75EFDC0
:101D1000A0EB090151453AD8A068696800F00C00B1
:101D2000B0EB810FF2D12868810714D5400703D5A5
:101D3000A06840F4E060A0602878000705D5A0689E
:101D400020F4605040F4E060A060A068A96820F032
:101D5000F000084304E0802F03D1A06820F0F000D9
:101D6000A060D8F80010404601F00F01B14216D92A
:101D7000016821F00F0131430160FFF727FD07469D
:101D800007E000BFFFF722FDC11B514501D9032029
:101D90007AE7D8F8000000F00F00B042F2D12878BE
:101DA000400705D5A068E96820F4E0600843A0601A
:101DB0002878000706D5A068296920F4605040EA19
:101DC000C100A06000F020F8A1680C4AC1F3031123
:101DD000515C01F01F01C8400949086009480068CA
:101DE000BDE8F047FFF710BD0020024000100240A0
:101DF00000B4C4040024F40000366E01624A0008F6
:101E00003400002028000020184910B58868C0F36D
:101E100081021748012A0BD08A68164BC2F381024F
:101E2000022A06D08A68C2F38102032A03D0002066
:101E300010BD184610BDCA6802F00304CA68C2F398
:101E40000312521C032C02D0B0FBF2F001E0B3FBF2
:101E5000F2F0CA68C968C2F306225043C1F3416177
:101E6000491C4900B0FBF1F010BD00000010024019
:101E70000024F40000366E012DE9F84304007AD006
:101E80002078FA4DC00747D0A868E96800F00C0038
:101E900001F003010C2802D0082817D001E0032923
:101EA00014D06068B0F5803F17D0B0F5A02F286837
:101EB00017D020F480302860286820F48020286023
:101EC0006068E0B1FFF782FC064614E028688003F2
:101ED00022D560680028D2D01EE0286840F4803007
:101EE000EDE740F480202860F7E700BFFFF76EFCC5
:101EF000801B642870D828688003F7D50CE0FFF7B2
:101F000065FC064605E000BFFFF760FC801B642807
:101F1000F0D828688003F7D4207880074CD5A868CB
:101F2000E96800F00C0001F003010C2802D004283D
:101F30000DD001E002290AD0E068002828682BD0E3
:101F400040F480702860FFF741FC064619E02868DD
:101F5000400502D5E068002891D06868217C20F017
:101F6000FE4040EA01606860C1480068FFF74CFC31
:101F7000002800D120E076E1FFF728FC801B022832
:101F8000B8D828684005F7D56868217C20F0FE4065
:101F900040EA016068600FE020F480702860FFF77D
:101FA00015FC064605E000BFFFF710FC801B022869
:101FB000A0D828684005F7D42078000729D56069A3
:101FC0000028D5F8940013D040F00100C5F8940023
:101FD000FFF7FCFB064606E090E000BFFFF7F6FBCC
:101FE000801B022886D8D5F894008007F6D510E02B
:101FF00020F00100C5F89400FFF7E8FB064604E076
:10200000FFF7E4FB801B022878D8D5F894008007FE
:10201000F6D42078400761D5A86D0026C00008D40A
:10202000A86D40F08050A865A86D012600F0805092
:10203000009090480168C90511D40168804641F4B8
:1020400080710160FFF7C2FB074604E0FFF7BEFBAB
:10205000C01B022852D8D8F80000C005F6D5A068E9
:10206000012815D00528D5F8900016D020F00100E1
:10207000C5F89000D5F8900020F00400C5F8900055
:10208000A06841F28838B8B1FFF7A0FB07460EE020
:10209000D5F8900040F00100F0E740F00400C5F8EA
:1020A0009000F5E7FFF792FBC11B414526D8D5F814
:1020B00090008007F6D50CE0FFF788FB074604E0A8
:1020C000FFF784FBC11B414518D8D5F89000800765
:1020D000F6D41EB1A86D20F08050A8652078800647
:1020E00029D5A0690028D5F8980013D040F0010048
:1020F000C5F89800FFF76AFB064606E077E000BFE8
:10210000FFF764FB801B022877D8D5F8980080077A
:10211000F6D510E020F00100C5F89800FFF756FB57
:10212000064604E0FFF752FB801B022865D8D5F86D
:1021300098008007F6D4E069F0B3A968C1F3810183
:10214000032961D00228286820F0807028600BD015
:10215000E86820F00300E860E86847490840E86064
:10216000FFF734FB04464BE0FFF730FB064604E084
:10217000FFF72CFB801B02283FD828688001F7D48A
:10218000F4E908016FF00F0202EB01110843218A04
:102190005204490802EB4151A26841EA0221084376
:1021A000217D4FF07E42490802EB41610843217BCB
:1021B00040EAC160E96800E062E0304A114008434B
:1021C000E860286840F080702860E86840F080701F
:1021D000E860FFF7FBFA044605E000BFFFF7F6FAF8
:1021E000001B022809D828688001F7D548E004E0E0
:1021F000FFF7ECFA001B022802D90320BDE8F883A0
:1022000028688001F4D43BE00128F7D0E868226A0E
:1022100000F00301914226D1616A00F0F002090149
:10222000103991421FD1A26A00F4FE41B1EB022F96
:1022300019D194F82C2000F07841B1EBC26F12D183
:10224000218E00F4C00249084905A1F50011914210
:1022500009D194F8341000F0C06049084906A1F192
:10226000007181420CD00120C8E70000001002403C
:102270002800002000700040FFFFEEFE0C809F0150
:102280000020BBE710B5401EB0F1807F01D30120D4
:1022900010BD4FF0E02460610F21601700F074FE64
:1022A0000020A06107202061002010BDFEE7000093
:1022B00070B5AC4CAC4E4FF6FF752DED048B4FF066
:1022C00001012078002830461ED0FFF775FA00285B
:1022D00015D10A20FFF77AF901213046FFF76CFA91
:1022E00000280CD1207868B100202070284600F02A
:1022F00077F901213046FFF75FFA0028F9D0BDECED
:10230000048B70BD0120F0E7FFF756FA48B30221B5
:102310003046FFF751FAD8B304213046FFF74CFAA4
:102320009FED928BA8B34FF0904601213046FFF706
:1023300043FA0028E3D10A20FFF748F9012130468B
:10234000FFF73AFA0028DAD1607802286FD09FEDC3
:10235000899B04286CD0082106286AD0082869D0F7
:10236000F5E00A20FFF732F901213046FFF724FAA1
:102370000028C4D1207868B100202070284600F0E1
:102380002FF901213046FFF717FA0028F9D0B6E7F8
:1023900002E022E00120F0E702213046FFF70CFACC
:1023A0000028ACD10A20FFF711F902213046FFF7CF
:1023B00003FA0028A3D16078801CC0B2607008289E
:1023C00001D902206070284600F00AF90221304647
:1023D000FFF7F2F90028F9D091E70A20FFF7F6F8A5
:1023E00004213046FFF7E8F9002888D160789FED96
:1023F000639B022807D004281DD00121062832D073
:10240000082840D04EE094ED040B53EC182B51EC0F
:10241000100BFDF711FF41EC100B53EC192B84ED61
:10242000040BFEF747F83DD284ED049B3AE043E00D
:102430005AE06DE07CE094ED060B53EC182B51EC68
:10244000100BFDF7F9FE41EC100B84ED060B94ED3B
:10245000041B53EC112BFEF72DF823D294ED040B43
:1024600084ED060B1EE06068401C6060082800DDFB
:102470006160D4E90102904201D1401C60600828EB
:1024800010DD61600EE0A068401CA060082800DD3F
:10249000A160D4E90120824201D1401CA06008283B
:1024A00000DDA160284600F09BF804213046FFF7CC
:1024B00083F90028F9D022E794ED040B53EC182B94
:1024C00051EC100BFDF759FF41EC100B84ED040BA0
:1024D00094ED061B53EC112BFDF7D4FF37D294ED8E
:1024E000060B84ED040B32E094ED060B53EC182B35
:1024F00051EC100BFDF741FF41EC100B53EC192B85
:1025000084ED060BFDF7BEFF21D284ED069B1EE095
:102510006068401E6060012800DA6160D4E9010251
:10252000904201D1401E6060012810DA61600EE027
:10253000A068401EA060012800DAA160D4E9012053
:10254000824201D1401EA060012800DAA160284625
:1025500000F046F801213046FFF72EF90028F9D0A7
:10256000CDE6000008000020000400483333333378
:102570003333D33F0000000000000000666666664B
:1025800066660A4000B585B014216846FDF749FE2D
:102590004FF6FF70009000200321CDE90201019069
:1025A00069460248FFF724F805B000BD000800485E
:1025B00000B585B014216846FDF733FE4FF6FF7075
:1025C00000900120019003200390002002906946B2
:1025D0000248FFF70DF805B000BD000000080048F4
:1025E00070B5002406462146204600F003F900F0AD
:1025F00041F94FF49635304600F010F9641CAC42B6
:10260000F9D370BD30B587B014216846FDF709FED7
:102610001E48C16C41F00401C164C16C01F00401A9
:102620000591C16C41F00101C164C16C01F001016F
:102630000591C16C41F00201C164C06C012500F03C
:10264000020005904FF44870CDE900050024039482
:10265000694602940E48FEF7CBFF280203940090CF
:10266000CDE901544FF0904469462046FEF7C0FF83
:10267000FFF79EFFA06940F48070A0610448183005
:10268000016841F40871016007B030BD00100240DC
:1026900000040048203AD2B2034B02EB420203EBA3
:1026A000021200F019B8000092380008F0B50E468A
:1026B0000746002540F23F1407E021463846FFF761
:1026C000E9FF103C6D1CA4B2761C3278002A01D0C0
:1026D000142DF2D3F0BD00002DE9F04791468A4653
:1026E0000026044600F086F8DFF84080012700BF8E
:1026F00000F0C0F85FF0000539F8160007FA05F1A0
:102700000842404601D1408800E0008800F086F889
:102710006D1C102DF0D3641CE4B25146204600F02D
:1027200069F8761C182EE3D3BDE8F087020000207C
:1027300010B5FFF767FF002000F014F8084CA080E8
:10274000A088A0F50241303906D000F0A0FA0020A0
:1027500000F008F8A08010BD00F010FAF7E70000C4
:102760000200002070B51D490A6842F400720A6038
:102770000A6842F480720A60184C103C226842F0E9
:1027800020022260164A1060086840F020000860AD
:1027900000BF00BF00BF206840F02000206020681C
:1027A00040F480702060FFF7EDFE4FF09041886AA2
:1027B00040F48070886200BF00BF00BF0848001F5F
:1027C000006885B2886940F480708861FFF7F0FE88
:1027D000206840F400702060284670BD280400483E
:1027E0001408004801B5BDF800000149488008BD43
:1027F0000200002010B50C460146202000F068F8C9
:102800002146BDE81040212000F062B801B5BDF8B6
:1028100000000149088008BD02000020134A116829
:1028200041F400711160114910390B6843F4807351
:102830000B600B6843F020030B600D4B18601068B1
:1028400040F02000106000BF00BF00BF086840F0EB
:1028500020000860086840F48070086000BF00BF76
:1028600000BF086840F40070086070472804004802
:10287000140800481449086840F4007008600868AB
:1028800040F48070086010481038026842F020025E
:1028900002600E4B22221A600A6842F020020A608F
:1028A00000BF00BF00BF016841F020010160016866
:1028B00041F48071016000BF00BF00BF016841F4B6
:1028C00000710160704700002804004814080048A7
:1028D000184B10B51A6842F400721A601A6842F474
:1028E00080721A60134A103A146844F0200414608D
:1028F000114C2060186840F02000186000BF00BF35
:1029000000BF106840F020001060106840F4807034
:1029100010602160186840F02000186000BF00BF00
:1029200000BF106840F020001060106840F4807014
:10293000106010BD280400481408004800EB810016
:10294000006E00F0F84070478068C0F3C000704728
:102950008068C0F380007047C06810F4406F01D0F9
:102960000020704701207047042303EAD15310B5BB
:1029700018444369C1F3045107248C40A3438A409F
:102980001343436110BD00EB8100016E21F0004153
:10299000114301667047000070B501462748284D75
:1029A000284CC078092947D2DFE801F046052126E6
:1029B0002B30353A3F004FF480714FF47E4638E0BB
:1029C000012200E000222846FEF7FBFE01223146EC
:1029D0002846FEF7F6FE012204212046FEF7F1FE0E
:1029E0002046BDE8704000220421FEF7EABE4FF405
:1029F00000714FF47D461CE04FF480614FF47B463C
:102A000017E04FF400614FF4774612E04FF4805125
:102A10004FF46F460DE04FF400514FF45F4608E06D
:102A20004FF480414FF43F4603E04FF400414FF430
:102A3000FE460028C6D0C3E770BD00000800002095
:102A400000080048000C004830B589B020216846D5
:102A5000FDF7E7FB194818490024C0E90014846019
:102A6000C46004250461C0E9054504774477012169
:102A7000016280F82440C462046380F83840C46373
:102A800080F84040FEF762FB08B1FEF735F90C48CC
:102A9000009006200190072002907F200594CDE948
:102AA000030569460548FEF73DF9002801D0FEF709
:102AB00023F909B030BD00000001005038000020AB
:102AC0000080F03E70B586B014216846FDF7A9FB82
:102AD0002148C16C41F02001C164C16C01F02001AA
:102AE0000591C16C41F00101C164C16C01F00101AB
:102AF0000591C16C41F00201C164C16C01F0020199
:102B00000591C16C41F00801C164C06C134E00F026
:102B100008000590012204213046FEF752FE0024F1
:102B20000125CDE9005469464FF090400294FEF72C
:102B30005FFD0720CDE90004694609480294FEF7CD
:102B400057FD04200090CDE90154694630460394B6
:102B5000FEF74EFD06B070BD00100240000C0048AC
:102B600000040048FEE77047704710B5FDF722FFEC
:102B7000FDF716FFBDE81040FFF79ABB30B5012105
:102B80000020FFF7A5FE4FF47A70FDF768FF0021E3
:102B90000120FFF79DFE41F290711020FFF798FE93
:102BA0004FF41C516020FFF793FE01216120FFF7D5
:102BB0008FFE02214620FFF78BFE48F21001132002
:102BC000FFF786FE48F2FE011220FFF781FE4FF468
:102BD000A0610220FFF77CFE41F230010320FFF7E5
:102BE00077FE40F2033421463020FFF771FE214684
:102BF0003120FFF76DFE21463220FFF769FEE51E0A
:102C000029463320FFF764FE03213420FFF760FEDE
:102C100021463520FFF75CFE14213620FFF758FED1
:102C200021463720FFF754FE21463820FFF750FE9B
:102C300021463920FFF74CFE29463A20FFF748FE8F
:102C400003213B20FFF744FE21463C20FFF740FED6
:102C50004FF4A0513D20FFF73BFE4FF4007192204E
:102C6000FFF736FE21469320FFF732FE40F60D01B6
:102C70009020FFF72DFE41F218010320FFF728FEF8
:102C8000BDE8304040F273110720FFF721BE10B5B8
:102C900043F20801E320FFF71BFE1221E720FFF7B4
:102CA00017FE41F23121EF20FFF712FE0021012033
:102CB000FFF70EFE4FF4E0610220FFF709FE41F23C
:102CC00030010320FFF704FE00210420FFF700FE7F
:102CD00040F207210820FFF7FBFD00210920FFF744
:102CE000F7FD00210A20FFF7F3FD00210C20FFF77C
:102CF000EFFD00210D20FFF7EBFD00210F20FFF776
:102D0000E7FD00211020FFF7E3FD07211120FFF769
:102D1000DFFD00211220FFF7DBFD00211320FFF76C
:102D2000D7FDC820FEF752FC41F290611020FFF75A
:102D3000CFFD40F227211120FFF7CAFD3220FEF718
:102D400045FC1D211220FFF7C3FD3220FEF73EFC9B
:102D50004FF400611320FFF7BBFD14212920FFF77A
:102D6000B7FD0B212B20FFF7B3FD3220FEF72EFC21
:102D700000212020FFF7ACFD00212120FFF7A8FD56
:102D800007213020FFF7A4FD40F207713120FFF743
:102D90009FFD06213220FFF79BFD40F20471352094
:102DA000FFF796FD41F604713620FFF791FD0421EF
:102DB0003720FFF78DFD00213820FFF789FD40F215
:102DC00006713920FFF784FD40F201713C20FFF7C6
:102DD0007FFD0F213D20FFF77BFD00215020FFF7F5
:102DE00077FDEF215120FFF773FD00215220FFF7FF
:102DF0006FFD40F23F115320FFF76AFD4FF41C5165
:102E00006020FFF765FD01216120FFF761FD0021D2
:102E10006A20FFF75DFD00218020FFF759FD0021AA
:102E20008120FFF755FD00218220FFF751FD002191
:102E30008320FFF74DFD00218420FFF749FD00218D
:102E40008520FFF745FD10219020FFF741FD00216F
:102E50009220FFF73DFD03219320FFF739FD4FF44A
:102E600088719520FFF734FD00219720FFF730FD92
:102E700000219820FFF72CFD41F218010320FFF7F5
:102E800027FDBDE8104040F273110720FFF720BD79
:102E90007047000010B5FEF79FFC0A480188491CE6
:102EA00089B20180C82909D1002101800648017832
:102EB00029B10021017005490120087010BD0121D0
:102EC000F8E70000000000200B0000200A000020AE
:102ED00010B5A4B038216846FDF7A3F914211FA846
:102EE000FDF79FF944210EA8FDF79BF94FF4007000
:102EF000FEF7FAFC01200090000401900220032458
:102F0000CDE907041421CDE90A100C900D90099425
:102F10006846FEF7B1FF0F20CDE91F040020219085
:102F20002290239003211FA8FEF780FE4FF400405B
:102F30000E9080031D900EA8FEF734FD24B010BD46
:102F40000548016841F47001016003494FF00060D9
:102F5000803908607047000088ED00E0FEE700005F
:102F60000FB4084B10B504A902AA039800F0EEF8BC
:102F7000044602A9002000F06CFC204610BC5DF85D
:102F800014FB0000533800080907090E002804DB71
:102F900000F1E02080F80014704700F00F0000F10D
:102FA000E02080F8141D704702E008C8121F08C115
:102FB000002AFAD170477047002001E001C1121FBA
:102FC000002AFBD1704700002DE9FF5F82B000218D
:102FD000DDE90430020DDDF840B0034318D044F6BB
:102FE0001050A2F2FF3242431514119801281FD04D
:102FF000A5EB0B00401C5FEA000A4FF000064E4FA5
:10300000DFF83891B046504615D5CAF1000413E0F8
:10301000119801244AA3012801D16FEA0B010298FB
:10302000119AC0E90031C0E9024206B0BDE8F09F44
:10303000CBF10000DFE704460021404A491842EB8B
:103040000450CDE9001012E0E00707D032463B46BD
:1030500040464946FDF797F98046894632463B4649
:1030600010461946FDF78FF906460F466410002CEE
:10307000EAD1DDE90401DDE90023BAF1000F06DA47
:10308000FDF781F942464B46FDF77DF905E0FDF776
:10309000EEFA42464B46FDF7EAFA04460E46002297
:1030A000284BFDF707FA03D84FF0FF30014607E041
:1030B0000022254B20463146FDF7BEF8FDF746FBC2
:1030C000102409E0002C0ADB0A220023FDF720FA75
:1030D000039B30321A55641E50EA0102F2D1641C7F
:1030E000039AC4F111031444119A012A03D0012256
:1030F00008430DD10AE0084304D000204FF0110B23
:10310000119072E7A3EB0B056D1E0DE05B4504DD2E
:103110004FF0000205F1010504E003DA4FF0000270
:10312000A5F10105002AECD002981199C0E90231FD
:10313000C0E9004579E70000000014400000F03FBE
:10314000300000000000F0430000E03F2DE9FF4F99
:1031500095B09A46884606460025EEE1252877D1A7
:1031600000242746F94A0121039400E0044316F89D
:10317000013F203B01FA03F01042F7D130782A28B2
:1031800011D06FF02F033078A0F13002092A16D841
:10319000039A44F0020402EB820203EB4202104461
:1031A000761C0390EFE758F8042B0392002A03DA09
:1031B000504244F40054039044F00204761C3078EA
:1031C0002E2816D116F8010F44F004042A280DD039
:1031D0006FF02F023078A0F13003092B09D807EBEC
:1031E000870302EB4303C718761CF3E758F8047B08
:1031F000761C30786C280FD006DC4C2817D0682855
:103200000DD06A2814D104E0742810D07A280FD188
:103210000DE044F400140AE044F4801401E044F4A6
:1032200040147278824202D104F58014761C761C18
:10323000307866280BD013DC582877D009DC0028BA
:1032400075D04528F6D04628F4D047281AD193E106
:1032500018E0632835D0642879D0652812D18BE135
:10326000702873D008DC6728F1D069286FD06E28E9
:103270000DD06F2806D1ACE073282CD0752874D0FF
:10328000782853D05246179990476D1C54E1C4F3E7
:103290000250022809D003280DD0D8F800100428C5
:1032A0000DD00D6008F1040846E1D8F80010EA17C7
:1032B000C1E90052F6E7D8F800100D80F2E70D7072
:1032C000F0E718F8041B8DF8001000208DF80100BD
:1032D000EB46012003E058F804BB4FF0FF306107D4
:1032E0004FF0000102D40DE009F101018946B94215
:1032F0000FDA8145F8DB1BF809100029F4D108E04A
:1033000009F1010189468142FADB1BF80910002905
:10331000F6D103985346A0EB090721463846179A81
:1033200000F080FA284400EB090507E044E008E1DA
:103330000DE01BF8010B524617999047B9F10109AE
:10334000F7D2534621463846179AF2E039E00A216F
:10335000C4F302524FF0000B0091022A06D058F835
:10336000040BC117032A09D00AE023E008F1070083
:1033700020F00702F2E80201904605E000B2C11712
:10338000042A01D140B2C117002906DA0A460021F9
:10339000404261EB02012D2202E0220504D52B22DE
:1033A0008DF80420012203E0E20701D02022F7E794
:1033B000914657E00A2100E010214FF0000B0091E8
:1033C0000BE010214FF0000B44F00404082700919B
:1033D00003E008204FF0000B0090C4F30252022AD1
:1033E00005D058F8040B0021032A08D008E008F1A2
:1033F000070020F00702F2E80201904603E080B2E5
:10340000042A00D1C0B24FF0000922072AD5327831
:10341000702A07D0DDF800C08CF0100C5CEA0B0CB1
:1034200005D00EE040228DF80420012208E050EA89
:10343000010306D030238DF804308DF805200222D8
:103440009146009B83F0080353EA0B030AD150EA2C
:10345000010201D1620705D530228DF804204FF01A
:1034600001097F1E3278582A04D039A20C920CAA86
:1034700002920BE03BA2F9E75B46009AFDF748F8A1
:103480000C9B9B5C029A521E0292137050EA01023E
:10349000F2D1029804A9081A00F1200B600702D5A6
:1034A00024F4803400E001275F4502DDA7EB0B0028
:1034B00000E0002000EB0B01009003984944401A03
:1034C0000390E00306D453462146179A039800F070
:1034D000A9F90544002706E001A85246C05D1799E6
:1034E00090476D1C7F1C4F45F6DBE0030CD553461F
:1034F0002146179A039800F095F9054404E030201E
:103500005246179990476D1C0099481E009000295B
:10351000F5DC08E00298029952460078491C0291B5
:10352000179990476D1CBBF10001ABF1010BF1DC69
:103530005BE100F065F90544761C307800287FF4E3
:103540000DAE19B02846BDE8F08F00000928010033
:103550003031323334353637383961626364656609
:1035600000000000303132333435363738394142CB
:103570004344454600000000600700D4062708F1D8
:10358000070020F00700F0E80223804603F0004C1B
:103590005FEA0C0001D097A009E0200501D596A0B4
:1035A00005E0E00701D095A001E0AFF24C001390D8
:1035B000307823F0004365280CD006DC452809D07C
:1035C00046281DD047287FD13BE0662818D06728C1
:1035D0007AD136E00021112F01DB112000E0781CA8
:1035E000CDE9000104A90CA8FFF7EEFCDDE90D010F
:1035F0000C9A4FF0000B07F10109109200914EE078
:103600004FF000400097CDE9011004A90CA8FFF786
:10361000DBFCDDE90D020C9B0F994FF0000B91468E
:103620001093009211B9791C00EB0109B7EB090066
:1036300003D4C0F1FF3B07F10109A9EB070001909A
:1036400042E0012F00DA01270021112F01DD1120B6
:1036500000E03846CDE9000104A90CA8FFF7B4FC4E
:10366000DDE90D010C9A00914FF0000BB946109264
:1036700021070FD4009A4A4503DA914601E0A9F1E7
:103680000109B9F1010F05DD109AA9F10101515CA1
:103690003029F4D0B84202DA10F1040F03DA012124
:1036A000CDE9011010E0002803DC8344A9EB000100
:1036B00002E0411C494500DD8946A0EB0B00401C9F
:1036C00001904FF000400290200705D40198484532
:1036D00002DB4FF0FF30019000208DF84B00029884
:1036E0000DF14B07B0F1004F25D002200C902B209C
:1036F0000D90029800280CDA404202902D200D9087
:1037000007E00A210298FCF7EDFE3031029007F83D
:10371000011D0C99481E0C900029F2DC029800282B
:10372000EFD1791E0D980870307800F0200040F03D
:10373000450007F8020D11A8C01BC01D0290139888
:10374000007800B1012000EB0901019801EBE07164
:10375000029801440398401A401E0390E00306D4E7
:1037600053462146179A039800F05CF805441398D5
:10377000007818B15246179990476D1CE00323D585
:1037800053462146179A039800F04CF805441BE075
:10379000BBF1000F07DB0098584504DD109817991E
:1037A00010F80B0001E0179930205246904701981D
:1037B0000BF1010B401E05F10105019004D12E20F3
:1037C0005246179990476D1CB9F10001A9F1010902
:1037D000DEDC05E017F8010B5246179990476D1C87
:1037E0000299481E02900029F4DC53462146179A9C
:1037F00003989EE62D0000002B0000002000000032
:103800002DE9F041044600251E461746880404D4DD
:1038100005E039462020B0476D1C641EF9D52846C6
:10382000BDE8F0812DE9F041044600251E46904692
:10383000C80301D5302700E02027880404D505E01F
:1038400041463846B0476D1C641EF9D52846BDE890
:10385000F0810A68531C0B6010707047FDF7C4FFBD
:10386000FFF736FBFFF72EF9FFF7EEF8FEF760FFE4
:10387000FDF77EF84FF6FF742046FEF7B1FE2046B6
:10388000FEF7B0FF1F20FEF7C1FF00BFFFF76DF985
:10389000FCE7000000000000000000000000000045
:1038A0000000000000000000000000000000000018
:1038B0000000000000000000000000000000000008
:1038C00000000000800180018001800180018001F2
:1038D0008001800180018001800180018001000061
:1038E00000008001800100000000000000000000D6
:1038F000000000000000CC00CC00CC00CC00CC00CC
:10390000CC000000000000000000000000000000EB
:1039100000000000000000000000000000000000A7
:103920000000000000000000000000000000600C2B
:10393000600C600C30063006FE1FFE1F3006380794
:103940001803FE1FFE1F180318038C018C018C0145
:10395000000000008000E003F80F9C0E8C1C8C1807
:103960008C009800F801E007800E801C8C188C18E1
:103970009C18B80CF00FE0038000800000000000ED
:1039800000000000000000000E181B0C110C1106B6
:103990001106110311039B018E01C038C06C6044F5
:1039A0006044304430441844186C0C380000000067
:1039B00000000000E001F003380718061806300385
:1039C000F001F000F8009C310E33061E061C061CA8
:1039D000063FFC73F0210000000000000000000022
:1039E0000000000000000C000C000C000C000C009B
:1039F0000C000000000000000000000000000000BB
:103A000000000000000000000000000000000000B6
:103A100000000000000200038001C000C000600040
:103A200060003000300030003000300030003000E6
:103A3000300060006000C000C00080010003000290
:103A40000000000020006000C00080018001000331
:103A50000003000600060006000600060006000639
:103A600000060003000380018001C0006000200008
:103A70000000000000000000000000000000C00086
:103A8000C000D806F807E001300338070000000046
:103A90000000000000000000000000000000000026
:103AA0000000000000000000000000000000800195
:103AB0008001800180018001FC3FFC3F800180018A
:103AC0008001800180010000000000000000000073
:103AD00000000000000000000000000000000000E6
:103AE00000000000000000000000000000000000D6
:103AF0000000000080018001000100018000000042
:103B000000000000000000000000000000000000B5
:103B100000000000000000000000E007E0070000D7
:103B20000000000000000000000000000000000095
:103B30000000000000000000000000000000000085
:103B40000000000000000000000000000000000075
:103B500000000000C000C0000000000000000000E5
:103B600000000000000C000C000600060006000328
:103B7000000300038003800180018001C000C000B9
:103B8000C0006000600000000000000000000000B5
:103B900000000000E003F007380E180C0C180C1899
:103BA0000C180C180C180C180C180C180C18180CF5
:103BB000380EF007E00300000000000000000000E5
:103BC0000000000000018001C001F001980188019F
:103BD00080018001800180018001800180018001DD
:103BE0008001800180010000000000000000000052
:103BF00000000000E003F80F180C0C180C18001857
:103C00000018000C000600038001C00060003000B6
:103C10001800FC1FFC1F0000000000000000000056
:103C200000000000E001F807180E0C0C0C0C000C52
:103C30000006C003C007000C001800180C180C1870
:103C4000180CF807E003000000000000000000006E
:103C500000000000000C000E000F000F800DC00CD3
:103C6000600C600C300C180C0C0CFC3FFC3F000C82
:103C7000000C000C000C0000000000000000000020
:103C800000000000F80FF80F180018000C00EC03FB
:103C9000FC071C0E001C0018001800180C181C0C47
:103CA000180EF807E003000000000000000000000C
:103CB00000000000C007F00F381C181818000C0096
:103CC000CC03EC0F3C0E1C1C0C180C180C18181C08
:103CD000380EF007E00300000000000000000000C4
:103CE00000000000FC1FFC1F000C00060006000383
:103CF00080038001C001C000E0006000600070002F
:103D00003000300030000000000000000000000023
:103D100000000000E003F007380E180C180C180C17
:103D20003806F007F007180C0C180C180C180C18B3
:103D3000380CF80FE0030000000000000000000055
:103D400000000000E003F007380E1C0C0C180C18E3
:103D50000C181C1C381EF81BE0190018000C000C75
:103D60001C0EF807F0010000000000000000000039
:103D700000000000000000000000000000008001C2
:103D800080010000000000000000000000000000B2
:103D90000000800180010000000000000000000021
:103DA0000000000000000000000000000000800192
:103DB0008001000000000000000000000000000082
:103DC000000080018001000100018000000000006F
:103DD00000000000000000000000000000000000E3
:103DE00000000010001C800FE003F8001800F8002D
:103DF000E003800F001C0010000000000000000025
:103E000000000000000000000000000000000000B2
:103E10000000F81F000000000000F81F0000000074
:103E20000000000000000000000000000000000092
:103E30000000000000000000000000000000000082
:103E4000000008003800F001C007001F0018001F24
:103E5000C007F0013800080000000000000000006A
:103E600000000000E003F80F180C0C180C180018E4
:103E7000000C000600038001C000C000C00000006C
:103E80000000C000C00000000000000000000000B2
:103E9000000000000000E00718180420C229224A90
:103EA000114409440944094409221113E20C024057
:103EB00004201818E00700000000000000000000C7
:103EC0000000000080038003C006C006C006600C2E
:103ED000600C301830183018F83FF83F1C700C6038
:103EE0000C6006C006C000000000000000000000DA
:103EF00000000000FC03FC0F0C0C0C180C180C1834
:103F00000C0CFC07FC0F0C180C300C300C300C3077
:103F10000C18FC1FFC07000000000000000000005F
:103F200000000000C007F01F38381C300C7006601D
:103F300006000600060006000600060006600C707B
:103F40001C30F01FE007000000000000000000002F
:103F500000000000FE03FE0F060E061806180630CD
:103F600006300630063006300630063006180618D1
:103F7000060EFE0FFE03000000000000000000001F
:103F800000000000FC3FFC3F0C000C000C000C008B
:103F90000C00FC1FFC1F0C000C000C000C000C00A3
:103FA0000C00FC3FFC3F000000000000000000008F
:103FB00000000000F83FF83F180018001800180033
:103FC0001800F81FF81F1800180018001800180033
:103FD0001800180018000000000000000000000099
:103FE00000000000E00FF83F3C780E6006E007C0DC
:103FF0000300030003FE03FE03C007C006C00EC09B
:104000003CF0F83FE00F000000000000000000005E
:10401000000000000C300C300C300C300C300C3038
:104020000C30FC3FFC3F0C300C300C300C300C30B2
:104030000C300C300C3000000000000000000000CC
:10404000000000008001800180018001800180016A
:104050008001800180018001800180018001800158
:1040600080018001800100000000000000000000CD
:10407000000000000006000600060006000600061C
:1040800000060006000600060006000618061806D0
:104090003807F003E001000000000000000000000D
:1040A0000000000006300618060C0606060386010E
:1040B000C60066007600DE008E0106030606060CCA
:1040C0000618063006600000000000000000000036
:1040D0000000000018001800180018001800180050
:1040E0001800180018001800180018001800180010
:1040F0001800F81FF81F000000000000000000007A
:10410000000000000EE01EF01EF01EF036D836D87B
:1041100036D836D866CC66CC66CCC6C6C6C6C6C649
:10412000C6C686C386C30000000000000000000071
:10413000000000000C301C303C303C306C306C30E7
:10414000CC30CC308C310C330C330C360C360C3C70
:104150000C3C0C380C300000000000000000000097
:1041600000000000E007F81F1C380E70066003C056
:1041700003C003C003C003C003C003C006600E70C9
:104180001C38F81FE00700000000000000000000DD
:1041900000000000FC0FFC1F0C380C300C300C3001
:1041A0000C300C18FC1FFC070C000C000C000C0061
:1041B0000C000C000C0000000000000000000000DB
:1041C00000000000E007F81F1C380E70066003E0D6
:1041D00003C003C003C003C003C007E006630E3F73
:1041E0001C3CF83FE0F700C00000000000000000A9
:1041F00000000000FE0FFE1F0638063006300630B5
:104200000638FE1FFE0706030606060C06180618EB
:1042100006300630066000000000000000000000CC
:1042200000000000E003F80F1C0C0C180C180C0028
:104230001C00F803E00F001E0038063006300E3078
:104240001C1CF80FE0070000000000000000000048
:1042500000000000FE7FFE7F800180018001800160
:104260008001800180018001800180018001800146
:1042700080018001800100000000000000000000BB
:10428000000000000C300C300C300C300C300C30C6
:104290000C300C300C300C300C300C300C300C303E
:1042A0001818F81FE00700000000000000000000E0
:1042B0000000000003600630063006300C180C18B1
:1042C0000C18180C180C380E3006300670076003F6
:1042D0006003C001C00100000000000000000000F9
:1042E000000000000360C361C361C36166336633CD
:1042F00066336633663366336C1B6C1B6C1B2C1A7F
:104300003C1E380E380E00000000000000000000C7
:10431000000000000FE00C7018303018700C600EB8
:10432000C00780038003C003E006700C301C18181F
:104330000C300E6007E000000000000000000000EC
:104340000000000003C006600C301C383818300C28
:104350006006E007C00380018001800180018001C8
:1043600080018001800100000000000000000000CA
:1043700000000000FC7FFC7F006000300018000C93
:10438000000600038001C0006000300018000C002F
:104390000600FE7FFE7F000000000000000000001D
:1043A00000000000E003E0036000600060006000C7
:1043B00060006000600060006000600060006000FD
:1043C000600060006000600060006000E003E003E7
:1043D0000000000030003000600060006000C0009D
:1043E000C000C000C0018001800180010003000303
:1043F00000030006000600000000000000000000AE
:1044000000000000E003E0030003000300030003DA
:104410000003000300030003000300030003000384
:10442000000300030003000300030003E003E003B4
:10443000000000000000C001C001600360036003D1
:1044400030063006180C180C0000000000000000B8
:10445000000000000000000000000000000000005C
:10446000000000000000000000000000000000004C
:10447000000000000000000000000000000000003C
:1044800000000000FFFFFFFF000000000000000030
:10449000000000000C000C000C000C000C000C00D4
:1044A000000000000000000000000000000000000C
:1044B00000000000000000000000000000000000FC
:1044C0000000000000000000000000000000F003F9
:1044D000F8071C0C0C0C000FF00FF80C0C0C0C0C5B
:1044E0001C0FF80FF0180000000000000000000092
:1044F0000000000018001800180018001800D80369
:10450000F80F380C18181818181818181818181840
:10451000380CF80FD8030000000000000000000075
:104520000000000000000000000000000000C003C8
:10453000F007300E180C1800180018001800180C9E
:10454000300EF007C0030000000000000000000073
:104550000000000000180018001800180018C01B08
:10456000F01F301C181818181818181818181818D0
:10457000301CF01FC01B0000000000000000000005
:104580000000000000000000000000000000C00368
:10459000F00F300C1818F81FF81F18001800381802
:1045A000301CF00FC00700000000000000000000F9
:1045B00000000000800FC00FC000C000C000F00766
:1045C000F007C000C000C000C000C000C000C000B4
:1045D000C000C000C000000000000000000000009B
:1045E0000000000000000000000000000000E00DDE
:1045F000F80F180E0C0C0C0C0C0C0C0C0C0C0C0CFE
:10460000180EF80FE00D000C0C0C1C06F807F0015A
:104610000000000018001800180018001800D80743
:10462000F80F381C1818181818181818181818180F
:1046300018181818181800000000000000000000EA
:1046400000000000C000C000000000000000C0002A
:10465000C000C000C000C000C000C000C000C0005A
:10466000C000C000C000000000000000000000000A
:1046700000000000C000C000000000000000C000FA
:10468000C000C000C000C000C000C000C000C0002A
:10469000C000C000C000C000C000C000F80078002A
:1046A000000000000C000C000C000C000C000C0CB6
:1046B0000C060C038C01CC006C00FC009C018C03EC
:1046C0000C030C060C0C00000000000000000000B1
:1046D00000000000C000C000C000C000C000C0005A
:1046E000C000C000C000C000C000C000C000C000CA
:1046F000C000C000C000000000000000000000007A
:1047000000000000000000000000000000007C3CF1
:10471000FF7EC7E383C183C183C183C183C183C1DA
:1047200083C183C183C100000000000000000000BD
:1047300000000000000000000000000000009807DA
:10474000F80F381C181818181818181818181818EE
:1047500018181818181800000000000000000000C9
:104760000000000000000000000000000000C00386
:10477000F00F300C181818181818181818181818DE
:10478000300CF00FC003000000000000000000002B
:104790000000000000000000000000000000D8033E
:1047A000F80F380C1818181818181818181818189E
:1047B000380CF80FD803180018001800180018005B
:1047C0000000000000000000000000000000C01B0E
:1047D000F01F301C1818181818181818181818185E
:1047E000301CF01FC01B001800180018001800181B
:1047F0000000000000000000000000000000B00702
:10480000F003700030003000300030003000300025
:104810003000300030000000000000000000000008
:104820000000000000000000000000000000E003A5
:10483000F003380E180C3800F003C007000C180CF9
:10484000380EF007E0030000000000000000000048
:104850000000000000008000C000C000C000F007A1
:10486000F007C000C000C000C000C000C000C00011
:10487000C000C0078007000000000000000000002A
:1048800000000000000000000000000000001818F8
:104890001818181818181818181818181818181898
:1048A000381CF01FE01900000000000000000000AC
:1048B00000000000000000000000000000000C18D4
:1048C000180C180C180C3006300630066003600314
:1048D0006003C001C00100000000000000000000F3
:1048E0000000000000000000000000000000C141C6
:1048F000C141C361636363636363363636363636FC
:104900001C1C1C1C1C1C00000000000000000000FF
:1049100000000000000000000000000000001C3843
:10492000381C300C6006600360036003600360069F
:10493000300C381C1C380000000000000000000093
:10494000000000000000000000000000000018301F
:10495000301830187018600C600CE00CC006C006EF
:1049600080038003800380018001C001F00070009B
:104970000000000000000000000000000000FC1F1C
:10498000FC1F000C000600038001C0006000300026
:104990001800FC1FFC1F00000000000000000000C9
:1049A0000000000000038001C000C000C000C00083
:1049B000C000C00060006000300060004000C00027
:1049C000C000C000C000C000C000800100030000A3
:1049D00000000000800180018001800180018001D1
:1049E00080018001800180018001800180018001BF
:1049F00080018001800180018001800180018001AF
:104A0000000000006000C000C00180018001800142
:104A10008001800100030003000600030001800103
:104A200080018001800180018001C00060000000E1
:104A30000000000000000000000000000000000076
:104A40000000F010F81F080F000000000000000038
:104A50000000000000000000000000000000000056
:104A6000000000000000000000000102030406072F
:104A700008090000944A00080000002038000000E7
:104A8000A82F0008CC4A000838000020800400004D
:104A9000B82F000800000000FFFF00000102000026
:104AA0000100000002000000000000003333333337
:104AB00033330340333333333333F33F10000000D9
:0C4AC00001000000000000000024F400D1
:04000005080001D915
:00000001FF
