:020000040800F2
:10000000F8050020F1010008E3250008332000086E
:10001000E1250008FD020008F53900080000000095
:100020000000000000000000000000009929000806
:10003000BB03000800000000E52500089D2900081A
:100040000B0200080B0200080B0200080B0200085C
:100050000B0200080B0200080B0200080B0200084C
:100060000B0200080B0200080B0200080103000845
:100070000D0300080B0200080B0200080B02000829
:100080000B020008000000000B0200080B02000831
:100090000B0200080B0200080B0200080B0200080C
:1000A0000B0200080B0200080B0200080B020008FC
:1000B000D12A00080B0200080B0200080B020008FE
:1000C0000B0200080B0200080B0200080B020008DC
:1000D0000B020008C93900080B0200080B020008D7
:1000E0000B0200080B0200080B0200080B020008BC
:1000F0000B0200080B0200080B02000800000000C1
:10010000000000000B020008000000000B020008C5
:100110000B020008000000000B0200080B020008A0
:100120000B0200080B0200080B0200080B0200087B
:100130000B02000800000000000000000B02000895
:100140000B0200080B020008000000000000000085
:10015000000000000000000000000000000000009F
:100160000000000000000000000000000B0200087A
:100170000B0200080000000000000000000000006A
:10018000000000000B02000800000000000000005A
:10019000000000000000000000000000000000005F
:1001A00000000000000000000B0200080B02000825
:1001B0000B0200080B0200080B0200080000000000
:1001C000000000000B02000800000000000000001A
:1001D0000B0200080B020008DFF810D000F07CF8DA
:1001E00000480047653E0008AFF30080F805002096
:1001F0000648804706480047FEE7FEE7FEE7FEE7C1
:10020000FEE7FEE7FEE7FEE7FEE7FEE7B52A0008A9
:10021000D90100082DE9F05F0546002092469B4673
:1002200088460646814640241BE02846414647460C
:10023000224600F041F853465A46C01A914110D365
:1002400011461846224600F028F82D1A67EB0108DF
:100250004F4622460120002100F01FF817EB00094D
:100260004E41201EA4F10104DFDC484631462A46F7
:100270004346BDE8F09FD2B201E000F8012B491ED1
:10028000FBD270470022F6E710B513460A46044633
:100290001946FFF7F0FF204610BD202A04DB203A64
:1002A00000FA02F1002070479140C2F1200320FAC9
:1002B00003F3194390407047202A04DB203A21FAC7
:1002C00002F00021704721FA02F3D040C2F120026F
:1002D0009140084319467047064C074D06E0E06818
:1002E00040F0010394E8070098471034AC42F6D37D
:1002F000FFF776FFEC5000080C510008FEE7000005
:10030000014800F0DDB8000038010020014800F08D
:10031000D7B80000980100200D4902688A4201D236
:100320000C4901E00B492031D2B21423083AB2FB48
:10033000F3F2436C02F01F0223F0030319448164BB
:1003400004498031C164012191400165704700007A
:1003500008040240000802400179074A02EB8102CA
:100360004265054A4432491E826501F01F0201219F
:100370009140C16570470000FC08024030B5D0E9EB
:1003800013456560446D14B1D0E91645656090F879
:10039000444004F01F050124AC40056C6C60046807
:1003A00063608368102B036803D099600068C260A3
:1003B00030BD9A600068C16030BD7047002240F6D1
:1003C000B83306E00021491C89B29942FBD3521C84
:1003D00092B28242F6D37047704710B590F825303C
:1003E00000210122022B03D00421C163012122E05C
:1003F00003681C6824F00E041C60836C1C6824F4E1
:1004000080741C6003681C6824F001041C6090F870
:100410004430046C03F01F0302FA03F36360D0E975
:1004200013345C60436D33B11C6824F480741C6029
:10043000D0E916345C6080F82520002280F8242062
:10044000084610BD70B590F82520002401212346F0
:10045000022A07D00422C26380F8251080F82430D5
:10046000012429E00268156825F00E051560026870
:10047000156825F001051560826C156825F48075F6
:10048000156090F84420056C02F01F0201FA02F298
:100490006A60D0E913255560426D32B1156825F4C4
:1004A00080751560D0E91625556080F8251080F814
:1004B0002430816B01B18847204670BDC06B704706
:1004C000F0B4016C0C6801680D6890F8442002F0EB
:1004D0001F06042202FA06F3234211D06B070FD540
:1004E0000B689B0603D40B6823F004030B6090F8A1
:1004F000441001F01F018A40016C4A60016B1DE04D
:10050000022303FA06F727424FF0000C4FF00102D6
:1005100018D0AF0716D50C68A40605D40C6824F0D3
:100520000A040C6080F8252090F8441001F01F01A7
:100530008B40016C4B6080F824C0C16A00291AD03E
:10054000F0BC08470823B340234214D02B0712D530
:100550000B6823F00E030B6090F84410036C01F05D
:100560001F0102FA01F15960C26380F8252080F86A
:1005700024C0416BE2E7F0BC7047000070B5040096
:100580000CD02B4A21681420914209D2294A0A44EE
:10059000B2FBF0F08000606427480AE0012070BDE3
:1005A000234A52420A44B2FBF0F0800060642048C3
:1005B00008382064022084F825000A6847F6F070A5
:1005C0008243D4E902031843D4E904352B4318438A
:1005D000A3691843E3691843236A1843104308606A
:1005E0002046FFF799FEA0680025B0F5804F00D1A6
:1005F0006560A16C20790860D4E9130141606068EE
:10060000401E032808D82046FFF7A6FE606D05604F
:10061000D4E91601416002E06565A565E565E5631D
:10062000012084F8250084F82450002070BD0000CB
:1006300008040240F8FFFDBF0000024070B5044608
:1006400090F82400002501280CD0012084F8240013
:1006500094F825600020012E06D084F8240002259D
:10066000284670BD022070BD022684F82560E06334
:100670002068066826F0010606602046FFF77EFE29
:10068000206B00282068016802D041F00E0106E0CE
:1006900021F0040101602068016841F00A01016055
:1006A000A06C0168C90303D5016841F48071016041
:1006B000606D18B1016841F48071016020680168C3
:1006C00041F001010160CBE770B5044600F0FCF891
:1006D0000546601C02D004484068044400F0F4F869
:1006E000401BA042FAD370BD1C0000202DE9FC4F36
:1006F000DFF8A0A1002301250AF1040B03244FF029
:100700000F0C0BF1040EBDE005FA03F632406FD07A
:100710004F68012F05D0022F03D0112F01D0122FC7
:1007200017D1D0F808905F0004FA07F829EA080901
:100730000097D1F80C8008FA07F848EA0908C0F8D1
:1007400008804768B7430E79C6F300169E403E43C3
:100750004660C6684FEA430804FA08F7BE430197AB
:100760008F6807FA08F73743C7604E68022E01D03A
:10077000122E13D1DE0800EB86060096366A5F075C
:10078000FF0E0CFA07F926EA0906D1F8109009FACB
:1007900007F949EA0609009EC6F820900668019FFD
:1007A000BE430F7907F0030707FA08F737430760DE
:1007B0004E68F60065D5384E376E47F0010737664C
:1007C000366E23F0030706F001060096334E3E44D2
:1007D000B146B6689F074FEA17780CFA08F7BE4390
:1007E000B0F1904F05D02E4FB84204D1012717E049
:1007F00047E0002714E02B4FB84201D102270FE059
:10080000294FB84201D103270AE0284FB84201D14D
:10081000042705E0264FB84201D1052700E006274E
:1008200007FA08F73743C9F80870DAF80060574646
:10083000D1F8048096435FEAC83800D516433E607D
:10084000DBF800605F46D1F8048096435FEA8838A1
:1008500000D516433E60DEF800607746D1F804808C
:1008600096435FEAC82800D516433E60094F0C370F
:100870003E68D1F8048096435FEA882800D5164385
:100880003E605B1C0A6832FA03F67FF43DAFBDE8B8
:10089000FC8F0000000401400010024000000140F5
:1008A0000004004800080048000C00480010004800
:1008B000001400480069084000D0012070470AB1C8
:1008C000816170478162704701488068704700000D
:1008D0001C00002002488168426811448160704712
:1008E0001C00002010B50024032000F077F8002041
:1008F00000F008F808B1012401E000F025F82046D6
:1009000010BD000070B50E4E05460024706898B109
:100910004FF47A71B1FBF0F00A490968B1FBF0F0CD
:1009200000F060FD40B9102D06D200222946501E6D
:1009300000F034F8356000E00124204670BD00006E
:100940001C000020280000200B4808B5016E41F073
:1009500001010166016E01F001010091816D41F01C
:1009600080518165806D00F080500090034881685F
:1009700041F48041816008BD0010024000700040D9
:10098000002809DB00F01F0201219140400980008E
:1009900000F1E020C0F8001170470000F0B40E4BE9
:1009A0001B680C46C3F30223C3F10705042D00D9CD
:1009B0000425191D072901D2002300E0DB1E0126B2
:1009C00006FA05F1491E214099409E40761E1640C8
:1009D0003143F0BC03F024B80CED00E0064900F010
:1009E000070208684FF6FF03184040EA0220034A56
:1009F00010430860704700000CED00E00000FA05AD
:100A00002B492C4B0A6832214A432B4940B1B0F59F
:100A1000007F086829D020F4C06040F480602CE09A
:100A20000868C0F34120022804D051F8800F20F458
:100A3000807022E0D1F8800020F48070C1F880003E
:100A4000086820F4C06040F400700860B2FBF3F066
:100A5000401C00E0401E4A69520501D50028F9D12A
:100A6000486940050AD503207047C0F34120022899
:100A700006D051F8800F40F4807008600020704765
:100A8000D1F8800040F48070C1F88000086820F43C
:100A9000C06040F400700860B2FBF3F0401C00E05E
:100AA000401E4A695205DBD50028F9D1D8E700007D
:100AB0002800002040420F00007000402DE9F8435C
:100AC0000446006800269D4D00035ED5A86D0027F2
:100AD000C00008D4A86D40F08050A865A86D01271B
:100AE00000F080500090DFF85892D9F8001041F4DF
:100AF0008071C9F80010FFF7E7FE804606E000BFEE
:100B0000FFF7E2FEA0EB080002282BD8D9F800007E
:100B1000C005F5D5D5F8900010F4407014D0216CC4
:100B2000814211D0D5F89000D5F8901020F4407093
:100B300041F48031C5F89010D5F8901021F480313F
:100B4000C5F89010C5F89000C00711D0FFF7BCFEA3
:100B5000804641F2883907E0FFF7B6FEA0EB0801B6
:100B6000494501D903260BE0D5F890008007F3D55D
:100B7000D5F89000216C20F440700843C5F890002F
:100B80001FB1A86D20F08050A8652078C00707D05D
:100B9000D5F88800616820F003000843C5F8880094
:100BA0002078800707D5D5F88800A16820F00C00D0
:100BB0000843C5F888002078400707D5D5F8880095
:100BC000E16820F030000843C5F88800207800076D
:100BD00007D5D5F88800216920F0C0000843C5F882
:100BE00088002078800607D5D5F88800616920F450
:100BF00040600843C5F888002078400607D5D5F83E
:100C00008800A16920F440500843C5F88800207886
:100C1000000607D5D5F88800E16920F44040084374
:100C2000C5F888002088C00507D5D5F88800216A56
:100C300020F440300843C5F888002088800507D597
:100C4000D5F88800616A20F440200843C5F8880080
:100C5000208840050FD5D5F88800A16A20F44010FF
:100C60000843C5F88800A06AB0F5801F03D1E86882
:100C700040F48010E860208800050FD5D5F8880082
:100C8000E16A20F440000843C5F88800E06AB0F546
:100C9000800F03D1E86840F48010E8602088C00429
:100CA0000FD5D5F88800216B20F040700843C5F8B7
:100CB0008800206BB0F1807F03D1E86840F4801099
:100CC000E86020884FF0006180040ED5D5F88800D8
:100CD000626B20F040601043C5F88800606B88426A
:100CE00003D1E86840F48010E860208840040ED505
:100CF000D5F88800A26B20F040601043C5F888004A
:100D0000A06B884203D1E86840F48010E860208836
:100D100000040FD5D5F88800E16B20F0405008435F
:100D2000C5F88800E06BB0F1805F03D1E86840F45B
:100D30008030E8603046BDE8F883000000100240D3
:100D4000007000402DE9F0470E4605004FF0000707
:100D500025D0DFF8AC81D8F8000000F00F00B042D9
:100D60000CD2D8F8001021F00F013143C8F8001060
:100D7000D8F8000000F00F00B04210D12968614C93
:100D8000C80741F2883A5AD06868DFF87C91032896
:100D900008D0022820682DD0400500282CDB012037
:100DA000BDE8F08720688001F9D5E06800F0030213
:100DB000E068C0F30310401C032A19D0534A00BF57
:100DC000B2FBF0F0E268C2F306225043E268C2F3DD
:100DD0004162521C5200B0FBF2F0484517D9A0689E
:100DE00010F0F00F0CD0880711D5A86840B10EE0C4
:100DF000474AE5E78003D0E700F0B6F8484506D952
:100E0000A06820F0F00040F08000A0608027A0687B
:100E1000696820F003000843A060FFF755FD814694
:100E200006E000BFFFF750FDA0EB090151453AD89D
:100E3000A068696800F00C00B0EB810FF2D128685F
:100E4000810714D5400703D5A06840F4E060A06096
:100E50002878000705D5A06820F4605040F4E060D1
:100E6000A060A068A96820F0F000084304E0802F8B
:100E700003D1A06820F0F000A060D8F80010404630
:100E800001F00F01B14216D9016821F00F01314381
:100E90000160FFF719FD074607E000BFFFF714FDEB
:100EA000C11B514501D903207AE7D8F8000000F0B2
:100EB0000F00B042F2D12878400705D5A068E96854
:100EC00020F4E0600843A0602878000706D5A068F9
:100ED000296920F4605040EAC100A06000F044F8A5
:100EE000A1680C4AC1F30311515C01F01F01C84015
:100EF0000949086009480068BDE8F047FFF702BDEE
:100F0000002002400010024000B4C4040024F40099
:100F100000366E01D2500008280000201C0000207E
:100F20000548064900688968054AC1F30221515CF9
:100F300001F01F01C8407047280000200010024047
:100F4000E25000080548064900688968054AC1F36F
:100F5000C221515C01F01F01C840704728000020E9
:100F600000100240E2500008184910B58868C0F32C
:100F700081021748012A0BD08A68164BC2F38102FE
:100F8000022A06D08A68C2F38102032A03D0002015
:100F900010BD184610BDCA6802F00304CA68C2F347
:100FA0000312521C032C02D0B0FBF2F001E0B3FBA1
:100FB000F2F0CA68C968C2F306225043C1F3416126
:100FC000491C4900B0FBF1F010BD000000100240C8
:100FD0000024F40000366E012DE9F84304007AD0B5
:100FE0002078FA4DC00747D0A868E96800F00C00E7
:100FF00001F003010C2802D0082817D001E00329D2
:1010000014D06068B0F5803F17D0B0F5A02F2868E5
:1010100017D020F480302860286820F480202860D1
:101020006068E0B1FFF750FC064614E028688003D2
:1010300022D560680028D2D01EE0286840F48030B5
:10104000EDE740F480202860F7E700BFFFF73CFCA5
:10105000801B642870D828688003F7D50CE0FFF760
:1010600033FC064605E000BFFFF72EFC801B64281A
:10107000F0D828688003F7D4207880074CD5A8687A
:10108000E96800F00C0001F003010C2802D00428EC
:101090000DD001E002290AD0E068002828682BD092
:1010A00040F480702860FFF70FFC064619E02868BE
:1010B000400502D5E068002891D06868217C20F0C6
:1010C000FE4040EA01606860C1480068FFF71AFC12
:1010D000002800D120E076E1FFF7F6FB801B022814
:1010E000B8D828684005F7D56868217C20F0FE4014
:1010F00040EA016068600FE020F480702860FFF72C
:10110000E3FB064605E000BFFFF7DEFB801B02287D
:10111000A0D828684005F7D42078000729D5606951
:101120000028D5F8940013D040F00100C5F89400D1
:10113000FFF7CAFB064606E090E000BFFFF7C4FBDE
:10114000801B022886D8D5F894008007F6D510E0D9
:1011500020F00100C5F89400FFF7B6FB064604E056
:10116000FFF7B2FB801B022878D8D5F894008007DF
:10117000F6D42078400761D5A86D0026C00008D4B9
:10118000A86D40F08050A865A86D012600F0805041
:10119000009090480168C90511D40168804641F467
:1011A00080710160FFF790FB074604E0FFF78CFBBE
:1011B000C01B022852D8D8F80000C005F6D5A06898
:1011C000012815D00528D5F8900016D020F0010090
:1011D000C5F89000D5F8900020F00400C5F8900004
:1011E000A06841F28838B8B1FFF76EFB07460EE001
:1011F000D5F8900040F00100F0E740F00400C5F899
:101200009000F5E7FFF760FBC11B414526D8D5F8F4
:1012100090008007F6D50CE0FFF756FB074604E088
:10122000FFF752FBC11B414518D8D5F89000800745
:10123000F6D41EB1A86D20F08050A86520788006F5
:1012400029D5A0690028D5F8980013D040F00100F6
:10125000C5F89800FFF738FB064606E077E000BFC8
:10126000FFF732FB801B022877D8D5F8980080075B
:10127000F6D510E020F00100C5F89800FFF724FB38
:10128000064604E0FFF720FB801B022865D8D5F84E
:1012900098008007F6D4E069F0B3A968C1F3810132
:1012A000032961D00228286820F0807028600BD0C4
:1012B000E86820F00300E860E86847490840E86013
:1012C000FFF702FB04464BE0FFF7FEFA064604E098
:1012D000FFF7FAFA801B02283FD828688001F7D46C
:1012E000F4E908016FF00F0202EB01110843218AB3
:1012F0005204490802EB4151A26841EA0221084325
:10130000217D4FF07E42490802EB41610843217B79
:1013100040EAC160E96800E062E0304A11400843F9
:10132000E860286840F080702860E86840F08070CD
:10133000E860FFF7C9FA044605E000BFFFF7C4FA0A
:10134000001B022809D828688001F7D548E004E08E
:10135000FFF7BAFA001B022802D90320BDE8F88380
:1013600028688001F4D43BE00128F7D0E868226ABD
:1013700000F00301914226D1616A00F0F0020901F8
:10138000103991421FD1A26A00F4FE41B1EB022F45
:1013900019D194F82C2000F07841B1EBC26F12D132
:1013A000218E00F4C00249084905A1F500119142BF
:1013B00009D194F8341000F0C06049084906A1F141
:1013C000007181420CD00120C8E7000000100240EB
:1013D0001C00002000700040FFFFEEFE0C809F010B
:1013E0000020BBE710B5401EB0F1807F01D3012083
:1013F00010BD4FF0E02460610F21601702F010FB78
:101400000020A06107202061002010BD70477047B8
:101410007047704770477047F0B590F83C20012A3C
:101420003AD0012580F83C50022280F83D20036824
:101430005A689C68194E1A4FB34201D0BB4204D17E
:1014400022F4700C4A6842EA0C02DFF858C002EA43
:101450000C02D1F800C04CEA020CC3F804C00268C8
:10146000B2420DD0B2F1804F0AD00F4B9A4207D052
:101470000E4B9A4204D0BA4202D00D4B9A4204D18C
:10148000896824F080031943916080F83D50002161
:1014900080F83C100846F0BD0220F0BD002C014051
:1014A000003401408FFFFFFD0004004000080040B1
:1014B00000400140704710B5040003D094F83D008F
:1014C00010B107E0012010BD002084F83C00204648
:1014D00000F022F8022084F83D00211D206801F070
:1014E000FDFA012084F8480084F83E0084F83F00AB
:1014F00084F8400084F8410084F8420084F84300F6
:1015000084F8440084F8450084F8460084F84700D5
:1015100084F83D00002010BD08B50068B0F1804F90
:1015200012D10A48816D41F001018165806D002270
:1015300000F00100009011461C20FFF72FFABDE8D3
:1015400008401C20FFF71CBA08BD00000010024034
:1015500070B5044690F83C00012815D0012584F8A8
:101560003C50022084F83D0022689068354B1840BA
:1015700020F47F4090600868B0F5805F50D010DCA8
:1015800010F00F0F03D04BE04FF0020070BD4FEA98
:101590002012082A44D2DFE802F051515151493259
:1015A0003A1B294BC21A984248D00ADCB0F5005FBA
:1015B00019D0B0F1101F41D0A0F5801120392FD1E2
:1015C0003CE0102A3AD0302A38D0402A28D135E0E1
:1015D000CB68D1E90121206801F0E5FA2068816833
:1015E00041F0770109E0CB68D1E90121206801F0E1
:1015F000DAFA2068816841F48041816010E0CA68AD
:101600004968206801F07AFC5021206806E0CA6829
:101610004968206801F083FC6021206801F0CEFA5F
:1016200084F83D50002084F83C0070BDCA684968C9
:10163000206801F063FC40212068EFE72268014642
:101640001046EBE788FFCEFF30001000704770B502
:101650000446006801694FF00005C943890715D4A5
:10166000C168C943890711D4E91E016101202077AF
:10167000206880698007204602D0FFF7E7FF04E07A
:1016800000F00AF9204600F0C9F9257720680169C1
:10169000C943490717D4C168C943490713D46FF038
:1016A00004010161022020772068806910F4407FE6
:1016B000204602D0FFF7CAFF04E000F0EDF8204614
:1016C00000F0ACF9257720680169C943090716D4F1
:1016D000C168C943090712D46FF0080101610420F1
:1016E00020772068C0698007204602D0FFF7AEFF50
:1016F00004E000F0D1F8204600F090F9257720684A
:101700000169C943C90617D4C168C943C90613D4BE
:101710006FF010010161082020772068C06910F483
:10172000407F204602D0FFF791FF04E000F0B4F8BC
:10173000204600F073F9257720680169C943C9077D
:1017400008D1C168C943C90704D1891E0161204677
:1017500000F0D0F920680169C943090609D4C168BD
:10176000C943090605D46FF0800101612046FFF7E7
:101770004EFE20680169C943C90509D4C168C9433F
:10178000090605D46FF4807101612046FFF73EFE23
:1017900020680169C943490609D4C168C94349069B
:1017A00005D46FF040010161204600F0A4F92068E3
:1017B0000169C943890609D4C168C943890605D4AA
:1017C0006FF0200101612046FFF722FE20680169C9
:1017D000C943C90209D4C168C943C90205D46FF419
:1017E000801101612046FFF715FE20680169C94399
:1017F000890209D4C168C943890205D46FF4001174
:1018000001612046FFF705FE20680169C9434902CE
:1018100009D4C168C943490205D46FF4800101614C
:101820002046FFF7F8FD20680169C94309020BD47F
:10183000C168C943090207D46FF400010161204661
:10184000BDE87040FFF736BE70BD000010B586B031
:10185000044614216846FEF715FD2068B0F1804F5C
:1018600015D10C48C16C41F00101C164C06C6946DE
:1018700000F00100059002200090019000200290ED
:101880000390012004904FF09040FEF72FFF06B028
:1018900010BD000000100240704770B5044690F87B
:1018A0003C000D4601280BD0012084F83C000C2A96
:1018B00045D007DC5AB1042A1BD0082A78D12CE085
:1018C000022070BD102A4ED0142A71D15DE020682C
:1018D00001F07EF92068816941F00801816120688A
:1018E000816921F004018161206881692A691143BD
:1018F00011E0206801F0BAF92068816941F40061C3
:1019000081612068816921F4806181612068816939
:101910002A6941EA022181614AE0206801F0EEF97A
:101920002068C16941F00801C1612068C16921F0E6
:101930000401C1612068C1692A69114311E020686E
:1019400001F024FA2068C16941F40061C161206896
:10195000C16921F48061C1612068C1692A6941EAD5
:101960000221C16124E0206801F058FA2068016D6D
:1019700041F0080101652068016D21F00401016555
:101980002068016D2A69114311E0206801F07EFA98
:101990002068016D41F4006101652068016D21F44A
:1019A000806101652068016D2A6941EA02210165B3
:1019B000002084F83C0070BD10B5040003D094F8FA
:1019C0003D0010B107E0012010BD002084F83C006C
:1019D000204600F022F8022084F83D00211D2068F6
:1019E00001F07CF8012084F8480084F83E0084F877
:1019F0003F0084F8400084F8410084F8420084F8F5
:101A0000430084F8440084F8450084F8460084F8D4
:101A1000470084F83D00002010BD7047704700006B
:101A200010B50446022269B1042912D0082917D042
:101A30000C291CD0102921D094F84300012824D06F
:101A4000012010BD94F83E000128F9D184F83E2011
:101A50001DE094F83F000128F2D184F83F2016E001
:101A600094F840000128EBD184F840200FE094F86E
:101A700041000128E4D184F8412008E094F84200B4
:101A80000128DDD184F8422001E084F843200122BE
:101A9000206801F07BF81149206888420BD010497A
:101AA000884208D00F49884205D00F49884202D0A9
:101AB0000E49884203D1416C41F4004141642068E1
:101AC00081680B4A1140062906D0B1F5803F03D04A
:101AD000016841F001010160002010BD002C0140AF
:101AE00000340140004001400044014000480140F2
:101AF000070001007047704790F87C10012918D04A
:101B0000012180F87C102421C0F8801050F8601B5F
:101B10000A680B6823F001030B6022F000510022D9
:101B2000426050F8603C1960202101620277104643
:101B3000704702207047704770B5044690F87C00EB
:101B400001281DD0012084F87C002420C4F88000E6
:101B500020680568026822F001020260206882683D
:101B600022F060620A438260204601F0EBF92068AF
:101B700005602020C4F88000002084F87C0070BD3F
:101B8000022070BD70B5044690F87C0001281DD07D
:101B9000012084F87C002420C4F8800020680568B7
:101BA000026822F0010202602068826822F060422E
:101BB0000A438260204601F0C5F9206805602020B4
:101BC000C4F88000002084F87C0070BD022070BD45
:101BD0007047704770B5D0F880100446D0F8845034
:101BE000006882684FF01006120612D5212910D124
:101BF000816821F080018160606F38B1FEF7EDFBF4
:101C000020B1606FFEF75AFC20281BD0204601F05F
:101C1000C7FA20688168490612D5222D10D1816843
:101C200021F040018160A06F38B1FEF7D6FB20B1F2
:101C3000A06FFEF743FC202804D0204601F09EFA56
:101C4000002070BDC4F88860032070BD704700009C
:101C50002DE9F04103680446D8691A68996810F0C4
:101C60000F0F4FF0000569D05E4E02F490770E40E2
:101C700037437DD0C70709D0D70507D501271F6295
:101C8000D4F8883043F00103C4F8883083070AD5BC
:101C9000CB0708D0276802233B62D4F8883043F092
:101CA0000403C4F8883043070AD5CB0708D0276857
:101CB00004233B62D4F8883043F00203C4F8883030
:101CC00003070CD502F02003334308D0266808230D
:101CD0003362D4F8883043F00803C4F88830D4F86D
:101CE0008830002B3CD0800609D502F0200001F09E
:101CF0008051084303D0E16E09B120468847D4F8EB
:101D0000880021688968490601D400072AD5204641
:101D100001F034FA2068816849061ED5816821F0F7
:101D200040018160A06FC0B12F498163A06FFEF7B1
:101D300089FB002814D0A06F816B0AE0860617D5B6
:101D400002F0200601F080573E4311D0E16E24E0FE
:101D50002046BDE8F04108470AE02046FFF776FF3D
:101D6000BDE8F0812046FFF771FFC4F88850F7E71F
:101D7000C60209D54E0207D54FF4801018622046DE
:101D8000BDE8F041FFF725BF060609D502F0800641
:101D900001F400010E4303D0216F0029D8D1DFE701
:101DA00041060DD551060BD51968204621F040019A
:101DB00019602021C4F88010256700F039F9CFE7B9
:101DC000010206D5510004D52046BDE8F041FFF7D9
:101DD000FFBEC001C4D5002AC2DA2046BDE8F041EA
:101DE000FFF7A9BE01000010CF30000812480068BC
:101DF0004068C0F1320080B2072818D10F4A10495C
:101E000010780B78984212D150784B7898420ED1C6
:101E100090788B7898420AD1D0782D2807D100206D
:101E200013181B790B54401CC0B20228F8D9322277
:101E30000249044800F0A8B8380100202C00002016
:101E40000C000020AC00002010B5040003D0D4F832
:101E5000800010B107E0012010BD002084F87C0054
:101E6000204600F027F82420C4F88000206801688C
:101E700021F001010160204601F0A0F90128EBD01A
:101E8000A06A10B1204601F08FF82068416821F463
:101E9000904141602068816821F02A0181602068BA
:101EA000016841F0010101602046BDE8104001F0E9
:101EB000DFB80000F0B587B0064614216846FEF78B
:101EC000E1F92D493068884254D12C48016E41F423
:101ED00080410166016E01F480410591C16C41F0C1
:101EE0000101C164C06C002400F0010005904FF4B2
:101EF000C06000900220CDE901040720CDE9034035
:101F000069464FF09040FEF7F1FB1E4D1C488027BC
:101F100028601820C5E90104C5E903476C61AC617C
:101F2000EC6128462C62FEF729FB08B1FEF754FA53
:101F3000B567AE62134D1248603514302860192021
:101F4000686005F10801102081E891006C61AC61C6
:101F5000EC6128462C62FEF711FB08B1FEF73CFA53
:101F60007567002211462520AE62FEF717FD252079
:101F7000FEF706FD07B0F0BD00380140001002403A
:101F8000080002403801002070B50446D0F88400F3
:101F9000202842D161B35AB394F87C0001283CD088
:101FA000012084F87C00A165A4F85C200025C4F819
:101FB00088502220C4F88400A06FD8B11849C162AB
:101FC000A16F184813460863A16F17484863A06FB4
:101FD0008563A66D216832462431A06FFEF72EFB83
:101FE00040B11020C4F8880004F87C5F20206060B5
:101FF000012070BD84F87C502068016841F4807134
:1020000001602068816841F0010181602068816879
:1020100041F040018160002070BD022070BD0000D1
:102020003331000871310008E33000087047704711
:102030007047FEE700B585B014216846FEF722F927
:102040004FF6FF70009000200321CDE902010190BE
:1020500069460248FEF74AFB05B000BD000800488B
:1020600000B585B014216846FEF70CF94FF6FF70F5
:102070000090012001900320039000200290694607
:102080000248FEF733FB05B000BD00000008004821
:1020900070B5002406462146204600F003F900F002
:1020A00041F94FF49635304600F010F9641CAC420B
:1020B000F9D370BD30B587B014216846FEF7E2F859
:1020C0001E48C16C41F00401C164C16C01F00401FF
:1020D0000591C16C41F00101C164C16C01F00101C5
:1020E0000591C16C41F00201C164C06C012500F092
:1020F000020005904FF44870CDE9000500240394D8
:10210000694602940E48FEF7F1FA28020394009003
:10211000CDE901544FF0904469462046FEF7E6FAB7
:10212000FFF79EFFA06940F48070A061044818305A
:10213000016841F40871016007B030BD0010024031
:1021400000040048203AD2B2034B02EB420203EBF8
:10215000021200F019B80000023F0008F0B50E4668
:102160000746002540F23F1407E021463846FFF7B6
:10217000E9FF103C6D1CA4B2761C3278002A01D015
:10218000142DF2D3F0BD00002DE9F04791468A46A8
:102190000026044600F086F8DFF84080012700BFE3
:1021A00000F0C0F85FF0000539F8160007FA05F1F5
:1021B0000842404601D1408800E0008800F086F8DF
:1021C0006D1C102DF0D3641CE4B25146204600F083
:1021D00069F8761C182EE3D3BDE8F08700000020D4
:1021E00010B5FFF767FF002000F014F8084CA0803E
:1021F000A088A0F50241303906D000F07DFA002019
:1022000000F008F8A08010BD00F0EDF9F7E700003D
:102210000000002070B51D490A6842F400720A608F
:102220000A6842F480720A60184C103C226842F03E
:1022300020022260164A1060086840F02000086002
:1022400000BF00BF00BF206840F020002060206871
:1022500040F480702060FFF7EDFE4FF09041886AF7
:1022600040F48070886200BF00BF00BF0848001FB4
:10227000006885B2886940F480708861FFF7F0FEDD
:10228000206840F400702060284670BD2804004893
:102290001408004801B5BDF800000149488008BD98
:1022A0000000002010B50C460146202000F068F820
:1022B0002146BDE81040212000F062B801B5BDF80C
:1022C00000000149088008BD00000020134A116881
:1022D00041F400711160114910390B6843F48073A7
:1022E0000B600B6843F020030B600D4B1860106807
:1022F00040F02000106000BF00BF00BF086840F041
:1023000020000860086840F48070086000BF00BFCB
:1023100000BF086840F40070086070472804004857
:10232000140800481449086840F400700860086800
:1023300040F48070086010481038026842F02002B3
:1023400002600E4B22221A600A6842F020020A60E4
:1023500000BF00BF00BF016841F0200101600168BB
:1023600041F48071016000BF00BF00BF016841F40B
:1023700000710160704700002804004814080048FC
:10238000184B10B51A6842F400721A601A6842F4C9
:1023900080721A60134A103A146844F020041460E2
:1023A000114C2060186840F02000186000BF00BF8A
:1023B00000BF106840F020001060106840F480708A
:1023C00010602160186840F02000186000BF00BF56
:1023D00000BF106840F020001060106840F480706A
:1023E000106010BD2804004814080048114808B5C2
:1023F000816C41F004018164816C01F00401009161
:10240000816C41F001018164806C002200F00100C8
:10241000009011460B20FEF7C1FA0B20FEF7B0FA30
:10242000002211460C20FEF7B9FABDE808400C2046
:10243000FEF7A6BA0010024070B586B014216846B7
:10244000FDF720FF2148C16C41F02001C164C16C3F
:1024500001F020010591C16C41F00101C164C16C22
:1024600001F001010591C16C41F00201C164C16C30
:1024700001F002010591C16C41F00801C164C06C1A
:10248000134E00F008000590012204213046FEF7AB
:1024900016FA00240125CDE9005469464FF090401A
:1024A0000294FEF723F90720CDE9000469460948A4
:1024B0000294FEF71BF904200090CDE9015469460F
:1024C00030460394FEF712F906B070BD00100240CA
:1024D000000C00480004004810B58EB0002407949A
:1024E000089409940A940B940C941C2168460D944A
:1024F000FDF7C8FE1F484FF0804101604F21C0E941
:10250000011440F2E731C0E9031480218161FEF734
:10251000D2FF08B1FDF760FF4FF48050079007A984
:102520001448FFF715F808B1FDF756FF1148FFF7FB
:1025300043FA08B1FDF750FF0B940BA90D480D9419
:10254000FEF76AFF08B1FDF747FF602000904FF4E7
:10255000FA70CDE901040422694606480494FFF7A5
:102560009CF908B1FDF738FF0248FFF76FF90EB08C
:1025700010BD000060000020184810B51649016029
:102580004FF416514160002181600C22C160C0E906
:1025900004128161C161016241628162FFF754FCF2
:1025A00008B1FDF719FF00210C48FFF7EBFA08B15D
:1025B000FDF712FF00210948FFF7BEFA08B1FDF749
:1025C0000BFF0648FFF798FA002803D0BDE810403B
:1025D000FDF702BF10BD000000380140AC00002034
:1025E000FEE77047704730B501210020FFF7C8FEB5
:1025F0004FF47A70FDF7E2FE00210120FFF7C0FEE4
:1026000041F290711020FFF7BBFE4FF41C51602087
:10261000FFF7B6FE01216120FFF7B2FE022146203E
:10262000FFF7AEFE48F210011320FFF7A9FE48F2B3
:10263000FE011220FFF7A4FE4FF4A0610220FFF775
:102640009FFE41F230010320FFF79AFE40F203346F
:1026500021463020FFF794FE21463120FFF790FEFF
:1026600021463220FFF78CFEE51E29463320FFF776
:1026700087FE03213420FFF783FE21463520FFF734
:102680007FFE14213620FFF77BFE21463720FFF71F
:1026900077FE21463820FFF773FE21463920FFF7E9
:1026A0006FFE29463A20FFF76BFE03213B20FFF720
:1026B00067FE21463C20FFF763FE4FF4A0513D200A
:1026C000FFF75EFE4FF400719220FFF759FE21469E
:1026D0009320FFF755FE40F60D019020FFF750FEC6
:1026E00041F218010320FFF74BFEBDE8304040F2F5
:1026F00073110720FFF744BE10B543F20801E32031
:10270000FFF73EFE1221E720FFF73AFE41F23121AA
:10271000EF20FFF735FE00210120FFF731FE4FF4D7
:10272000E0610220FFF72CFE41F230010320FFF7A9
:1027300027FE00210420FFF723FE40F20721082096
:10274000FFF71EFE00210920FFF71AFE00210A20D4
:10275000FFF716FE00210C20FFF712FE00210D20CE
:10276000FFF70EFE00210F20FFF70AFE00211020C8
:10277000FFF706FE07211120FFF702FE00211220BD
:10278000FFF7FEFD00211320FFF7FAFDC820FDF73B
:102790009BFF41F290611020FFF7F2FD40F22721EC
:1027A0001120FFF7EDFD3220FDF78EFF1D211220D5
:1027B000FFF7E6FD3220FDF787FF4FF4006113209D
:1027C000FFF7DEFD14212920FFF7DAFD0B212B2076
:1027D000FFF7D6FD3220FDF777FF00212020FFF71D
:1027E000CFFD00212120FFF7CBFD07213020FFF78F
:1027F000C7FD40F207713120FFF7C2FD06213220EC
:10280000FFF7BEFD40F204713520FFF7B9FD41F638
:1028100004713620FFF7B4FD04213720FFF7B0FD27
:1028200000213820FFF7ACFD40F206713920FFF798
:10283000A7FD40F201713C20FFF7A2FD0F213D20D2
:10284000FFF79EFD00215020FFF79AFDEF21512058
:10285000FFF796FD00215220FFF792FD40F23F1155
:102860005320FFF78DFD4FF41C516020FFF788FDCA
:1028700001216120FFF784FD00216A20FFF780FD20
:1028800000218020FFF77CFD00218120FFF778FDEB
:1028900000218220FFF774FD00218320FFF770FDE7
:1028A00000218420FFF76CFD00218520FFF768FDE3
:1028B00010219020FFF764FD00219220FFF760FDBA
:1028C00003219320FFF75CFD4FF488719520FFF7FB
:1028D00057FD00219720FFF753FD00219820FFF7B7
:1028E0004FFD41F218010320FFF74AFDBDE81040FB
:1028F00040F273110720FFF743BD000010B58EB002
:1029000000240794089409940A940B940C941C21B5
:1029100068460D94FDF7B6FC1E484FF080410160FB
:102920004F21C0E9011440F2F311C0E903148021E2
:102930008161FEF7C0FD08B1FDF74EFD4FF48050F8
:10294000079007A91348FEF703FE08B1FDF744FD01
:102950001048FFF731F808B1FDF73EFD0B940BA9C5
:102960000C480D94FEF758FD08B1FDF735FD6020C9
:1029700000903220CDE90104042269460548049400
:10298000FEF78BFF08B1FDF727FD0248FEF75EFF5B
:102990000EB010BD600000207047000070B5FDF75C
:1029A00099FF214B1878012817D12048002141F2C6
:1029B000883402781E48012A10D005681D4A6D1C13
:1029C0000560A5422BD843685B1C4360642B04D38D
:1029D000137813B300231370416070BD06680122A1
:1029E000761C154D0660A64201D82A7070BD19707C
:1029F000124B1A7029700160FFF76EFD0421104818
:102A0000FFF70EF80E496FF00400096808610D49E0
:102A1000402008704870887070BD0123DBE7197092
:102A20001170016070BD0000080000200700002048
:102A3000140000200B0000200A00002006000020E7
:102A4000600000200F00002030B5A5B03821684696
:102A5000FDF718FC14211FA8FDF714FC44210EA853
:102A6000FDF710FC4FF40070FDF7CAFF01252804A4
:102A7000CDE9005002200324CDE907041421CDE95B
:102A80000A100C900D9009946846FEF7A5FA0F20E5
:102A9000CDE91F0400242194229403211FA823942C
:102AA000FEF750F9CDE90E540EA8FEF707F825B051
:102AB00030BD00000548016841F470010160034920
:102AC0004FF00060803908607047000088ED00E03A
:102AD0000148FEF7BCBD0000600000202DE9F04376
:102AE0000268234B234D244E244C4FF080499842DA
:102AF00007D0484505D0A84203D0B04201D0A0423B
:102B000003D122F070074A683A431D4FDFF874C0C2
:102B1000DFF8748098420DD048450BD0A84209D008
:102B2000B04207D0A04205D0B84203D0604501D0E2
:102B3000404503D122F44075CA682A434D6922F00A
:102B400080022A4302608A68C2620A6882629842EE
:102B500007D0A04205D0B84203D0604501D040451F
:102B600001D10969016301214161BDE8F0830000E1
:102B7000002C0140000400400008004000340140E7
:102B800000400140004401400048014010B501F000
:102B90001F030121046A99408C430462016A9A4030
:102BA0001143016210BD10B5846842EA032224F487
:102BB0007F440A432243826010BD00008268034BB9
:102BC0001A400A4342F00701816070478FFFCFFF30
:102BD0002DE9F043026A22F001020262056A4368AD
:102BE00082691C4C25F0020522400C6822F0030289
:102BF00014438A68194E2A43174D194FDFF864C0F1
:102C0000DFF86490A84207D0B04205D0B84203D0A4
:102C1000604501D0484506D122F00808CA6842EA5A
:102C2000080222F00402A84207D0B04205D0B84200
:102C300003D0604501D0484505D14D6923F4407368
:102C40001D438B692B434360846149684163026281
:102C5000BDE8F0838FFFFEFF002C014000340140EF
:102C6000004001400044014000480140F0B5026AC4
:102C700022F010020262056A42688369194C1B4EF9
:102C800023400C6823F4407343EA042425F0200316
:102C90008D6843EA0513144DA84201D0B04206D115
:102CA000CF6823F0800343EA071323F04003A842D0
:102CB0000AD0B04208D00E4DA84205D00D4DA84212
:102CC00002D00D4DA84207D14D6922F4406242EA7C
:102CD00085028D6942EA85024260846149688163A8
:102CE0000362F0BDFF8FFFFE002C01400034014065
:102CF000004001400044014000480140F0B5026A34
:102D000022F480720262056A4368C269194C1B4E44
:102D100022400C6822F00302144325F400728D68EF
:102D200042EA0522144DA84201D0B04206D1CF6834
:102D300022F4006242EA072222F48062A8420AD00A
:102D4000B04208D00E4DA84205D00E4DA84202D088
:102D50000D4DA84207D14D6923F4405343EA0513B2
:102D60008D6943EA05134360C4614968C163026227
:102D7000F0BD00008FFFFEFF002C01400034014039
:102D8000004001400044014000480140F0B5026AA3
:102D900022F480520262056A4268C369194C1B4ED4
:102DA00023400C6823F4407343EA042425F40053C1
:102DB0008D6843EA0533144DA84201D0B04206D1D4
:102DC000CF6823F4004343EA073323F48043A84247
:102DD0000AD0B04208D00E4DA84205D00D4DA842F1
:102DE00002D00D4DA84207D14D6922F4404242EA7B
:102DF00085128D6942EA85124260C46149680164A6
:102E00000362F0BDFF8FFFFE002C01400034014043
:102E100000400140004401400048014030B5026AD2
:102E200022F480320262046A4268036D114D2B4025
:102E30000D681D4324F400330C8943EA04430E4C0F
:102E4000A0420BD00D4CA04208D00D4CA04205D0A2
:102E50000C4CA04202D00C4CA04204D14C6922F48C
:102E6000803242EA04224260056549688164036257
:102E700030BD00008FFFFEFF002C014000340140F8
:102E800000400140004401400048014030B5026A62
:102E900022F480120262046A4268036D114D24F428
:102EA00000142B400D6843EA05230D8944EA0554BC
:102EB0000D4DA8420BD00D4DA84208D00C4DA84294
:102EC00005D00C4DA84202D00B4DA84204D14D694B
:102ED00022F4802242EA8522426003654968C16487
:102EE000046230BDFF8FFFFE002C01400034014022
:102EF00000400140004401400048014010B5036A11
:102F0000046A24F001040462846924F0F00444EAB1
:102F1000021423F00A020A438461026210BD10B554
:102F2000036A23F0100303628369046A23F4704385
:102F300043EA023224F0A00343EA011182610162F4
:102F400010BD00003FB514A1D1E90021CDE9002159
:102F500013A2D2E90012CDE90212416EB9B10268A2
:102F600091689268C1F34261520F1DF80240E5007A
:102F700002ACA25CB5FBF2F2A0F86A201DF80120B9
:102F8000615CD200B2FBF1F1A0F868103FBD0121F5
:102F9000A0F86A10F8E70000010101030701000032
:102FA000080402040801010190F82810C90706D09E
:102FB00001684A68C36A22F400321A434A6090F8F2
:102FC0002810890706D501684A68036B22F480320D
:102FD0001A434A6090F82810490706D501684A68E4
:102FE000436B22F480221A434A6090F828100907A4
:102FF00006D501684A68836B22F400421A434A608E
:1030000090F82810C90606D501688A68C36B22F4B7
:1030100080521A438A6090F82810890606D5016804
:103020008A68036C22F400521A438A6090F82810D0
:10303000490611D501684A68436C22F480121A438C
:103040004A60416CB1F5801F06D101684A68836C03
:1030500022F4C0021A434A6090F82810090606D5E7
:1030600001684A68C06C22F4002202434A6070473B
:10307000F8B500260446C0F88860FDF725FC054633
:10308000206800686FF07E47000708D52B460022B5
:103090004FF400112046009700F063FC60B92068EF
:1030A000006840070AD52B4600224FF480012046D5
:1030B000009700F056FC08B10320F8BD2020C4F8AA
:1030C0008000C4F8840084F87C600020F8BD10B54E
:1030D000806A0021A0F85E10A0F85610FEF7B6FD39
:1030E00010BD70B5846AD4F88000D4F8845021688B
:1030F00089684FF00006090606D5212804D1A4F8F6
:103100005660204600F04CF820688068400606D5DE
:10311000222D04D1A4F85E60204600F02FF8D4F8E8
:10312000880040F01000C4F888002046FEF78EFDAD
:1031300070BD10B50146806A09680968890614D413
:103140000021A0F85E1001680A6822F480720A600B
:1031500001688A6822F001028A6001688A6822F0A8
:1031600040028A602021C0F88410FEF75FFF10BD86
:1031700010B5806AFEF75BFF10BD000001680A68A9
:1031800022F490720A6001688A68044B1A408A60CF
:103190002021C0F884100021C1667047FEFFFFEFB8
:1031A00001680A6822F0C0020A6001688A6822F495
:1031B00000028A602021C0F8801070472DE9F05F7E
:1031C0000446016880682369E5691843636900273C
:1031D0002B431843636EFA4A03430868F94D2840AD
:1031E0001843086020684168E36821F4405119439E
:1031F00041602168A069914201D0236A18438B681D
:10320000F14D2B4003438B602068C16A636A21F053
:103210000F011943C162ED4B2068ED4998420DD171
:10322000D1F8881011F0030106D001295AD00229E3
:1032300056D003293FD157E001253DE0E54B9842A8
:103240000BD1D1F8881011F00C0147D0042949D0D6
:10325000082945D00C292ED146E0DF4B98420BD1EE
:10326000D1F8881011F0300138D010293AD0202937
:1032700036D030291FD137E0D84B98420BD1D1F846
:10328000881011F0C00129D040292BD0802927D0E7
:10329000C02910D128E090420DD1D1F8881011F446
:1032A00040611BD0B1F5806F1CD0B1F5006F17D015
:1032B000B1F5406F18D01025DFF824A34FF48076C5
:1032C0004FF000094FF4004B90426ED175B1022DC2
:1032D00029D0042D59D0082D68D176E00025EBE7E0
:1032E0000225E9E70425E7E70825E5E7FDF718FEED
:1032F0004DE0012851D0022851D0032851D0042894
:1033000051D0052853D0062853D0072853D0082879
:1033100053D0092853D00A2853D00B2853D03AE071
:10332000B1FBF0F06CE0606AA8B1012817D0022868
:1033300017D0032817D0042817D0052817D006283F
:1033400017D0072817D0082817D0092817D00A281F
:1033500017D00B2817D00120BAFBF0F050E0022064
:10336000FAE70420F8E70620F6E70820F4E70A2049
:10337000F2E70C20F0E71020EEE72020ECE74020F9
:10338000EAE78020E8E73046E6E7FDF7EDFD014695
:10339000606A0028ADD10120C2E70220C0E7042006
:1033A000BEE70620BCE70820BAE761E14AE00A2050
:1033B000B6E70C20B4E71020B2E72020B0E74020A9
:1033C000AEE78020ACE73046AAE7606AA8B10128E2
:1033D00022D0022822D0032822D0042822D0052877
:1033E00022D0062822D0072822D0082822D0092857
:1033F00022D00A2822D00B2822D00120BBFBF0F0DB
:10340000002820D06168884601EB4101814219D82B
:10341000B0EB083F16D817E00220EFE70420EDE7F5
:103420000620EBE70820E9E70A20E7E70C20E5E7BC
:103430001020E3E72020E1E74020DFE78020DDE700
:103440003046DBE7012739E27DB3022D61D0042D40
:103450007DD0082DF6D1606AA8B1012878D0022865
:1034600077D0032876D0042875D0052874D0062894
:1034700073D0072872D0082871D0092870D00A2884
:103480006FD00B2800D0012632464D460023584607
:103490000021FCF7BFFE090241EA106102024FEA77
:1034A000580010186941424670E0FFE7FDF738FD0B
:1034B0000146606AA8B1012817D0022817D0032856
:1034C00017D0042817D0052817D0062817D00728AA
:1034D00017D0082817D0092817D00A2817D00B288A
:1034E00000D0012632464D468CE00226FAE704263B
:1034F000F8E70626F6E70826F4E70A26F2E70C26A0
:10350000F0E71026EEE72026ECE74026EAE78026E3
:10351000E8E7606AA8B1012824D0022824D0032853
:1035200024D0042824D0052824D0062824D0072815
:1035300024D0082824D0092824D00A2824D00B28F5
:1035400000D0012632464D4600235046A0E726E033
:103550007AE07BE07CE07DE07EE07FE080E081E07F
:1035600082E083E00226EDE70426EBE70626E9E7A2
:103570000826E7E70A26E5E70C26E3E71026E1E759
:103580002026DFE74026DDE78026DBE70023FCF787
:1035900041FE144AA0F54071914271D952E7FDF7FE
:1035A000E3FC0146606A50B3012839D0022839D0C3
:1035B000032839D0042839D0052839D0062813E04B
:1035C00000800040F369FFCFFFF4FF110038014095
:1035D000001002400044004000480040004C004001
:1035E0000024F400FFFC0F0024D0072824D0082872
:1035F00024D0092824D00A2824D00B2800D0012662
:103600004D463246002308461946FCF703FE0902E0
:10361000626841EA10610302500818186941B5E771
:103620000226EDE70426EBE70626E9E70826E7E7AA
:103630000A26E5E70C26E3E71026E1E72026DFE788
:103640004026DDE78026DBE702261DE704261BE790
:10365000062619E7082617E70A2615E70C2613E7BA
:10366000102611E720260FE740260DE780260BE7FE
:10367000E0694FF6EF78584570D1092D8ED200E001
:103680001AE1DFE805F006093C0580050505830021
:10369000D8E6FDF745FC01E0FDF754FC0146606A01
:1036A000A8B1012815D0022815D0032815D0042868
:1036B00015D0052815D0062815D0072815D00828BC
:1036C00015D0092815D00A2815D00B2814D00126AA
:1036D00012E0022610E004260EE006260CE0082682
:1036E0000AE00A2608E00C2606E0102604E0202660
:1036F00002E0402600E08026B1FBF6F01AE0606AA6
:10370000A8B101282BD002282BD003282BD00428C5
:103710002BD005282BD006282BD007282BD0082803
:103720002BD009282BD00A282BD00B2800D001261B
:10373000BAFBF6F04100606801EB5001B1FBF0F01C
:1037400080B2A0F110014145A2D84FF6F0710140BE
:10375000C0F3420001432068C160AFE046E00226AA
:10376000E6E70426E4E70626E2E70826E0E70A267D
:10377000DEE70C26DCE71026DAE72026D8E740262D
:10378000D6E78026D4E7FDF7EFFB87E7606AA8B1AC
:10379000012817D0022817D0032817D0042817D0E3
:1037A000052817D0062817D0072817D0082817D0C3
:1037B000092817D00A2817D00B2800D00126BBFBF8
:1037C000F6F0B7E70226FAE70426F8E70626F6E75A
:1037D0000826F4E70A26F2E70C26F0E71026EEE7C3
:1037E0002026ECE74026EAE78026E8E7092DBFF42B
:1037F000D5AEDFE805F006093C0583050505860022
:1038000020E6FDF78DFB01E0FDF79CFB0146606AB9
:10381000A8B1012815D0022815D0032815D00428F6
:1038200015D0052815D0062815D0072815D008284A
:1038300015D0092815D00A2815D00B2814D0012638
:1038400012E0022610E004260EE006260CE0082610
:103850000AE00A2608E00C2606E0102604E02026EE
:1038600002E0402600E08026B1FBF6F11AE0606A33
:10387000A8B101282ED002282ED003282ED004284B
:103880002ED005282ED006282ED007282ED0082886
:103890002ED009282ED00A282ED00B2800D00126A1
:1038A000BAFBF6F1606801EB5001B1FBF0F080B2B9
:1038B000A0F110014145A3D82168C8600120A4F8F7
:1038C0006A0024F8680F3846C4F80490C4F80890D9
:1038D000BDE8F09F0226E3E70426E1E70626DFE7DE
:1038E0000826DDE70A26DBE70C26D9E71026D7E70E
:1038F0002026D5E74026D3E78026D1E7FDF734FB25
:1039000084E7606AA8B1012817D0022817D00328DD
:1039100017D0042817D0052817D0062817D0072855
:1039200017D0082817D0092817D00A2817D00B2835
:1039300000D00126BBFBF6F1B4E70226FAE7042625
:10394000F8E70626F6E70826F4E70A26F2E70C264B
:10395000F0E71026EEE72026ECE74026EAE780268F
:10396000E8E72DE9F041984617460E460446069DC5
:1039700008E0681C06D0FCF7A7FFA0EB0800A842EF
:103980000BD855B12068C06936EA000019D0002074
:10399000B842EED00020BDE8F0812068016821F433
:1039A000D07101602068816821F0010181602020D0
:1039B000C4F88000C4F88400002084F87C00032050
:1039C000E9E70120E4E70000094810B50068C16993
:1039D000C943C90607D4102101620548FEF7FAF869
:1039E0000348FEF703FABDE810400148FEF730B97E
:1039F000AC000020FEE700000FB4084B10B504A98E
:103A000002AA039800F02BF8044602A9002000F057
:103A100091F8204610BC5DF814FB0000353B00080F
:103A20000907090E002804DB00F1E02080F80014EB
:103A3000704700F00F0000F1E02080F8141D70477F
:103A400002E008C8121F08C1002AFAD17047704767
:103A5000002001E001C1121F002AFBD170472DE9AF
:103A6000F84F9946924688460546002706E02528E5
:103A70000AD051464A4690476D1C7F1C2878002882
:103A8000F5D13846BDE8F88F002315F8011F184618
:103A90002E2915D115F8011F04232A290DD06FF006
:103AA0002F022978A1F13004092C09D800EB8000FD
:103AB00002EB400008446D1CF3E758F8040B6D1C42
:103AC0002A78002ADDD0632A07D0732A0FD0104647
:103AD00051464A4690477F1C2AE018F8042B8DF87F
:103AE000002000218DF801106E46012103E058F8F6
:103AF000046B4FF0FF315A074FF0000401D409E086
:103B0000641C84420BDA8C42FADB325D002AF7D166
:103B100005E0641C8C42FCDB305D0028F9D12744B1
:103B200004E016F8010B51464A469047641EF8D24D
:103B30006D1CA3E70A68531C0B60107070470000EF
:103B40000348007808B100F085B800F0D9B800004B
:103B50000600002070B5174B0024D91C1D780E7884
:103B6000981F0122B54216D15D784E78B54212D128
:103B70009B788D78AB420ED104708270C470427015
:103B8000FEF7BCFE04210C48FDF74AFF0A49601FFE
:103B90000968086170BD44700270C3785B1CDCB2B8
:103BA0004023C4700B704B708B70032CF2D3827067
:103BB00070BD00000C0000206000002010B5012244
:103BC0004FF47F410748FCF77AFE074C012204219D
:103BD0002046FCF774FE20460022BDE81040042178
:103BE000FCF76DBE00080048000C004870B5164890
:103BF000164D174C017949B101224FF47E412846F8
:103C0000FCF75DFE00224FF480710AE04079B8B104
:103C100001224FF47D412846FCF751FE00224FF46B
:103C200000712846FCF74BFE012204212046FCF7D8
:103C300046FE2046BDE8704000220421FCF73FBE4E
:103C4000BDE87040FFF7BABF06000020000800483A
:103C5000000C004810B586B010A11820FEF77EFABF
:103C6000144C15A168462278FFF7C6FE6946482025
:103C7000FEF774FA627816A16846FFF7BDFE694642
:103C80006020FEF76BFAA27817A16846FFF7B4FE32
:103C900069467820FEF762FA06B010BD2020202089
:103CA000202020505344202020202020202020208D
:103CB000000000000F0000202020202042313A2583
:103CC0006320202020202020202020202000000011
:103CD0002020202042323A2563202020202020204E
:103CE00020202020200000002020202042333A25E0
:103CF00063202020202020202020202020000000E1
:103D000010B509A11820FEF729FA0DA14820FEF7E9
:103D100025FA11A16020FEF721FABDE8104014A198
:103D20007820FEF71BBA00002020202020202053FE
:103D300054412020202020202020202000000000AE
:103D400020202020463A32303030487A202020206F
:103D5000202020200000000020202020443A313084
:103D600025202020202020202020202000000000CE
:103D70002020202020202020202020202020202043
:103D80002020202000000000344810B500780128D1
:103D900028D1334C01212046FCF78CFD18B30221B9
:103DA0002046FCF787FD80B304212046FCF782FD06
:103DB00060B34FF0904401212046FCF77BFD0028C2
:103DC00010D10520FCF780FC01212046FCF772FD94
:103DD000002807D1FFF7BEFE01212046FCF76AFD4F
:103DE0000028F9D010BD0520FCF76EFC012120460B
:103DF000FCF760FD0028F5D100F06CF801212046A9
:103E0000FCF758FD0028F9D010BD00E012E00520B5
:103E1000FCF75AFC02212046FCF74CFD0028F3D1A8
:103E2000012000F057F802212046FCF743FD00284E
:103E3000F9D0E9E70520FCF747FC04212046FCF710
:103E400039FD0028E0D1022000F044F8042120468A
:103E5000FCF730FD0028F9D0D6E70000060000206E
:103E600000040048FCF73EFDFEF7EEFD0421164875
:103E7000FDF7D6FD14496FF0040009680861FEF7EC
:103E8000DBFAFEF7B3FAFEF727FBFEF775FB3222EB
:103E90000E490F48FEF778F80D480068016841F0B8
:103EA00010010160FEF79CF90020FEF7F1F84FF6D3
:103EB000FF70FEF703FA0020FEF7ECF9FFF77EFE35
:103EC00000F016F8FCE70000600000202C00002045
:103ED000AC000020054A3123115C402904D0392967
:103EE00002D0491C11547047135470470F00002032
:103EF00010B5FFF725FEFFF779FEBDE81040FFF78C
:103F000043BF0000000000000000000000000000AF
:103F100000000000000000000000000000000000A1
:103F20000000000000000000000000000000000091
:103F3000000000008001800180018001800180017B
:103F400080018001800180018001800180010000EA
:103F5000000080018001000000000000000000005F
:103F6000000000000000CC00CC00CC00CC00CC0055
:103F7000CC00000000000000000000000000000075
:103F80000000000000000000000000000000000031
:103F90000000000000000000000000000000600CB5
:103FA000600C600C30063006FE1FFE1F300638071E
:103FB0001803FE1FFE1F180318038C018C018C01CF
:103FC000000000008000E003F80F9C0E8C1C8C1891
:103FD0008C009800F801E007800E801C8C188C186B
:103FE0009C18B80CF00FE003800080000000000077
:103FF00000000000000000000E181B0C110C110640
:104000001106110311039B018E01C038C06C60447E
:104010006044304430441844186C0C3800000000F0
:1040200000000000E001F00338071806180630030E
:10403000F001F000F8009C310E33061E061C061C31
:10404000063FFC73F02100000000000000000000AB
:104050000000000000000C000C000C000C000C0024
:104060000C00000000000000000000000000000044
:104070000000000000000000000000000000000040
:1040800000000000000200038001C000C0006000CA
:104090006000300030003000300030003000300070
:1040A000300060006000C000C0008001000300021A
:1040B0000000000020006000C000800180010003BB
:1040C00000030006000600060006000600060006C3
:1040D00000060003000380018001C0006000200092
:1040E0000000000000000000000000000000C00010
:1040F000C000D806F807E0013003380700000000D0
:1041000000000000000000000000000000000000AF
:10411000000000000000000000000000000080011E
:104120008001800180018001FC3FFC3F8001800113
:1041300080018001800100000000000000000000FC
:10414000000000000000000000000000000000006F
:10415000000000000000000000000000000000005F
:1041600000000000800180010001000180000000CB
:10417000000000000000000000000000000000003F
:1041800000000000000000000000E007E007000061
:10419000000000000000000000000000000000001F
:1041A000000000000000000000000000000000000F
:1041B00000000000000000000000000000000000FF
:1041C00000000000C000C00000000000000000006F
:1041D00000000000000C000C0006000600060003B2
:1041E000000300038003800180018001C000C00043
:1041F000C00060006000000000000000000000003F
:1042000000000000E003F007380E180C0C180C1822
:104210000C180C180C180C180C180C180C18180C7E
:10422000380EF007E003000000000000000000006E
:104230000000000000018001C001F0019801880128
:104240008001800180018001800180018001800166
:1042500080018001800100000000000000000000DB
:1042600000000000E003F80F180C0C180C180018E0
:104270000018000C000600038001C0006000300040
:104280001800FC1FFC1F00000000000000000000E0
:1042900000000000E001F807180E0C0C0C0C000CDC
:1042A0000006C003C007000C001800180C180C18FA
:1042B000180CF807E00300000000000000000000F8
:1042C00000000000000C000E000F000F800DC00C5D
:1042D000600C600C300C180C0C0CFC3FFC3F000C0C
:1042E000000C000C000C00000000000000000000AA
:1042F00000000000F80FF80F180018000C00EC0385
:10430000FC071C0E001C0018001800180C181C0CD0
:10431000180EF807E0030000000000000000000095
:1043200000000000C007F00F381C181818000C001F
:10433000CC03EC0F3C0E1C1C0C180C180C18181C91
:10434000380EF007E003000000000000000000004D
:1043500000000000FC1FFC1F000C0006000600030C
:1043600080038001C001C000E000600060007000B8
:1043700030003000300000000000000000000000AD
:1043800000000000E003F007380E180C180C180CA1
:104390003806F007F007180C0C180C180C180C183D
:1043A000380CF80FE00300000000000000000000DF
:1043B00000000000E003F007380E1C0C0C180C186D
:1043C0000C181C1C381EF81BE0190018000C000CFF
:1043D0001C0EF807F00100000000000000000000C3
:1043E000000000000000000000000000000080014C
:1043F000800100000000000000000000000000003C
:1044000000008001800100000000000000000000AA
:10441000000000000000000000000000000080011B
:10442000800100000000000000000000000000000B
:1044300000008001800100010001800000000000F8
:10444000000000000000000000000000000000006C
:1044500000000010001C800FE003F8001800F800B6
:10446000E003800F001C00100000000000000000AE
:10447000000000000000000000000000000000003C
:104480000000F81F000000000000F81F00000000FE
:10449000000000000000000000000000000000001C
:1044A000000000000000000000000000000000000C
:1044B000000008003800F001C007001F0018001FAE
:1044C000C007F001380008000000000000000000F4
:1044D00000000000E003F80F180C0C180C1800186E
:1044E000000C000600038001C000C000C0000000F6
:1044F0000000C000C000000000000000000000003C
:10450000000000000000E00718180420C229224A19
:10451000114409440944094409221113E20C0240E0
:1045200004201818E0070000000000000000000050
:104530000000000080038003C006C006C006600CB7
:10454000600C301830183018F83FF83F1C700C60C1
:104550000C6006C006C00000000000000000000063
:1045600000000000FC03FC0F0C0C0C180C180C18BD
:104570000C0CFC07FC0F0C180C300C300C300C3001
:104580000C18FC1FFC0700000000000000000000E9
:1045900000000000C007F01F38381C300C700660A7
:1045A00006000600060006000600060006600C7005
:1045B0001C30F01FE00700000000000000000000B9
:1045C00000000000FE03FE0F060E06180618063057
:1045D000063006300630063006300630061806185B
:1045E000060EFE0FFE0300000000000000000000A9
:1045F00000000000FC3FFC3F0C000C000C000C0015
:104600000C00FC1FFC1F0C000C000C000C000C002C
:104610000C00FC3FFC3F0000000000000000000018
:1046200000000000F83FF83F1800180018001800BC
:104630001800F81FF81F18001800180018001800BC
:104640001800180018000000000000000000000022
:1046500000000000E00FF83F3C780E6006E007C065
:104660000300030003FE03FE03C007C006C00EC024
:104670003CF0F83FE00F00000000000000000000E8
:10468000000000000C300C300C300C300C300C30C2
:104690000C30FC3FFC3F0C300C300C300C300C303C
:1046A0000C300C300C300000000000000000000056
:1046B00000000000800180018001800180018001F4
:1046C00080018001800180018001800180018001E2
:1046D0008001800180010000000000000000000057
:1046E00000000000000600060006000600060006A6
:1046F000000600060006000600060006180618065A
:104700003807F003E0010000000000000000000096
:104710000000000006300618060C06060603860197
:10472000C60066007600DE008E0106030606060C53
:1047300006180630066000000000000000000000BF
:1047400000000000180018001800180018001800D9
:104750001800180018001800180018001800180099
:104760001800F81FF81F0000000000000000000003
:10477000000000000EE01EF01EF01EF036D836D805
:1047800036D836D866CC66CC66CCC6C6C6C6C6C6D3
:10479000C6C686C386C300000000000000000000FB
:1047A000000000000C301C303C303C306C306C3071
:1047B000CC30CC308C310C330C330C360C360C3CFA
:1047C0000C3C0C380C300000000000000000000021
:1047D00000000000E007F81F1C380E70066003C0E0
:1047E00003C003C003C003C003C003C006600E7053
:1047F0001C38F81FE0070000000000000000000067
:1048000000000000FC0FFC1F0C380C300C300C308A
:104810000C300C18FC1FFC070C000C000C000C00EA
:104820000C000C000C000000000000000000000064
:1048300000000000E007F81F1C380E70066003E05F
:1048400003C003C003C003C003C007E006630E3FFC
:104850001C3CF83FE0F700C0000000000000000032
:1048600000000000FE0FFE1F06380630063006303E
:104870000638FE1FFE0706030606060C0618061875
:104880000630063006600000000000000000000056
:1048900000000000E003F80F1C0C0C180C180C00B2
:1048A0001C00F803E00F001E0038063006300E3002
:1048B0001C1CF80FE00700000000000000000000D2
:1048C00000000000FE7FFE7F8001800180018001EA
:1048D00080018001800180018001800180018001D0
:1048E0008001800180010000000000000000000045
:1048F000000000000C300C300C300C300C300C3050
:104900000C300C300C300C300C300C300C300C30C7
:104910001818F81FE0070000000000000000000069
:104920000000000003600630063006300C180C183A
:104930000C18180C180C380E30063006700760037F
:104940006003C001C0010000000000000000000082
:10495000000000000360C361C361C3616633663356
:1049600066336633663366336C1B6C1B6C1B2C1A08
:104970003C1E380E380E0000000000000000000051
:10498000000000000FE00C7018303018700C600E42
:10499000C00780038003C003E006700C301C1818A9
:1049A0000C300E6007E00000000000000000000076
:1049B0000000000003C006600C301C383818300CB2
:1049C0006006E007C0038001800180018001800152
:1049D0008001800180010000000000000000000054
:1049E00000000000FC7FFC7F006000300018000C1D
:1049F000000600038001C0006000300018000C00B9
:104A00000600FE7FFE7F00000000000000000000A6
:104A100000000000E003E003600060006000600050
:104A20006000600060006000600060006000600086
:104A3000600060006000600060006000E003E00370
:104A40000000000030003000600060006000C00026
:104A5000C000C000C001800180018001000300038C
:104A60000003000600060000000000000000000037
:104A700000000000E003E003000300030003000364
:104A8000000300030003000300030003000300030E
:104A9000000300030003000300030003E003E0033E
:104AA000000000000000C001C0016003600360035B
:104AB00030063006180C180C000000000000000042
:104AC00000000000000000000000000000000000E6
:104AD00000000000000000000000000000000000D6
:104AE00000000000000000000000000000000000C6
:104AF00000000000FFFFFFFF0000000000000000BA
:104B0000000000000C000C000C000C000C000C005D
:104B10000000000000000000000000000000000095
:104B20000000000000000000000000000000000085
:104B30000000000000000000000000000000F00382
:104B4000F8071C0C0C0C000FF00FF80C0C0C0C0CE4
:104B50001C0FF80FF018000000000000000000001B
:104B60000000000018001800180018001800D803F2
:104B7000F80F380C181818181818181818181818CA
:104B8000380CF80FD80300000000000000000000FF
:104B90000000000000000000000000000000C00352
:104BA000F007300E180C1800180018001800180C28
:104BB000300EF007C00300000000000000000000FD
:104BC0000000000000180018001800180018C01B92
:104BD000F01F301C1818181818181818181818185A
:104BE000301CF01FC01B000000000000000000008F
:104BF0000000000000000000000000000000C003F2
:104C0000F00F300C1818F81FF81F1800180038188B
:104C1000301CF00FC0070000000000000000000082
:104C200000000000800FC00FC000C000C000F007EF
:104C3000F007C000C000C000C000C000C000C0003D
:104C4000C000C000C0000000000000000000000024
:104C50000000000000000000000000000000E00D67
:104C6000F80F180E0C0C0C0C0C0C0C0C0C0C0C0C87
:104C7000180EF80FE00D000C0C0C1C06F807F001E4
:104C80000000000018001800180018001800D807CD
:104C9000F80F381C18181818181818181818181899
:104CA0001818181818180000000000000000000074
:104CB00000000000C000C000000000000000C000B4
:104CC000C000C000C000C000C000C000C000C000E4
:104CD000C000C000C0000000000000000000000094
:104CE00000000000C000C000000000000000C00084
:104CF000C000C000C000C000C000C000C000C000B4
:104D0000C000C000C000C000C000C000F8007800B3
:104D1000000000000C000C000C000C000C000C0C3F
:104D20000C060C038C01CC006C00FC009C018C0375
:104D30000C030C060C0C000000000000000000003A
:104D400000000000C000C000C000C000C000C000E3
:104D5000C000C000C000C000C000C000C000C00053
:104D6000C000C000C0000000000000000000000003
:104D700000000000000000000000000000007C3C7B
:104D8000FF7EC7E383C183C183C183C183C183C164
:104D900083C183C183C10000000000000000000047
:104DA0000000000000000000000000000000980764
:104DB000F80F381C18181818181818181818181878
:104DC0001818181818180000000000000000000053
:104DD0000000000000000000000000000000C00310
:104DE000F00F300C18181818181818181818181868
:104DF000300CF00FC00300000000000000000000B5
:104E00000000000000000000000000000000D803C7
:104E1000F80F380C18181818181818181818181827
:104E2000380CF80FD80318001800180018001800E4
:104E30000000000000000000000000000000C01B97
:104E4000F01F301C181818181818181818181818E7
:104E5000301CF01FC01B00180018001800180018A4
:104E60000000000000000000000000000000B0078B
:104E7000F0037000300030003000300030003000AF
:104E80003000300030000000000000000000000092
:104E90000000000000000000000000000000E0032F
:104EA000F003380E180C3800F003C007000C180C83
:104EB000380EF007E00300000000000000000000D2
:104EC0000000000000008000C000C000C000F0072B
:104ED000F007C000C000C000C000C000C000C0009B
:104EE000C000C007800700000000000000000000B4
:104EF0000000000000000000000000000000181882
:104F00001818181818181818181818181818181821
:104F1000381CF01FE0190000000000000000000035
:104F200000000000000000000000000000000C185D
:104F3000180C180C180C300630063006600360039D
:104F40006003C001C001000000000000000000007C
:104F50000000000000000000000000000000C1414F
:104F6000C141C36163636363636336363636363685
:104F70001C1C1C1C1C1C0000000000000000000089
:104F800000000000000000000000000000001C38CD
:104F9000381C300C60066003600360036003600629
:104FA000300C381C1C38000000000000000000001D
:104FB00000000000000000000000000000001830A9
:104FC000301830187018600C600CE00CC006C00679
:104FD00080038003800380018001C001F000700025
:104FE0000000000000000000000000000000FC1FA6
:104FF000FC1F000C000600038001C00060003000B0
:105000001800FC1FFC1F0000000000000000000052
:105010000000000000038001C000C000C000C0000C
:10502000C000C00060006000300060004000C000B0
:10503000C000C000C000C000C0008001000300002C
:10504000000000008001800180018001800180015A
:105050008001800180018001800180018001800148
:105060008001800180018001800180018001800138
:10507000000000006000C000C001800180018001CC
:10508000800180010003000300060003000180018D
:1050900080018001800180018001C000600000006B
:1050A0000000000000000000000000000000000000
:1050B0000000F010F81F080F0000000000000000C2
:1050C00000000000000000000000000000000000E0
:1050D00000000000000000000000010203040607B9
:1050E0000809000000000102030400000C51000840
:1050F000000000202C000000403A00083851000851
:105100002C000020CC050000503A00080000FFFFF2
:105110000000010000000000313233404040000038
:10512000000000000000000010000000010000006E
:08513000000000000024F4005F
:04000005080001D915
:00000001FF
