:020000040800F2
:1000000070060020F1010008C73400080D2D00081B
:10001000C53400083D0A00088945000800000000BA
:10002000000000000000000000000000C9390008C6
:10003000FB0A000800000000E9340008CD39000880
:100040000B0200080B0200080B0200080B0200085C
:100050000B0200080B0200080B0200080B0200084C
:100060000B0200080B0200080B020008410A0008FE
:100070004D0A00080B0200080B0200080B020008E2
:100080000B020008000000000B0200080B02000831
:100090000B0200080B0200080B0200080B0200080C
:1000A0000B0200080B0200080B0200080B020008FC
:1000B0000B0200080B0200080B0200080B020008EC
:1000C0000B0200080B0200080B0200080B020008DC
:1000D0000B0200085D4500080B0200080B02000837
:1000E0000B0200080B0200080B0200080B020008BC
:1000F0000B0200080B0200080B02000800000000C1
:10010000000000000B020008000000000B020008C5
:100110000B020008000000000B0200080B020008A0
:100120000B0200080B0200080B0200080B0200087B
:100130000B02000800000000000000000B02000895
:100140000B0200080B020008000000000000000085
:10015000000000000000000000000000000000009F
:100160000000000000000000000000000B0200087A
:100170000B0200080000000000000000000000006A
:10018000000000000B02000800000000000000005A
:10019000000000000000000000000000000000005F
:1001A00000000000000000000B0200080B02000825
:1001B0000B0200080B0200080B0200080000000000
:1001C000000000000B02000800000000000000001A
:1001D0000B0200080B020008DFF810D000F034FB1F
:1001E00000480047C1520008AFF3008070060020AD
:1001F0000648804706480047FEE7FEE7FEE7FEE7C1
:10020000FEE7FEE7FEE7FEE7FEE7FEE7853A0008C9
:10021000D90100082DE9F05F0546002092469B4673
:1002200088460646814640241BE02846414647460C
:10023000224600F036F953465A46C01A914110D36F
:1002400011461846224600F01DF92D1A67EB0108E9
:100250004F4622460120002100F014F917EB000957
:100260004E41201EA4F10104DFDC484631462A46F7
:100270004346BDE8F09FD2B201E000F8012B491ED1
:10028000FBD270470022F6E710B513460A46044633
:100290001946FFF7F0FF204610BD421C10F8011B65
:1002A0000029FBD1801A70472DE9FE4F81EA030433
:1002B00004F0004421F0004100944FF0000B23F0C3
:1002C000004350EA01045ED052EA03045BD0C3F35A
:1002D0000A54C1F30A552C44A4F2F3340194A0FB50
:1002E0000254C1F3130141F48011C3F3130343F427
:1002F000801301FB024400FB034E840A970A44EA80
:10030000815447EA8357A4FB076802958D0A05FBD1
:1003100007854FEA932C04FB0C542705029D4FEAF6
:10032000065847EA1637B5EB08056EEB070C870E43
:10033000920E47EA811742EA8312A7FB0201B6EB4D
:100340000B0164EB00042B0D43EA0C335E1844EB05
:100350001C50DA465146E7FB0201C5F313044FEA8D
:100360000B3343EA14534FEA0432019C43EA060379
:10037000A4F10C040294009CCDE900B400F0E7F86D
:1003800003B0BDE8F08F00200146F9E70EB5C10FBC
:1003900080EAE0700844CA07002140F233438DE848
:1003A0000E000A460B4600F0D2F803B000BD0EB5B1
:1003B00040F2334102910021CDE900110A460B467B
:1003C00000F0C5F803B000BD00F0004230F000407E
:1003D0000AD0C10D01F56071C0F3160042EA015167
:1003E000C2084007114370470020014670470000D3
:1003F00030B5041E71F1000404DB4FF000444042AC
:1004000064EB0101141E73F1000405DB1C464FF080
:100410000043524263EB0403994208BF904230BD4F
:1004200001F0004330B421F0004150EA010206D04F
:100430000A0DA2F56072C1F31301002A02DC30BC80
:1004400000207047440F44EAC104C100E01830BCEA
:1004500000EBC25000F035B830B50B460146002025
:100460002022012409E021FA02F59D4205D303FA76
:1004700002F5491B04FA02F52844151EA2F10102F7
:10048000F1DC30BD202A04DB203A00FA02F1002022
:1004900070479140C2F1200320FA03F319439040C2
:1004A0007047202A04DB203A21FA02F0002170472D
:1004B00021FA02F3D040C2F12002914008431946CC
:1004C00070470029A8BF7047401C490008BF20F0B2
:1004D0000100704710B4B0FA80FC00FA0CF050EA4A
:1004E000010404BF10BC704749B1CCF1200421FACB
:1004F00004F411FA0CF118BF012121430843A3EBC6
:100500000C01CB1D4FEA00614FEA102042BF0020D2
:1005100010BC704700EBC35010440029A4BF10BCAE
:100520007047401C490008BF20F0010010BC704714
:1005300010B5141E73F1000408DA401C41F10001EB
:1005400092185B411A4301D120F0010010BD2DE942
:10055000F04D92469B4611B1B1FA81F202E0B0FA39
:1005600080F220329046FFF78DFF04460F4640EAA6
:100570000A0041EA0B0153465A46084313D011467C
:1005800053EA010019D0C8F140025046FFF789FF35
:1005900005460E46504659464246FFF773FF08434C
:1005A00005D0012004E020463946BDE8F08D00204A
:1005B000054346EAE0762C4337430A986305E40A8C
:1005C000A0EB08000022FD0A44EA47540A3002D595
:1005D00000200146E9E7010510196941DDE90845F8
:1005E00000196941BDE8F04DA2E72DE9FE4F8046B4
:1005F00081EA0300C00F0C46009021F0004123F077
:100600000045B8EB0200A94105D24046214690467C
:100610001C460B46024623F00040104347D0270DEE
:10062000C7F30A00C3F30A510290401A0190402810
:100630006BDAC3F3130040F4801B0098924620B19C
:100640000023D2EB030A63EB0B0B01985946C0F170
:1006500040025046FFF716FF06460D4650465946E3
:10066000019A00F003F910EB08006141002487EAC9
:10067000115284EAE7731A4340D0009A62B3019A98
:10068000012A4FEA075215DC001B61EB02014FF013
:10069000004202EA0752CDE90042001C41F58011F8
:1006A00032462B46FFF753FF03B0BDE8F08F4046BC
:1006B0002146F9E7001B61EB0201001C41F58013A4
:1006C00000185B412018A2F5001747EB030140EA30
:1006D000D570B6196D4111E06D084FEA360645EA4E
:1006E000C0754FEA0752001B61EB0201001C41F587
:1006F000801149084FEA30000019514132462B461B
:1007000003B0BDE8F04FFFF713BF0098012240008F
:100710000023D0EB020263EBE073009821464FEA1E
:10072000E074B8EB000061EB0401E9E783F00043FB
:100730005BE781F0004158E72DE9F04D81EA0304C1
:1007400004F0004B21F0004514464FF0000A23F05E
:10075000004150EA050220D054EA01021DD0C5F341
:100760000A570246C5F31303C1F31300C1F30A5637
:1007700040F4801543F48013A7EB0608101BD646FF
:1007800008F2FD3873EB050002D308F1010801E01F
:1007900092185B41B8F1000F03DA00200146BDE872
:1007A000F08D00204FF48011064684460EE0171BA2
:1007B00073EB050705D3121B63EB050306434CEAF5
:1007C000010C49084FEA300092185B4150EA0107DA
:1007D000EDD152EA030012D082EA040083EA050157
:1007E000084305D0101BAB4106D20122002306E0CE
:1007F00000224FF0004302E06FF0010253101AEBA9
:1008000006004CEB085110EB0A0041EB0B01BDE870
:10081000F04DFFF78DBEC1F30A52C1F3130140F250
:10082000FF3341F480119A4202DA002001467047FA
:1008300040F233439A42A2F2334202DC5242FFF7C3
:1008400030BEFFF71FBE0000064C074D06E0E06813
:1008500040F0010394E8070098471034AC42F6D307
:10086000FFF7BEFC6466000884660008202A06DBE9
:10087000CB17203A41FA02F043EAE07306E041FA6E
:1008800002F3D040C2F1200291400843194670475C
:100890002DE9F041044600270D46006802F0B2FC45
:1008A0000646206802F0AAFC304359D02068C1688F
:1008B0002C4E890105D5617F012902D1217F0129B3
:1008C0000BD0022D1DD0206802F09CFCB8B120682E
:1008D0008168C1F3400169B111E00125224902E0BC
:1008E0008F422ED27F1C0268D2435206F8D4402198
:1008F0000160E8E78168314041F010018160012D1D
:1009000011D0206802F07AFC48B120688168C1F3F8
:10091000400121B98168314041F020018160022D00
:1009200008D0032D04D0042500F0C2FF064613E0D2
:100930000C25F9E70825F7E700F0BAFF801B05282A
:100940000AD9E06D40F01000E065206E40F0010033
:1009500020660120BDE8F081206880682842EBD144
:100960000020F7E7C0FFFF7F000040A370B50446FA
:10097000006881688268C1F3400112F0010F24D041
:1009800019BB816801F00D01012910D18168104A5D
:100990001140891C816021680320086000F088FFF5
:1009A00005460EE000F084FF401B022809D9E06DE7
:1009B00040F01000E065206E40F00100206601204C
:1009C00070BD20688068C007ECD1002070BD0000B9
:1009D000C0FFFF7F70B504460068816811F0010F09
:1009E00028D18168144A114215D18168D543294024
:1009F000491C816000F05CFF064616E0816811F03A
:100A0000010F03D181682940491C816000F050FF2B
:100A1000801B022809D9E06D40F01000E065206ECF
:100A200040F001002066012070BD20680168C943C4
:100A3000C907E3D1002070BD3F000080FEE7000041
:100A4000014800F031BD0000B0010020014800F075
:100A50002BBD0000100200200D4902688A4201D21D
:100A60000C4901E00B492031D2B21423083AB2FB01
:100A7000F3F2436C02F01F0223F003031944816474
:100A800004498031C1640121914001657047000033
:100A900008040240000802400179074A02EB810283
:100AA0004265054A4432491E826501F01F02012158
:100AB0009140C16570470000FC08024030B5D0E9A4
:100AC00013456560446D14B1D0E91645656090F832
:100AD000444004F01F050124AC40056C6C600468C0
:100AE00063608368102B036803D099600068C2605C
:100AF00030BD9A600068C16030BD7047002240F68A
:100B0000B83306E00021491C89B29942FBD3521C3C
:100B100092B28242F6D37047704700002DE9F84F39
:100B200000270446009790F85800DFF8DC930D4644
:100B3000B846012811D0012684F85860206802F0D8
:100B400061FB60B1E06D40F02000E0655FF00107FF
:100B500084F858803846BDE8F88F0220FBE7D5E9D5
:100B600000210C23206803EA91131844036B01F061
:100B70001F014FF01F0C0CFA01FCC2F3846223EA40
:100B80000C038A4013430363206802F03BFB824658
:100B9000206802F033FB5AEA00003CD1AA682968B9
:100BA0002068B2F1004F37D002F038FB206841696D
:100BB00021F00041416120686969C268C2F3C10245
:100BC000520091402A69042A31D000EB82002B6840
:100BD000026EDFF838C303F0F84302EA0C020B435D
:100BE0001A4342F00041016622682869A96902EBB4
:100BF0008000026E22F080720A430266297F20681C
:100C00002A69012910D0002100EB8200026E22F037
:100C100000720A4302667DE0002202F0FFFA2068BB
:100C2000416941F00041C5E74FF00071ECE7002158
:100C300002F0DEFA400320684FF0000172D002F0AB
:100C4000D7FA90FAA0F0B0FA80F1286842036ED08B
:100C500090FAA0F0B0FA80F0814204D1002211464F
:100C6000206802F0EAFA0121206802F0C1FA40038C
:100C700020684FF001015DD002F0BAFA90FAA0F0BE
:100C8000B0FA80F12868420359D090FAA0F0B0FA87
:100C900080F0814204D100220121206802F0CDFAC7
:100CA0000221206802F0A4FA400320684FF00201FC
:100CB00048D002F09DFA90FAA0F0B0FA80F12868CE
:100CC000420344D090FAA0F0B0FA80F0814204D1FF
:100CD00000220221206802F0B0FA0321206802F00D
:100CE00087FA400320684FF0030133D002F080FA06
:100CF00090FAA0F0B0FA80F1286842032FD090FA61
:100D0000A0F0B0FA80F0814204D1002203212068D3
:100D100002F093FA2068816811F0010F22D0ACE054
:100D200000E004E002F064FAC0F384618DE7C0F3F0
:100D3000846091E702F05CFAC0F38461A2E7C0F33B
:100D40008460A6E702F054FAC0F38461B7E7C0F309
:100D50008460BBE702F04CFAC0F38461CCE7C0F3D7
:100D60008460D0E72A7B296850F8B03FC1F3120CA9
:100D700023EA0C0302F0180C654A22FA0CF20A402E
:100D800013430360E968494577D1286841031CD0C3
:100D900090FAA0F1B1FA81F1491C01F01F01092973
:100DA0004FEA403132D8002912D000BF90FAA0F1AA
:100DB000B1FA81F101F1010101F01F0106FA01F61A
:100DC00009D100BFC0F3846109E0C0F38461E3E7A7
:100DD000C0F38461EEE790FAA0F1B1FA81F101F17C
:100DE000010101F01F0146EA816102D1C0F3846074
:100DF00003E090FAA0F0B0FA80F000F1010000F0FA
:100E00001F0000EB400041EA005132E000290ED003
:100E100090FAA0F1B1FA81F101F1010101F01F0195
:100E200006FA01F606D100BFC0F3846106E0C0F304
:100E30008461F1E790FAA0F1B1FA81F101F10101C9
:100E400001F01F0146EA816102D1C0F3846003E032
:100E500090FAA0F0B0FA80F000F1010000F01F005D
:100E60002C4A00EB400002EB005041EA000141F047
:100E70000071AA68206802F0D1F927482A68024266
:100E80003FF466AE25488168254B01F0E0719A4237
:100E900002D0244B9A421BD10B0219D42268B2F122
:100EA000A04F7FF455AE826841F4000122F0E07259
:100EB0000A4382601C481D490068B0FBF1F000EB5A
:100EC0004000800000E0401E00900028FBD13FE67B
:100ED000174D184BAA4207D1CD0105D422689A427A
:100EE000F5D041F0807109E0134DAA42EFD14A02DA
:100EF000EDD422689A42EAD041F48001826822F05F
:100F0000E0720A43826023E600007F4000F0FF03A6
:100F1000FFFF0700000020FE0000088000030050D3
:100F2000000021C31000C09030000020400D0300DD
:100F3000000052C700010050000084CB0068006C24
:100F400070470000F8B54FF0000504002E460095EC
:100F500002D0E06D10B107E00120F8BD204600F09E
:100F6000EDF8266684F8586020688168C1F3407106
:100F700019B18168694A1140816020688168C1F3B4
:100F8000007179B98168664A114041F080518160F1
:100F9000644865490068B0FBF1F000E0401E009035
:100FA0000028FBD120688168C1F3007141B9E16D6F
:100FB00041F01001E165216E41F00101216601253A
:100FC00002F020F9E16DC90600D430B1E06D40F0C7
:100FD0001000E06501252846F8BDE06D20F4807022
:100FE00040F00200E0652068806810F0010F11D128
:100FF0004FF0A04080684D4900F00100896801F081
:101000000101084306D14A486168826822F47C12D3
:101010000A438260E168E06B627F0843A16841EAAD
:101020004231084394F8241040EA0140012904D1D8
:10103000218D404A02EB41410843E16A29B101F4A4
:101040007871226B014342EA01002168CA683A4B79
:101050001A400243CA6020680169626B21F0406156
:1010600011430161206802F0CDF80646206802F0C5
:10107000C5F830432ED1207F94F83810800340EA21
:1010800041022068C16844F2020399431143C160E0
:1010900020690028206801690AD041F4803101618B
:1010A000206850F8C01F22696FF30D01114307E05B
:1010B00021F480310161206850F8C01F6FF30D01E9
:1010C000016094F8400001280CD02068016921F0EB
:1010D00001010161606901282068016B21F00F01A5
:1010E00011D013E0D4E911010843D4E913121143DC
:1010F000084321680A6940F2FC739A43104340F0A8
:1011000001000861E6E7226A521E11430163E06DA7
:1011100020F0020040F00100E0655CE7C0FFFF5FE7
:10112000C0FFFF7F30000020400D03000001005091
:10113000000300500000FEFF0740F0FF10B586B02E
:10114000044614216846FFF79DF81149206888423B
:101150001BD11048C16C41F40051C164C16C01F451
:1011600000510591C16C41F00201C164C06C694637
:1011700000F0020005904FF4004000900320019021
:1011800000200290044800F0A5FA06B010BD00004F
:101190000001005000100240000400482DE9F04119
:1011A000044639480F46816801F01F05A1690829E6
:1011B0000FD085B1052D0ED0092D0CD0806800F41C
:1011C000604060B1E06D40F02000E0650120BDE8C6
:1011D000F081082604E02068C068C007F1E7042613
:1011E00000F066FB804608E0781C06D000F060FB4B
:1011F000A0EB0800B8420FD877B1206800683042F1
:10120000F2D0E06D40F40070E065206801F0FEFF70
:10121000D0B1607F48B117E0E06D40F00400E065B8
:10122000002084F858000320D1E7206800680007F8
:101230000AD5E06D20F48070E065E06DC00403D451
:10124000E06D40F00100E065104A20684FF0A041D9
:10125000904201D10B4600E00346834210D07DB19D
:10126000052D0DD0092D0BD0904200D00146C96844
:10127000082E07D0490401D40C2101600020A6E704
:10128000C168F5E70821F8E70003005000010050AD
:101290002DE9F04104463848806800F01F052068B9
:1012A00001F0B0FF18B102210846BDE8F08194F8C2
:1012B000580001280CD0012084F858002046FFF780
:1012C00089FB01004FF0000304D084F85830EBE7AD
:1012D0000220EAE7E06D40F60162904340F480703E
:1012E000E065264A20684FF0A046904201D137467B
:1012F00000E00746874200D01DB9E76D27F480174C
:10130000E765E76DFF0404D5276E27F0060727661B
:1013100000E023661C27076084F85830206890425C
:1013200001D1334600E00346834215D0A5B1052D17
:1013300012D0092D10D0E36D43F48013E365904281
:1013400000D13046C0688001AED5E06D20F4005079
:1013500040F48050E065A7E7C268920105D5E26DD0
:1013600022F4005242F48052E2658268044B1A4033
:10137000121D826098E70000000300500001005039
:10138000C0FFFF7F10B5044690F85800012808D030
:10139000012084F8580003212046FFF779FA10B1A4
:1013A0000BE0022010BD2046FFF7E0FA28B9E16DFE
:1013B00021F4885141F00101E165002184F85810C1
:1013C00010BD10B590F8253000210122022B03D06A
:1013D0000421C163012122E003681C6824F00E048B
:1013E0001C60836C1C6824F480741C6003681C6897
:1013F00024F001041C6090F84430046C03F01F03D7
:1014000002FA03F36360D0E913345C60436D33B1D7
:101410001C6824F480741C60D0E916345C6080F889
:101420002520002280F82420084610BD70B590F8D1
:101430002520002401212346022A07D00422C2636A
:1014400080F8251080F82430012429E0026815680E
:1014500025F00E0515600268156825F00105156078
:10146000826C156825F48075156090F84420056C31
:1014700002F01F0201FA02F26A60D0E913255560FA
:10148000426D32B1156825F480751560D0E91625D6
:10149000556080F8251080F82430816B01B18847B1
:1014A000204670BDC06B7047F0B4016C0C680168D9
:1014B0000D6890F8442002F01F06042202FA06F399
:1014C000234211D06B070FD50B689B0603D40B6822
:1014D00023F004030B6090F8441001F01F018A40D0
:1014E000016C4A60016B1DE0022303FA06F72742F4
:1014F0004FF0000C4FF0010218D0AF0716D50C6862
:10150000A40605D40C6824F00A040C6080F8252099
:1015100090F8441001F01F018B40016C4B6080F883
:1015200024C0C16A00291AD0F0BC08470823B34080
:10153000234214D02B0712D50B6823F00E030B6047
:1015400090F84410036C01F01F0102FA01F1596098
:10155000C26380F8252080F824C0416BE2E7F0BC2C
:101560007047000070B504000CD02B4A216814208D
:10157000914209D2294A0A44B2FBF0F0800060642B
:1015800027480AE0012070BD234A52420A44B2FBB8
:10159000F0F080006064204808382064022084F85D
:1015A00025000A6847F6F0708243D4E90203184325
:1015B000D4E904352B431843A3691843E36918435E
:1015C000236A1843104308602046FFF745FAA068D5
:1015D0000025B0F5804F00D16560A16C20790860CE
:1015E000D4E9130141606068401E032808D82046F2
:1015F000FFF752FA606D0560D4E91601416002E020
:101600006565A565E565E563012084F8250084F836
:101610002450002070BD000008040240F8FFFDBF08
:101620000000024070B5044690F82400002501280F
:101630000CD0012084F8240094F825600020012EAD
:1016400006D084F824000225284670BD022070BD13
:10165000022684F82560E0632068066826F001060B
:1016600006602046FFF72AFA206B002820680168F0
:1016700002D041F00E0106E021F004010160206873
:10168000016841F00A010160A06C0168C90303D53B
:10169000016841F480710160606D18B1016841F426
:1016A000807101602068016841F001010160CBE7B1
:1016B00070B5044600F0FCF80546601C02D00448F2
:1016C0004068044400F0F4F8401BA042FAD370BD17
:1016D000240000202DE9FC4FDFF8A0A10023012504
:1016E0000AF1040B03244FF00F0C0BF1040EBDE0C4
:1016F00005FA03F632406FD04F68012F05D0022F54
:1017000003D0112F01D0122F17D1D0F808905F000D
:1017100004FA07F829EA08090097D1F80C8008FABA
:1017200007F848EA0908C0F808804768B7430E7907
:10173000C6F300169E403E434660C6684FEA430823
:1017400004FA08F7BE4301978F6807FA08F7374392
:10175000C7604E68022E01D0122E13D1DE0800EBB6
:1017600086060096366A5F07FF0E0CFA07F926EA2E
:101770000906D1F8109009FA07F949EA0609009E0E
:10178000C6F820900668019FBE430F7907F0030753
:1017900007FA08F7374307604E68F60065D5384EFC
:1017A000376E47F001073766366E23F0030706F001
:1017B00001060096334E3E44B146B6689F074FEA95
:1017C00017780CFA08F7BE43B0F1904F05D02E4FB2
:1017D000B84204D1012717E047E0002714E02B4F5F
:1017E000B84201D102270FE0294FB84201D10327A7
:1017F0000AE0284FB84201D1042705E0264FB8423D
:1018000001D1052700E0062707FA08F73743C9F892
:101810000870DAF800605746D1F8048096435FEA12
:10182000C83800D516433E60DBF800605F46D1F84B
:10183000048096435FEA883800D516433E60DEF8A0
:1018400000607746D1F8048096435FEAC82800D547
:1018500016433E60094F0C373E68D1F8048096432A
:101860005FEA882800D516433E605B1C0A6832FA9E
:1018700003F67FF43DAFBDE8FC8F0000000401409B
:101880000010024000000140000400480008004829
:10189000000C00480010004800140048006908408F
:1018A00000D0012070470AB18161704781627047A2
:1018B00001488068704700002400002002488168C9
:1018C00042681144816070472400002010B5002454
:1018D000032000F077F8002000F008F808B1012498
:1018E00001E000F025F8204610BD000070B50E4E56
:1018F00005460024706898B14FF47A71B1FBF0F09E
:101900000A490968B1FBF0F000F0E2FE40B9102D81
:1019100006D200222946501E00F034F8356000E05F
:101920000124204670BD000024000020300000206B
:101930000B4808B5016E41F001010166016E01F02E
:1019400001010091816D41F080518165806D00F051
:10195000805000900348816841F48041816008BD57
:101960000010024000700040002809DB00F01F0258
:10197000012191404009800000F1E020C0F80011F1
:1019800070470000F0B40E4B1B680C46C3F30223F3
:10199000C3F10705042D00D90425191D072901D21B
:1019A000002300E0DB1E012606FA05F1491E214056
:1019B00099409E40761E16403143F0BC02F0FABDBD
:1019C0000CED00E0064900F0070208684FF6FF033F
:1019D000184040EA0220034A1043086070470000A4
:1019E0000CED00E00000FA052B492C4B0A6832216F
:1019F0004A432B4940B1B0F5007F086829D020F454
:101A0000C06040F480602CE00868C0F341200228E8
:101A100004D051F8800F20F4807022E0D1F88000CB
:101A200020F48070C1F88000086820F4C06040F4A1
:101A300000700860B2FBF3F0401C00E0401E4A69F1
:101A4000520501D50028F9D1486940050AD503207F
:101A50007047C0F34120022806D051F8800F40F4AF
:101A60008070086000207047D1F8800040F48070DA
:101A7000C1F88000086820F4C06040F4007008607D
:101A8000B2FBF3F0401C00E0401E4A695205DBD572
:101A90000028F9D1D8E700003000002040420F00B4
:101AA000007000402DE9F8430446006800269D4D73
:101AB00000035ED5A86D0027C00008D4A86D40F0D3
:101AC0008050A865A86D012700F080500090DFF8D5
:101AD0005892D9F8001041F48071C9F80010FFF74E
:101AE000E7FE804606E000BFFFF7E2FEA0EB08003D
:101AF00002282BD8D9F80000C005F5D5D5F89000FC
:101B000010F4407014D0216C814211D0D5F89000AF
:101B1000D5F8901020F4407041F48031C5F8901051
:101B2000D5F8901021F48031C5F89010C5F89000D8
:101B3000C00711D0FFF7BCFE804641F2883907E0AC
:101B4000FFF7B6FEA0EB0801494501D903260BE0DB
:101B5000D5F890008007F3D5D5F89000216C20F4DB
:101B600040700843C5F890001FB1A86D20F0805068
:101B7000A8652078C00707D0D5F88800616820F0F4
:101B800003000843C5F888002078800707D5D5F8FA
:101B90008800A16820F00C000843C5F88800207870
:101BA000400707D5D5F88800E16820F030000843E9
:101BB000C5F888002078000707D5D5F88800216986
:101BC00020F0C0000843C5F888002078800607D5BB
:101BD000D5F88800616920F440600843C5F88800A2
:101BE0002078400607D5D5F88800A16920F4405038
:101BF0000843C5F888002078000607D5D5F8880086
:101C0000E16920F440400843C5F888002088C005F9
:101C100007D5D5F88800216A20F440300843C5F87C
:101C200088002088800507D5D5F88800616A20F4EF
:101C300040200843C5F88800208840050FD5D5F816
:101C40008800A16A20F440100843C5F88800A06A03
:101C5000B0F5801F03D1E86840F48010E860208868
:101C600000050FD5D5F88800E16A20F4400008434C
:101C7000C5F88800E06AB0F5800F03D1E86840F449
:101C80008010E8602088C0040FD5D5F88800216B4B
:101C900020F040700843C5F88800206BB0F1807FC9
:101CA00003D1E86840F48010E86020884FF00061BC
:101CB00080040ED5D5F88800626B20F04060104398
:101CC000C5F88800606B884203D1E86840F4801052
:101CD000E860208840040ED5D5F88800A26B20F07B
:101CE00040601043C5F88800A06B884203D1E868C3
:101CF00040F48010E860208800040FD5D5F88800F3
:101D0000E16B20F040500843C5F88800E06BB0F16B
:101D1000805F03D1E86840F48030E8603046BDE879
:101D2000F883000000100240007000402DE9F047E9
:101D30000E4605004FF0000725D0DFF8AC81D8F83B
:101D4000000000F00F00B0420CD2D8F8001021F0D3
:101D50000F013143C8F80010D8F8000000F00F0060
:101D6000B04210D12968614CC80741F2883A5AD074
:101D70006868DFF87C91032808D0022820682DD0FD
:101D8000400500282CDB0120BDE8F0872068800199
:101D9000F9D5E06800F00302E068C0F30310401CCE
:101DA000032A19D0534A00BFB2FBF0F0E268C2F335
:101DB00006225043E268C2F34162521C5200B0FB5B
:101DC000F2F0484517D9A06810F0F00F0CD0880742
:101DD00011D5A86840B10EE0474AE5E78003D0E797
:101DE00000F0B6F8484506D9A06820F0F00040F0B1
:101DF0008000A0608027A068696820F00300084385
:101E0000A060FFF755FD814606E000BFFFF750FDDB
:101E1000A0EB090151453AD8A068696800F00C00B0
:101E2000B0EB810FF2D12868810714D5400703D5A4
:101E3000A06840F4E060A0602878000705D5A0689D
:101E400020F4605040F4E060A060A068A96820F031
:101E5000F000084304E0802F03D1A06820F0F000D8
:101E6000A060D8F80010404601F00F01B14216D929
:101E7000016821F00F0131430160FFF719FD0746AA
:101E800007E000BFFFF714FDC11B514501D9032036
:101E90007AE7D8F8000000F00F00B042F2D12878BD
:101EA000400705D5A068E96820F4E0600843A06019
:101EB0002878000706D5A068296920F4605040EA18
:101EC000C100A06000F044F8A1680C4AC1F30311FE
:101ED000515C01F01F01C8400949086009480068C9
:101EE000BDE8F047FFF702BD0020024000100240AD
:101EF00000B4C4040024F40000366E014C660008EF
:101F00003000002024000020054806490068896848
:101F1000054AC1F30221515C01F01F01C84070471E
:101F200030000020001002405C66000805480649A9
:101F300000688968054AC1F3C221515C01F01F01A4
:101F4000C840704730000020001002405C66000866
:101F5000184910B58868C0F381021748012A0BD0D0
:101F60008A68164BC2F38102022A06D08A68C2F33D
:101F70008102032A03D0002010BD184610BDCA6894
:101F800002F00304CA68C2F30312521C032C02D0ED
:101F9000B0FBF2F001E0B3FBF2F0CA68C968C2F32B
:101FA00006225043C1F34161491C4900B0FBF1F0E6
:101FB00010BD0000001002400024F40000366E0145
:101FC0002DE9F84304007AD02078FA4DC00747D0B5
:101FD000A868E96800F00C0001F003010C2802D0A9
:101FE000082817D001E0032914D06068B0F5803FBD
:101FF00017D0B0F5A02F286817D020F480302860C3
:10200000286820F4802028606068E0B1FFF750FC69
:10201000064614E02868800322D560680028D2D0E4
:102020001EE0286840F48030EDE740F4802028600E
:10203000F7E700BFFFF73CFC801B642870D82868D6
:102040008003F7D50CE0FFF733FC064605E000BF40
:10205000FFF72EFC801B6428F0D828688003F7D493
:10206000207880074CD5A868E96800F00C0001F0E2
:1020700003010C2802D004280DD001E002290AD067
:10208000E068002828682BD040F480702860FFF7B3
:102090000FFC064619E02868400502D5E0680028D4
:1020A00091D06868217C20F0FE4040EA01606860C1
:1020B000C1480068FFF71AFC002800D120E076E153
:1020C000FFF7F6FB801B0228B8D828684005F7D533
:1020D0006868217C20F0FE4040EA016068600FE003
:1020E00020F480702860FFF7E3FB064605E000BFA0
:1020F000FFF7DEFB801B0228A0D828684005F7D434
:102100002078000729D560690028D5F8940013D0FD
:1021100040F00100C5F89400FFF7CAFB064606E050
:1021200090E000BFFFF7C4FB801B022886D8D5F8DB
:1021300094008007F6D510E020F00100C5F8940067
:10214000FFF7B6FB064604E0FFF7B2FB801B022850
:1021500078D8D5F894008007F6D42078400761D568
:10216000A86D0026C00008D4A86D40F08050A86576
:10217000A86D012600F08050009090480168C905C4
:1021800011D40168804641F480710160FFF790FB33
:10219000074604E0FFF78CFBC01B022852D8D8F892
:1021A0000000C005F6D5A068012815D00528D5F88F
:1021B000900016D020F00100C5F89000D5F89000EE
:1021C00020F00400C5F89000A06841F28838B8B14A
:1021D000FFF76EFB07460EE0D5F8900040F00100D7
:1021E000F0E740F00400C5F89000F5E7FFF760FB6A
:1021F000C11B414526D8D5F890008007F6D50CE0E4
:10220000FFF756FB074604E0FFF752FBC11B4145B1
:1022100018D8D5F890008007F6D41EB1A86D20F02C
:102220008050A8652078800629D5A0690028D5F8B7
:10223000980013D040F00100C5F89800FFF738FB74
:10224000064606E077E000BFFFF732FB801B02285E
:1022500077D8D5F898008007F6D510E020F0010077
:10226000C5F89800FFF724FB064604E0FFF720FBC3
:10227000801B022865D8D5F898008007F6D4E0695D
:10228000F0B3A968C1F38101032961D0022828684D
:1022900020F0807028600BD0E86820F00300E86030
:1022A000E86847490840E860FFF702FB04464BE056
:1022B000FFF7FEFA064604E0FFF7FAFA801B022851
:1022C0003FD828688001F7D4F4E908016FF00F02C5
:1022D00002EB01110843218A5204490802EB4151E3
:1022E000A26841EA02210843217D4FF07E4249085D
:1022F00002EB41610843217B40EAC160E96800E0EC
:1023000062E0304A11400843E860286840F080707D
:102310002860E86840F08070E860FFF7C9FA04467A
:1023200005E000BFFFF7C4FA001B022809D828689F
:102330008001F7D548E004E0FFF7BAFA001B022855
:1023400002D90320BDE8F88328688001F4D43BE07B
:102350000128F7D0E868226A00F00301914226D1F3
:10236000616A00F0F0020901103991421FD1A26A9E
:1023700000F4FE41B1EB022F19D194F82C2000F0AB
:102380007841B1EBC26F12D1218E00F4C00249082E
:102390004905A1F50011914209D194F8341000F0DB
:1023A000C06049084906A1F1007181420CD00120AA
:1023B000C8E7000000100240240000200070004028
:1023C000FFFFEEFE0C809F010020BBE70F4810B519
:1023D0000B4601680E480140080CD870C1F3042474
:1023E0005C7001F03F049C70C1F34231197052B926
:1023F00001F005FAD870587801F001FA5870987811
:1024000001F0FDF99870002010BD00000428004084
:102410003FFFFF00144810B500680B4648601248A3
:1024200008300068C0F30E0088600F480838016863
:102430000E480140C1F305401870C1F306245C70DA
:1024400001F07F049C70890DD97052B901F0D7F961
:102450001870587801F0D3F95870987801F0CFF9D6
:102460009870002010BD0000082800407F7F7F008A
:1024700070B504004FF001003ED094F8250028B953
:10248000002084F82400204600F03CF8022084F864
:1024900025001A4ECA20306053203060204601F0DB
:1024A000C3F910BB154D0C3D28681549084028603C
:1024B00028686168A26908432169114308432860BC
:1024C0002189E06840EA01400C491439086020463F
:1024D00001F0D0F948B9D4E90721114362692B68AA
:1024E00023F060431A4311432960FF213160002823
:1024F00002D1012184F8251070BD0000242800407D
:10250000BFFF8FFB00680549884205D1044850F899
:10251000901F41F400410160704700000028004016
:10252000001002402DE9F041044690F824000B46CB
:1025300001281AD0012684F82460022084F825009E
:10254000B2B19878D97840EA0145587819780002F4
:1025500040EA413005431B4FCA20386053203860A1
:10256000204601F061F9D8B122E00220BDE8F081F7
:102570005878C10603D500F0EF000A305870D878BB
:1025800001F046F90504587801F042F945EA0025C2
:10259000987801F03DF90543187845EA4035DAE7C7
:1025A00009480540074820380560204601F062F9D7
:1025B000FF21396008B984F82560002184F82410CF
:1025C000D4E70000242800403FFFFF002DE9F0473A
:1025D000054690F8240017460C46012814D04FF009
:1025E000010985F82490022085F82500DFF8A480F1
:1025F000CA21C8F800105321C8F80010284601F07D
:1026000013F9002618B127E00220BDE8F087214B1E
:102610000C3B18684FEA40601FB3002800DBE670EF
:10262000A0782178E27840EA01406178090241EA25
:10263000825108431849084016492439086018682F
:1026400020F480201860D4E9030108431968084386
:102650001860284601F00EF9FF22C8F80020A0B14A
:1026600015E0002800DBE670207801F0D1F80704BF
:10267000607801F0CDF847EA0027A07801F0C8F8AB
:102680000743E07847EA8050D4E785F8259085F83D
:102690002460BAE7242800407F7F7F0070B50B4D8F
:1026A000286860F0A0002860FFF702F904464FF4A4
:1026B0007A7606E0FFF7FCF8001BB04201D9032050
:1026C00070BD28688006F5D5002070BD0C2800403C
:1026D00010B5401EB0F1807F01D3012010BD4FF036
:1026E000E02460610F21601701F064FF0020A06109
:1026F00007202061002010BD90F87C10012918D01F
:10270000012180F87C102421C0F8801050F8601B53
:102710000A680B6823F001030B6022F000510022CD
:10272000426050F8603C1960202101620277104637
:10273000704702207047704770B5044690F87C00DF
:1027400001281DD0012084F87C002420C4F88000DA
:1027500020680568026822F0010202602068826831
:1027600022F060620A438260204601F099F92068F5
:1027700005602020C4F88000002084F87C0070BD33
:10278000022070BD70B5044690F87C0001281DD071
:10279000012084F87C002420C4F8800020680568AB
:1027A000026822F0010202602068826822F0604222
:1027B0000A438260204601F073F9206805602020FA
:1027C000C4F88000002084F87C0070BD022070BD39
:1027D0007047704770B5D0F880100446D0F8845028
:1027E000006882684FF01006120612D5212910D118
:1027F000816821F080018160606F38B1FEF7E1FDF2
:1028000020B1606FFEF74EFE20281BD0204601F05D
:1028100091FA20688168490612D5222D10D181686D
:1028200021F040018160A06F38B1FEF7CAFD20B1F0
:10283000A06FFEF737FE202804D0204601F068FA8A
:10284000002070BDC4F88860032070BD7047000090
:102850002DE9F04103680446D8691A68996810F0B8
:102860000F0F4FF0000569D05E4E02F490770E40D6
:1028700037437DD0C70709D0D70507D501271F6289
:10288000D4F8883043F00103C4F8883083070AD5B0
:10289000CB0708D0276802233B62D4F8883043F086
:1028A0000403C4F8883043070AD5CB0708D027684B
:1028B00004233B62D4F8883043F00203C4F8883024
:1028C00003070CD502F02003334308D02668082301
:1028D0003362D4F8883043F00803C4F88830D4F861
:1028E0008830002B3CD0800609D502F0200001F092
:1028F0008051084303D0E16E09B120468847D4F8DF
:10290000880021688968490601D400072AD5204635
:1029100001F0FEF92068816849061ED5816821F022
:1029200040018160A06FC0B12F498163A06FFEF7A5
:102930007DFD002814D0A06F816B0AE0860617D5B4
:1029400002F0200601F080573E4311D0E16E24E0F2
:102950002046BDE8F04108470AE02046FFF776FF31
:10296000BDE8F0812046FFF771FFC4F88850F7E713
:10297000C60209D54E0207D54FF4801018622046D2
:10298000BDE8F041FFF725BF060609D502F0800635
:1029900001F400010E4303D0216F0029D8D1DFE7F5
:1029A00041060DD551060BD51968204621F040018E
:1029B00019602021C4F88010256700F0A5F9CFE741
:1029C000010206D5510004D52046BDE8F041FFF7CD
:1029D000FFBEC001C4D5002AC2DA2046BDE8F041DE
:1029E000FFF7A9BE010000102B3C000810B5204CD9
:1029F00020786B2834D16078302831D1A0782E2807
:102A00002ED1E078313808282AD820790D2827D10E
:102A100060790A2824D11748FDF73FFC82B2154996
:102A2000154800F025F9E0783038FDF7AFFC9FED50
:102A3000131B53EC112BFDF737FCFDF7F1FC00EEF7
:102A4000100A1048F2EE040A80ED000A20EE200A77
:102A5000BCEEC00A10EE100AC1B2012002F0F6FC72
:102A6000BDE8104032220249034800F0ADB8000032
:102A70005C00002018000020240100209A999999F8
:102A80009999B93F1400002010B5040003D0D4F880
:102A9000800010B107E0012010BD002084F87C0008
:102AA000204600F027F82420C4F880002068016840
:102AB00021F001010160204601F04AF90128EBD024
:102AC000A06A10B1204601F01DF82068416821F489
:102AD000904141602068816821F02A01816020686E
:102AE000016841F0010101602046BDE8104001F09D
:102AF0006DB80000F0B587B0064614216846FDF7B2
:102B0000C1FB2D493068884254D12C48016E41F4F4
:102B100080410166016E01F480410591C16C41F074
:102B20000101C164C06C002400F0010005904FF465
:102B3000C06000900220CDE901040720CDE90340E8
:102B400069464FF09040FEF7C5FD1E4D1C4880279A
:102B500028601820C5E90104C5E903476C61AC6130
:102B6000EC6128462C62FEF7FDFC08B1FDF7D4FFAE
:102B7000B567AE62134D12486035143028601920D5
:102B8000686005F10801102081E891006C61AC617A
:102B9000EC6128462C62FEF7E5FC08B1FDF7BCFFAE
:102BA0007567002211462520AE62FEF7EBFE252058
:102BB000FEF7DAFE07B0F0BD003801400010024019
:102BC00008000240B001002070B50446D0F884002F
:102BD000202842D161B35AB394F87C0001283CD03C
:102BE000012084F87C00A165A4F85C200025C4F8CD
:102BF00088502220C4F88400A06FD8B11849C1625F
:102C0000A16F184813460863A16F17484863A06F67
:102C10008563A66D216832462431A06FFEF702FD60
:102C200040B11020C4F8880004F87C5F2020606068
:102C3000012070BD84F87C502068016841F48071E7
:102C400001602068816841F001018160206881682D
:102C500041F040018160002070BD022070BD000085
:102C60008F3C0008CD3C00083F3C0008704770478F
:102C700070B50446D0F8800020283DD171B36AB306
:102C800094F87C00012837D0012084F87C0021656D
:102C9000A4F85420A4F856200025C4F88850212018
:102CA000C4F88000606FD8B11449C162616F1448E4
:102CB00013460863616F13484863606F8563266835
:102CC000216D06F12802606FFEF7ACFC40B11020C8
:102CD000C4F8880004F87C5F20206060012070BD8B
:102CE00021684020086284F87C502068816841F0A7
:102CF00080018160002070BD022070BDD73C0008BB
:102D0000073D00083F3C000870477047FEE770B57C
:102D10000446082516E000F007FE142002F07CF9B6
:102D200004F0800000F02EFE142002F075F9600619
:102D3000040E142002F070F9012000F0F5FD1420BB
:102D400002F06AF96D1EEDB24FF00000E3D200F020
:102D5000EBFDBDE87040142002F05EB910B5012013
:102D600000F010FE142002F057F9012000F0DCFD05
:102D7000142002F051F9002000F004FE142002F0AB
:102D80004BF9002000F0D0FDBDE81040142002F007
:102D900043B910B5002000F0C7FD142002F03CF943
:102DA000002000F0EFFD142002F036F9012000F0C1
:102DB000BBFD142002F030F9012000F0E3FDBDE876
:102DC0001040142002F028B910B5052400F0C4FD0D
:102DD000142002F021F9012000F0A6FD142002F0D9
:102DE0001BF905E0641EA4B2142002F015F96CB1C1
:102DF00000F0A6FD0028F5D100F0D0FD002000F085
:102E000093FD142002F008F9002010BD00F0C6FD6B
:102E1000FFF7BFFF012010BD00B585B01421684643
:102E2000FDF730FA4FF6FF70009000200321CDE946
:102E30000201019069460248FEF74CFC05B000BD56
:102E40000008004800B585B014216846FDF71AFA5D
:102E50004FF6FF70009001200190032003900020A6
:102E6000029069460248FEF735FC05B000BD00003F
:102E70000008004870B5002406462146204600F0B0
:102E800013F900F051F94FF49635304600F020F96F
:102E9000641CAC42F9D370BD01A100F061B8000020
:102EA0002020202020202020202020202020202022
:102EB000202020200000000030B587B01421684693
:102EC000FDF7E0F91E48C16C41F00401C164C16C1A
:102ED00001F004010591C16C41F00101C164C16CB4
:102EE00001F001010591C16C41F00201C164C06CA7
:102EF000012500F0020005904FF44870CDE900056F
:102F000000240394694602940E48FEF7E3FB28026E
:102F100003940090CDE901544FF090446946204657
:102F2000FEF7D8FBFFF78EFFA06940F48070A06128
:102F300004481830016841F40871016007B030BDE1
:102F40000010024000040048203AD2B2034B02EBCA
:102F5000420203EB021200F019B800007C54000892
:102F6000F0B50E460746002540F23F1407E0214623
:102F70003846FFF7E9FF103C6D1CA4B2761C32788E
:102F8000002A01D0142DF2D3F0BD00002DE9F04746
:102F900091468A460026044600F086F8DFF8408015
:102FA000012700BF00F0C0F85FF0000539F81600F7
:102FB00007FA05F10842404601D1408800E0008848
:102FC00000F086F86D1C102DF0D3641CE4B251465D
:102FD000204600F069F8761C182EE3D3BDE8F08790
:102FE0000000002010B5FFF767FF002000F014F884
:102FF000084CA080A088A0F50241303906D000F02E
:10300000FDFA002000F008F8A08010BD00F06DFA75
:10301000F7E700000000002070B51D490A6842F47F
:1030200000720A600A6842F480720A60184C103C10
:10303000226842F020022260164A1060086840F0C0
:103040002000086000BF00BF00BF206840F02000E3
:103050002060206840F480702060FFF7DDFE4FF0B4
:103060009041886A40F48070886200BF00BF00BF52
:103070000848001F006885B2886940F48070886144
:10308000FFF7E0FE206840F400702060284670BD25
:10309000280400481408004801B5BDF800000149A3
:1030A000488008BD0000002010B50C4601462020D5
:1030B00000F068F82146BDE81040212000F062B819
:1030C00001B5BDF800000149088008BD00000020DE
:1030D000134A116841F400711160114910390B68ED
:1030E00043F480730B600B6843F020030B600D4BBF
:1030F0001860106840F02000106000BF00BF00BFE3
:10310000086840F020000860086840F4807008609B
:1031100000BF00BF00BF086840F40070086070473F
:1031200028040048140800481449086840F4007056
:103130000860086840F48070086010481038026821
:1031400042F0200202600E4B22221A600A6842F00E
:1031500020020A6000BF00BF00BF016841F02001EB
:103160000160016841F48071016000BF00BF00BFD1
:10317000016841F4007101607047000028040048B4
:1031800014080048184B10B51A6842F400721A600F
:103190001A6842F480721A60134A103A146844F0B4
:1031A00020041460114C2060186840F02000186062
:1031B00000BF00BF00BF106840F020001060106822
:1031C00040F4807010602160186840F020001860A2
:1031D00000BF00BF00BF106840F020001060106802
:1031E00040F48070106010BD2804004814080048A6
:1031F00000EB8100006E00F0F84070478068C0F37B
:10320000C00070478068C0F380007047C06810F449
:10321000406F01D00020704701207047042303EA6B
:10322000D15310B518444369C1F3045107248C40AD
:10323000A3438A401343436110BD00EB8100016E3C
:1032400021F00041114301667047000030B589B09C
:1032500020216846FDF716F8194818490024C0E9EE
:1032600000148460C46004250461C0E90545047746
:1032700044770121016280F82440C462046380F82D
:103280003840C46380F84040FDF75CFE08B1FDF7AC
:1032900043FC0C48009006200190072002907F20FC
:1032A0000594CDE9030569460548FDF737FC00287C
:1032B00001D0FDF731FC09B030BD00000001005025
:1032C000900000200080F03E114808B5816C41F06C
:1032D00004018164816C01F004010091816C41F072
:1032E00001018164806C002200F001000090114611
:1032F0000B20FEF747FB0B20FEF736FB00221146A2
:103300000C20FEF73FFBBDE808400C20FEF72CBB6D
:1033100000100240F0B587B014216846FCF7B2FFF8
:103320002948C16C41F02001C164C16C01F0200149
:103330000591C16C41F00101C164C16C01F0010152
:103340000591C16C41F00201C164C16C01F0020140
:103350000591C16C41F00801C164C06C1B4E00F0C6
:1033600008000590012204213046FEF79CFA184F10
:103370000122C0213846FEF796FA00240125CDE946
:10338000005469464FF090400294FEF7A3F90720DD
:10339000CDE90004694638460294FEF79BF9042003
:1033A0000090CDE90154694630460394FEF792F946
:1033B000C0200090CDE90154694638460394FEF7D9
:1033C00089F907B0F0BD000000100240000C004871
:1033D0000004004810B586B014216846FCF752FF7F
:1033E0001D4800241B490594C0E900147F21816019
:1033F000FF21C0E9031444610462FFF739F808B102
:10340000FDF78AFB17208DF800003B208DF80100A6
:1034100037208DF8020001940394002269460E487B
:103420000494FFF7D3F808B1FDF776FB01208DF87F
:1034300014008DF815008DF816008DF81740002245
:1034400005A90548FFF76EF8002801D0FDF764FBD9
:1034500006B010BD00280040FC000020184810B540
:10346000164901604FF416514160002181600C2221
:10347000C160C0E904128161C1610162416281627F
:10348000FFF702FB08B1FDF747FB00210C48FFF7EF
:1034900079F908B1FDF740FB00210948FFF74CF925
:1034A00008B1FDF739FB0648FFF726F9002803D0DD
:1034B000BDE81040FDF730BB10BD000000380140F2
:1034C00024010020FEE7704710B5064C01220421BC
:1034D0002046FEF7E8F920460022BDE8104004210E
:1034E000FEF7E1B9000C0048704730B5012100201B
:1034F000FFF748FE4FF47A70FDF700FB0021012032
:10350000FFF740FE41F290711020FFF73BFE4FF4B1
:103510001C516020FFF736FE01216120FFF732FECB
:1035200002214620FFF72EFE48F210011320FFF77C
:1035300029FE48F2FE011220FFF724FE4FF4A0619D
:103540000220FFF71FFE41F230010320FFF71AFEB1
:1035500040F2033421463020FFF714FE214631208B
:10356000FFF710FE21463220FFF70CFEE51E29462C
:103570003320FFF707FE03213420FFF703FE214627
:103580003520FFF7FFFD14213620FFF7FBFD214614
:103590003720FFF7F7FD21463820FFF7F3FD2146DE
:1035A0003920FFF7EFFD29463A20FFF7EBFD032115
:1035B0003B20FFF7E7FD21463C20FFF7E3FD4FF4FA
:1035C000A0513D20FFF7DEFD4FF400719220FFF780
:1035D000D9FD21469320FFF7D5FD40F60D0190203F
:1035E000FFF7D0FD41F218010320FFF7CBFDBDE846
:1035F000304040F273110720FFF7C4BD10B543F20D
:103600000801E320FFF7BEFD1221E720FFF7BAFD16
:1036100041F23121EF20FFF7B5FD00210120FFF736
:10362000B1FD4FF4E0610220FFF7ACFD41F2300143
:103630000320FFF7A7FD00210420FFF7A3FD40F2C0
:1036400007210820FFF79EFD00210920FFF79AFDC2
:1036500000210A20FFF796FD00210C20FFF792FDC4
:1036600000210D20FFF78EFD00210F20FFF78AFDBE
:1036700000211020FFF786FD07211120FFF782FDB2
:1036800000211220FFF77EFD00211320FFF77AFDB5
:10369000C820FEF70DF841F290611020FFF772FD8F
:1036A00040F227211120FFF76DFD3220FEF700F8D0
:1036B0001D211220FFF766FD3220FDF7F9FF4FF4C0
:1036C00000611320FFF75EFD14212920FFF75AFD4A
:1036D0000B212B20FFF756FD3220FDF7E9FF0021DB
:1036E0002020FFF74FFD00212120FFF74BFD072190
:1036F0003020FFF747FD40F207713120FFF742FD10
:1037000006213220FFF73EFD40F204713520FFF71D
:1037100039FD41F604713620FFF734FD04213720CE
:10372000FFF730FD00213820FFF72CFD40F2067135
:103730003920FFF727FD40F201713C20FFF722FD01
:103740000F213D20FFF71EFD00215020FFF71AFD3D
:10375000EF215120FFF716FD00215220FFF712FD47
:1037600040F23F115320FFF70DFD4FF41C51602034
:10377000FFF708FD01216120FFF704FD00216A2009
:10378000FFF700FD00218020FFF7FCFC00218120D5
:10379000FFF7F8FC00218220FFF7F4FC00218320D2
:1037A000FFF7F0FC00218420FFF7ECFC00218520CE
:1037B000FFF7E8FC10219020FFF7E4FC00219220A5
:1037C000FFF7E0FC03219320FFF7DCFC4FF4887146
:1037D0009520FFF7D7FC00219720FFF7D3FC0021AD
:1037E0009820FFF7CFFC41F218010320FFF7CAFC35
:1037F000BDE8104040F273110720FFF7C3BC010978
:1038000001EB810100F00F0000EB4100C0B27047F6
:103810000022014602E00A39C9B2521C0A29FAD232
:10382000100741EA106070472DE9F047104C8146BF
:1038300000252068400618D4206840F080002060F1
:10384000FEF736F806464FF47A78032708E000BF03
:10385000FEF72EF8801B404502D9032589F8257014
:103860002068400601D4032DF2D12846BDE8F08738
:103870000C2800402DE9F041064613480025016858
:1038800021F080010160104C0C3420684FF00307D8
:10389000800607D43046FEF701FF90B186F8257008
:1038A00003250EE0206820F0200020603046FEF75F
:1038B000F5FE10B186F825700325206840F0200041
:1038C00020602846BDE8F0810C28004000B587B094
:1038D000002206A90C48FEF779FD002201A90A483A
:1038E000FEF798FD9DF8060000909DF805309DF8C4
:1038F000042006A10B4800F049FE0A497820FFF792
:103900002FFB07B000BD0000FC0000202020543A2F
:10391000253032642D253032642D2530326420204C
:10392000202020003400002008B1044801E00348B2
:103930001030016841F040010160704718040048F0
:1039400010B580210348FDF7A9FF012800D0002011
:1039500010BD00000004004800B585B01421684681
:10396000FCF790FC80200090002001900120029044
:103970000220039069460248FDF7ACFE05B000BD89
:103980000004004808B1044801E003481030016811
:1039900041F08001016070471804004800B585B00F
:1039A00014216846FCF76EFC8020009011200190E5
:1039B000002002900220039069460248FDF78AFE2B
:1039C00005B000BD000400487047000010B5FDF7C9
:1039D00075FF0A48007800280CD009480168491C86
:1039E0000160C82906D307490A7822B100220A706B
:1039F0000021016010BD0122F9E700000C00002049
:103A0000200000200B00002030B5A5B0382168460A
:103A1000FCF738FC14211FA8FCF734FC44210EA845
:103A2000FCF730FC4FF400752846FDF7DDFF092058
:103A30000090E80101900120059002210324CDE9C6
:103A400007141420CDE90A0109940C9168460D91E0
:103A5000FEF7B6FA0F20CDE91F040024219422942A
:103A600003211FA82394FEF761F90548CDE90E0450
:103A70004007CDE91D050EA8FEF714F825B030BDAE
:103A8000018008000548016841F4700101600349A4
:103A90004FF00060803908607047000088ED00E05A
:103AA0003FB514A1D1E90021CDE9002113A2D2E94B
:103AB0000012CDE90212416EB9B1026891689268B4
:103AC000C1F34261520F1DF80240E50002ACA25C56
:103AD000B5FBF2F2A0F86A201DF80120615CD2006B
:103AE000B2FBF1F1A0F868103FBD0121A0F86A1007
:103AF000F8E70000010101030701000008040204C7
:103B00000801010190F82810C90706D001684A6829
:103B1000C36A22F400321A434A6090F828108907D9
:103B200006D501684A68036B22F480321A434A6062
:103B300090F82810490706D501684A68436B22F4BB
:103B400080221A434A6090F82810090706D50168B8
:103B50004A68836B22F400421A434A6090F82810A6
:103B6000C90606D501688A68C36B22F480521A43DD
:103B70008A6090F82810890606D501688A68036C67
:103B800022F400521A438A6090F82810490611D591
:103B900001684A68436C22F480121A434A60416CFF
:103BA000B1F5801F06D101684A68836C22F4C00217
:103BB0001A434A6090F82810090606D501684A6839
:103BC000C06C22F4002202434A607047F8B5002618
:103BD0000446C0F88860FDF76BFE05462068006863
:103BE0006FF07E47000708D52B4600224FF40011E6
:103BF0002046009700F07FFC60B92068006840070D
:103C00000AD52B4600224FF480012046009700F091
:103C100072FC08B10320F8BD2020C4F88000C4F86D
:103C2000840084F87C600020F8BD10B5806A002113
:103C3000A0F85E10A0F85610FEF708FE10BD70B593
:103C4000846AD4F88000D4F88450216889684FF0E1
:103C50000006090606D5212804D1A4F8566020469E
:103C600000F068F820688068400606D5222D04D14F
:103C7000A4F85E60204600F04BF8D4F8880040F0CD
:103C80001000C4F888002046FEF7E0FD70BD10B5B6
:103C90000146806A09680968890614D40021A0F8E1
:103CA0005E1001680A6822F480720A6001688A68FE
:103CB00022F001028A6001688A6822F040028A606C
:103CC0002021C0F88410FEF7D1FF10BD10B5806A26
:103CD000FEF7CDFF10BD10B50146806A096809687E
:103CE00089060DD40021A0F8561001688A6822F0D8
:103CF00080028A600068016841F04001016010BDE7
:103D0000FFF702F810BD10B5806AFEF7FEFF10BD88
:103D100001680A6822F490720A6001688A68044B9C
:103D20001A408A602021C0F884100021C1667047C3
:103D3000FEFFFFEF01680A6822F0C0020A60016816
:103D40008A6822F400028A602021C0F8801070473F
:103D50002DE9F05F0446016880682369E56918432E
:103D6000636900272B431843636EFA4A03430868CC
:103D7000F94D28401843086020684168E36821F441
:103D80004051194341602168A069914201D0236AE2
:103D900018438B68F14D2B4003438B602068C16A48
:103DA000636A21F00F011943C162ED4B2068ED49B0
:103DB00098420DD1D1F8881011F0030106D00129E5
:103DC0005AD0022956D003293FD157E001253DE0C2
:103DD000E54B98420BD1D1F8881011F00C0147D077
:103DE000042949D0082945D00C292ED146E0DF4BC3
:103DF00098420BD1D1F8881011F0300138D0102939
:103E00003AD0202936D030291FD137E0D84B9842FC
:103E10000BD1D1F8881011F0C00129D040292BD046
:103E2000802927D0C02910D128E090420DD1D1F8A7
:103E3000881011F440611BD0B1F5806F1CD0B1F532
:103E4000006F17D0B1F5406F18D01025DFF824A30C
:103E50004FF480764FF000094FF4004B90426ED142
:103E600075B1022D29D0042D59D0082D68D176E0E6
:103E70000025EBE70225E9E70425E7E70825E5E764
:103E8000FEF742F84DE0012851D0022851D0032816
:103E900051D0042851D0052853D0062853D00728E4
:103EA00053D0082853D0092853D00A2853D00B28C0
:103EB00053D03AE0B1FBF0F06CE0606AA8B10128A1
:103EC00017D0022817D0032817D0042817D00528A8
:103ED00017D0062817D0072817D0082817D0092888
:103EE00017D00A2817D00B2817D00120BAFBF0F002
:103EF00050E00220FAE70420F8E70620F6E7082061
:103F0000F4E70A20F2E70C20F0E71020EEE720208B
:103F1000ECE74020EAE78020E8E73046E6E7FEF7F6
:103F200017F80146606A0028ADD10120C2E70220DF
:103F3000C0E70420BEE70620BCE70820BAE761E13D
:103F40004AE00A20B6E70C20B4E71020B2E72020B0
:103F5000B0E74020AEE78020ACE73046AAE7606AD1
:103F6000A8B1012822D0022822D0032822D0042878
:103F700022D0052822D0062822D0072822D00828BF
:103F800022D0092822D00A2822D00B2822D00120B2
:103F9000BBFBF0F0002820D06168884601EB4101AE
:103FA000814219D8B0EB083F16D817E00220EFE79E
:103FB0000420EDE70620EBE70820E9E70A20E7E721
:103FC0000C20E5E71020E3E72020E1E74020DFE7D1
:103FD0008020DDE73046DBE7012739E27DB3022DA3
:103FE00061D0042D7DD0082DF6D1606AA8B10128DA
:103FF00078D0022877D0032876D0042875D00528F9
:1040000074D0062873D0072872D0082871D00928E8
:1040100070D00A286FD00B2800D0012632464D46BA
:10402000002358460021FCF7F5F8090241EA106127
:1040300002024FEA580010186941424670E0FFE75B
:10404000FDF762FF0146606AA8B1012817D0022877
:1040500017D0032817D0042817D0052817D0062812
:1040600017D0072817D0082817D0092817D00A28F2
:1040700017D00B2800D0012632464D468CE0022690
:10408000FAE70426F8E70626F6E70826F4E70A2604
:10409000F2E70C26F0E71026EEE72026ECE74026B4
:1040A000EAE78026E8E7606AA8B1012824D0022860
:1040B00024D0032824D0042824D0052824D006287E
:1040C00024D0072824D0082824D0092824D00A285E
:1040D00024D00B2800D0012632464D4600235046FE
:1040E000A0E726E07AE07BE07CE07DE07EE07FE018
:1040F00080E081E082E083E00226EDE70426EBE742
:104100000626E9E70826E7E70A26E5E70C26E3E7BF
:104110001026E1E72026DFE74026DDE78026DBE703
:104120000023FCF777F8144AA0F54071914271D949
:1041300052E7FDF70DFF0146606A50B3012839D000
:10414000022839D0032839D0042839D0052839D09D
:10415000062813E000800040F369FFCFFFF4FF1151
:104160000038014000100240004400400048004078
:10417000004C00400024F400FFFC0F0024D007286E
:1041800024D0082824D0092824D00A2824D00B2899
:1041900000D001264D463246002308461946FCF75A
:1041A00039F80902626841EA1061030250081818E0
:1041B0006941B5E70226EDE70426EBE70626E9E7C5
:1041C0000826E7E70A26E5E70C26E3E71026E1E7FD
:1041D0002026DFE74026DDE78026DBE702261DE715
:1041E00004261BE7062619E7082617E70A2615E71F
:1041F0000C2613E7102611E720260FE740260DE7CF
:1042000080260BE7E0694FF6EF78584570D1092D0D
:104210008ED200E01AE1DFE805F006093C058005D2
:1042200005058300D8E6FDF76FFE01E0FDF77EFE91
:104230000146606AA8B1012815D0022815D00328CC
:1042400015D0042815D0052815D0062815D0072824
:1042500015D0082815D0092815D00A2815D00B2804
:1042600014D0012612E0022610E004260EE00626F5
:104270000CE008260AE00A2608E00C2606E01026D4
:1042800004E0202602E0402600E08026B1FBF6F0A4
:104290001AE0606AA8B101282BD002282BD003288D
:1042A0002BD004282BD005282BD006282BD007286C
:1042B0002BD008282BD009282BD00A282BD00B284C
:1042C00000D00126BAFBF6F04100606801EB500116
:1042D000B1FBF0F080B2A0F110014145A2D84FF639
:1042E000F0710140C0F3420001432068C160AFE0BB
:1042F00046E00226E6E70426E4E70626E2E708268B
:10430000E0E70A26DEE70C26DCE71026DAE72026BF
:10431000D8E74026D6E78026D4E7FDF719FE87E7E1
:10432000606AA8B1012817D0022817D0032817D037
:10433000042817D0052817D0062817D0072817D02B
:10434000082817D0092817D00A2817D00B2800D022
:104350000126BBFBF6F0B7E70226FAE70426F8E7EA
:104360000626F6E70826F4E70A26F2E70C26F0E729
:104370001026EEE72026ECE74026EAE78026E8E76D
:10438000092DBFF4D5AEDFE805F006093C0583052D
:104390000505860020E6FDF7B7FD01E0FDF7C6FD47
:1043A0000146606AA8B1012815D0022815D003285B
:1043B00015D0042815D0052815D0062815D00728B3
:1043C00015D0082815D0092815D00A2815D00B2893
:1043D00014D0012612E0022610E004260EE0062684
:1043E0000CE008260AE00A2608E00C2606E0102663
:1043F00004E0202602E0402600E08026B1FBF6F132
:104400001AE0606AA8B101282ED002282ED0032815
:104410002ED004282ED005282ED006282ED00728EE
:104420002ED008282ED009282ED00A282ED00B28CE
:1044300000D00126BAFBF6F1606801EB5001B1FB38
:10444000F0F080B2A0F110014145A3D82168C86006
:104450000120A4F86A0024F8680F3846C4F80490D4
:10446000C4F80890BDE8F09F0226E3E70426E1E7E0
:104470000626DFE70826DDE70A26DBE70C26D9E774
:104480001026D7E72026D5E74026D3E78026D1E7B8
:10449000FDF75EFD84E7606AA8B1012817D0022805
:1044A00017D0032817D0042817D0052817D00628BE
:1044B00017D0072817D0082817D0092817D00A289E
:1044C00017D00B2800D00126BBFBF6F1B4E702267B
:1044D000FAE70426F8E70626F6E70826F4E70A26B0
:1044E000F2E70C26F0E71026EEE72026ECE7402660
:1044F000EAE78026E8E72DE9F041984617460E46A0
:104500000446069D08E0681C06D0FDF7D1F9A0EB33
:104510000800A8420BD855B12068C06936EA0000EF
:1045200019D00020B842EED00020BDE8F08120680C
:10453000016821F4D07101602068816821F00101D7
:1045400081602020C4F88000C4F88400002084F832
:104550007C000320E9E70120E4E70000094810B5EA
:104560000068C169C943C90607D410210162054822
:10457000FEF730F90348FEF739FABDE8104001486C
:10458000FEF766B924010020FEE700000FB4084BD7
:1045900010B504A902AA039800F0EEF8044602A997
:1045A000002000F06CFC204610BC5DF814FB0000FD
:1045B0007F4E00080907090E002804DB00F1E02007
:1045C00080F80014704700F00F0000F1E02080F840
:1045D000141D704702E008C8121F08C1002AFAD152
:1045E00070477047002001E001C1121F002AFBD173
:1045F000704700002DE9FF5F82B00021DDE9043043
:10460000020DDDF840B0034318D044F61050A2F27A
:10461000FF3242431514119801281FD0A5EB0B005F
:10462000401C5FEA000A4FF000064E4FDFF8389159
:10463000B046504615D5CAF1000413E01198012484
:104640004AA3012801D16FEA0B010298119AC0E92F
:104650000031C0E9024206B0BDE8F09FCBF1000096
:10466000DFE704460021404A491842EB0450CDE9F7
:10467000001012E0E00707D032463B46404649466C
:10468000FBF712FE8046894632463B4610461946E5
:10469000FBF70AFE06460F466410002CEAD1DDE95E
:1046A0000401DDE90023BAF1000F06DAFBF7FCFD97
:1046B00042464B46FBF7F8FD05E0FCF73DF8424665
:1046C0004B46FCF739F804460E460022284BFBF710
:1046D0008FFE03D84FF0FF30014607E00022254B44
:1046E00020463146FBF781FFFCF795F8102409E0DE
:1046F000002C0ADB0A220023FBF78CFD039B3032DF
:104700001A55641E50EA0102F2D1641C039AC4F1E6
:1047100011031444119A012A03D0012208430DD138
:104720000AE0084304D000204FF0110B119072E70B
:10473000A3EB0B056D1E0DE05B4504DD4FF00002A1
:1047400005F1010504E003DA4FF00002A5F10105CF
:10475000002AECD002981199C0E90231C0E9004565
:1047600079E70000000014400000F03F3000000036
:104770000000F0430000E03F2DE9FF4F95B09A465E
:10478000884606460025EEE1252877D100242746F5
:10479000F94A0121039400E0044316F8013F203B4D
:1047A00001FA03F01042F7D130782A2811D06FF0C7
:1047B0002F033078A0F13002092A16D8039A44F06A
:1047C000020402EB820203EB42021044761C0390C7
:1047D000EFE758F8042B0392002A03DA504244F41E
:1047E0000054039044F00204761C30782E2816D131
:1047F00016F8010F44F004042A280DD06FF02F02A0
:104800003078A0F13003092B09D807EB870302EBBE
:104810004303C718761CF3E758F8047B761C3078FE
:104820006C280FD006DC4C2817D068280DD06A28D9
:1048300014D104E0742810D07A280FD10DE044F48C
:1048400000140AE044F4801401E044F44014727847
:10485000824202D104F58014761C761C30786628DA
:104860000BD013DC582877D009DC002875D04528F8
:10487000F6D04628F4D047281AD193E118E06328EF
:1048800035D0642879D0652812D18BE1702873D097
:1048900008DC6728F1D069286FD06E280DD06F280A
:1048A00006D1ACE073282CD0752874D0782853D06A
:1048B0005246179990476D1C54E1C4F302500228E8
:1048C00009D003280DD0D8F8001004280DD00D60B1
:1048D00008F1040846E1D8F80010EA17C1E90052CF
:1048E000F6E7D8F800100D80F2E70D70F0E718F841
:1048F000041B8DF8001000208DF80100EB4601200C
:1049000003E058F804BB4FF0FF3061074FF000019F
:1049100002D40DE009F101018946B9420FDA81455F
:10492000F8DB1BF809100029F4D108E009F10101B6
:1049300089468142FADB1BF809100029F6D1039859
:104940005346A0EB090721463846179A00F080FA33
:10495000284400EB090507E044E008E10DE01BF8FE
:10496000010B524617999047B9F10109F7D2534606
:1049700021463846179AF2E039E00A21C4F3025280
:104980004FF0000B0091022A06D058F8040BC11713
:10499000032A09D00AE023E008F1070020F007020B
:1049A000F2E80201904605E000B2C117042A01D1E5
:1049B00040B2C117002906DA0A460021404261EBE5
:1049C00002012D2202E0220504D52B228DF80420BD
:1049D000012203E0E20701D02022F7E7914657E0E9
:1049E0000A2100E010214FF0000B00910BE0102194
:1049F0004FF0000B44F004040827009103E0082066
:104A00004FF0000B0090C4F30252022A05D058F870
:104A1000040B0021032A08D008E008F1070020F069
:104A20000702F2E80201904603E080B2042A00D1B6
:104A3000C0B24FF0000922072AD53278702A07D079
:104A4000DDF800C08CF0100C5CEA0B0C05D00EE019
:104A500040228DF80420012208E050EA010306D02C
:104A600030238DF804308DF8052002229146009BFA
:104A700083F0080353EA0B030AD150EA010201D183
:104A8000620705D530228DF804204FF001097F1E02
:104A90003278582A04D039A20C920CAA02920BE068
:104AA0003BA2F9E75B46009AFBF7B4FB0C9B9B5CCF
:104AB000029A521E0292137050EA0102F2D1029839
:104AC00004A9081A00F1200B600702D524F48034F1
:104AD00000E001275F4502DDA7EB0B0000E00020AE
:104AE00000EB0B01009003984944401A0390E00347
:104AF00006D453462146179A039800F0A9F90544B5
:104B0000002706E001A85246C05D179990476D1C2A
:104B10007F1C4F45F6DBE0030CD553462146179A20
:104B2000039800F095F9054404E0302052461799A7
:104B300090476D1C0099481E00900029F5DC08E0A4
:104B40000298029952460078491C029117999047A1
:104B50006D1CBBF10001ABF1010BF1DC5BE100F07E
:104B600065F90544761C307800287FF40DAE19B045
:104B70002846BDE8F08F00000928010030313233AB
:104B80003435363738396162636465660000000089
:104B90003031323334353637383941424344454673
:104BA00000000000600700D4062708F1070020F08D
:104BB0000700F0E80223804603F0004C5FEA0C0097
:104BC00001D097A009E0200501D596A005E0E007F7
:104BD00001D095A001E0AFF24C001390307823F0A3
:104BE000004365280CD006DC452809D046281DD096
:104BF00047287FD13BE0662818D067287AD136E075
:104C00000021112F01DB112000E0781CCDE900010B
:104C100004A90CA8FFF7EEFCDDE90D010C9A4FF09A
:104C2000000B07F10109109200914EE04FF0004097
:104C30000097CDE9011004A90CA8FFF7DBFCDDE922
:104C40000D020C9B0F994FF0000B914610930092B0
:104C500011B9791C00EB0109B7EB090003D4C0F1CD
:104C6000FF3B07F10109A9EB0700019042E0012F8A
:104C700000DA01270021112F01DD112000E0384664
:104C8000CDE9000104A90CA8FFF7B4FCDDE90D0192
:104C90000C9A00914FF0000BB946109221070FD4E7
:104CA000009A4A4503DA914601E0A9F10109B9F1F8
:104CB000010F05DD109AA9F10101515C3029F4D0F2
:104CC000B84202DA10F1040F03DA0121CDE9011034
:104CD00010E0002803DC8344A9EB000102E0411C42
:104CE000494500DD8946A0EB0B00401C01904FF0C8
:104CF00000400290200705D40198484502DB4FF0A0
:104D0000FF30019000208DF84B0002980DF14B0709
:104D1000B0F1004F25D002200C902B200D9002986E
:104D200000280CDA404202902D200D9007E00A2165
:104D30000298FBF791FB3031029007F8011D0C99A6
:104D4000481E0C900029F2DC02980028EFD1791E51
:104D50000D980870307800F0200040F0450007F80A
:104D6000020D11A8C01BC01D02901398007800B15D
:104D7000012000EB0901019801EBE0710298014468
:104D80000398401A401E0390E00306D45346214680
:104D9000179A039800F05CF805441398007818B14E
:104DA0005246179990476D1CE00323D55346214680
:104DB000179A039800F04CF805441BE0BBF1000F74
:104DC00007DB0098584504DD1098179910F80B0080
:104DD00001E0179930205246904701980BF1010BE2
:104DE000401E05F10105019004D12E20524617996D
:104DF00090476D1CB9F10001A9F10109DEDC05E065
:104E000017F8010B5246179990476D1C0299481EDE
:104E100002900029F4DC53462146179A03989EE637
:104E20002D0000002B000000200000002DE9F041C3
:104E3000044600251E461746880404D405E039467A
:104E40002020B0476D1C641EF9D52846BDE8F081CE
:104E50002DE9F041044600251E469046C80301D5C1
:104E6000302700E02027880404D505E04146384675
:104E7000B0476D1C641EF9D52846BDE8F0810A686C
:104E8000531C0B601070704770B538490A22072810
:104E90000C784D788B7825D2DFE800F024041425B7
:104EA00035465600B4FBF2F0401CC0B20A2800D1CF
:104EB0000020B4FBF2F302FB134200EB800002EB94
:104EC00040000EE0B4FBF2F002FB1040401CC0B208
:104ED0000A2800D10020B4FBF2F202EB820200EBC0
:104EE0004200087070BDB5FBF2F0401CC0B20A2849
:104EF00000D10020B5FBF2F302FB135200EB80005F
:104F000002EB40000EE0B5FBF2F002FB1050401C3B
:104F1000C0B20A2800D10020B5FBF2F202EB8202F7
:104F200000EB4200487070BDB3FBF2F0401CC0B211
:104F30000A2800D10020B3FBF2F402FB143200EB8C
:104F4000800002EB40000EE0B3FBF2F002FB1030F9
:104F5000401CC0B20A2800D10020B3FBF2F202EBE1
:104F6000820200EB4200887070BD0000110000203A
:104F700002494FF47F400860FEF7A6BA14080048C3
:104F800010B51E4C2DED028B6078A0B394ED030A92
:104F9000DFED1B0A20EE200A10EE100AFBF714FAD0
:104FA00041EC180B00F0F4F8FBF701FA9FED151B2C
:104FB00053EC112BFBF778F99FED141B53EC112BDD
:104FC000FBF772F953EC182BFBF712FA13D20120FE
:104FD0002071E07848B10F494FF47E400860BDEC85
:104FE000028BBDE81040FEF76FBABDEC028BBDE846
:104FF0001040FFF7BDBF00202071F6E70800002039
:10500000333353406666666666660A4000000000F9
:105010000000303F14080048002100E0491C814294
:10502000FCD370470348807808B100F005B800F061
:1050300077B800000800002010B500F0A9F8FBF7D1
:10504000B6F99FED1A1B53EC112BFBF72DF99FEDD1
:10505000191B53EC112BFBF727F941EC100B17A18F
:1050600053EC102B1B48FFF791FA1A493020FDF73B
:1050700077FF194CE068FBF7A7F941EC100B17A17B
:1050800053EC102B1348FFF781FA12494820FDF723
:1050900067FF607808B116A100E01BA16020FDF752
:1050A0005FFFBDE81040FEF711BC00006666666653
:1050B00066660A40000000000000303F20205631A4
:1050C0003A252E3266562020202020202020202025
:1050D00000000000340000200800002020206B3A6F
:1050E000252E316620202020202020202020000096
:1050F00020204C45443A4F4E2020202020202020C4
:10510000202020200000000020204C45443A4F463B
:1051100046202020202020202020202000000000E9
:1051200008B50CA13020FDF71BFF4820FDF7B4FEA9
:105130006020FDF7B1FE0D48817800914378027838
:105140000BA11248FFF722FABDE808400F4978206A
:10515000FDF706BF20202020202053657474696E5F
:1051600067202020202020200000000011000020C7
:105170002020202020253032642D253032642D253A
:105180003032642020202020202000003400002025
:1051900010B50848FCF77CF802210648FBF7FEFF33
:1051A0000448FBF7CBFE84B20248FCF7EBF820463C
:1051B00010BD00009000002070B53F4C3F4EA0781D
:1051C00018BB042135463046FCF768FB38B14FF078
:1051D000904501212846FCF761FBB8B127E0052086
:1051E000FCF766FA04212846FCF758FB68B9607999
:1051F000401CC0B26071072801D1012060710421F8
:105200002846FCF74BFB0028F9D010E00520FCF7FE
:105210004FFA01212846FCF741FB40B96079FFF7BE
:1052200033FE01212846FCF739FB0028F9D0012183
:1052300035463046FCF732FB88B102212846FCF7A0
:105240002DFB00281ED10520FCF732FA022128464A
:10525000FCF724FB002815D1A078B0B120E0052090
:10526000FCF726FA01212846FCF718FB002809D193
:10527000607840B10020607001212846FCF70EFBE9
:105280000028F9D070BD0120F5E70B4B0021093350
:10529000DA1E5E5C5654491CC9B20229F9D940B1E4
:1052A0000020A07002212846FCF7F8FA0028F9D067
:1052B00070BD0120F5E70000080000200004004850
:1052C000FCF704FBFEF7A0FBFEF724F8FDF7FCFF5C
:1052D000FDF7BCFFFEF7C2F8FEF77CF8FDF782FE93
:1052E0000020FDF7C7FD4FF6FF70FDF7E9FE002037
:1052F000FDF7D2FE00F01FF8322207490748FDF7FC
:1053000063FC06480068016841F01001C0F8001015
:1053100000F006F8FCE700005C00002024010020FB
:1053200010B5FFF749FFFFF72BFEFFF77BFEBDE847
:10533000104000F009B810B5FFF71AFE0121BDE8D2
:105340001040084600F082B870B58CB000220AA95F
:105350002F48FDF73BF8002205A92D48FDF75AF824
:105360002C4CA01D217869B1012909D18178002038
:105370003B2948D09DF81620491C8A4200D1207054
:105380000CB070BD9DF8141002789142F8D19DF8D0
:10539000151042789142F3D19DF816108078814221
:1053A000EED1E068FBF710F80E460546FFF7F0FE79
:1053B000FAF7FDFF9FED181B53EC112BFAF774FF62
:1053C0009FED171B53EC112BFAF76EFF41EC100BFE
:1053D0009DF815109DF814209DF81600CDE90221C6
:1053E000CDE90056049053EC102B0FA11548FFF7A0
:1053F000CDF81448FAF751FF82B212491248FDF76E
:1054000037FC0120BBE79DF816100029B7D0B7E79D
:10541000FC000020080000206666666666660A409A
:10542000000000000000303F252E32662B252E3173
:10543000662B2530326425303264253032640D0A03
:1054400000000000480000202401002070B50D4637
:105450000446FDF783FCA020FDF759FCFDF7B4FCE2
:105460002046FDF754FCFDF7AFFC2846FDF74FFC46
:10547000FDF7AAFCBDE87040FDF78BBC0000000002
:10548000000000000000000000000000000000001C
:10549000000000000000000000000000000000000C
:1054A000000000000000000000000000000080017B
:1054B00080018001800180018001800180018001E4
:1054C00080018001800180010000000080018001D6
:1054D00000000000000000000000000000000000CC
:1054E000CC00CC00CC00CC00CC00CC0000000000F4
:1054F00000000000000000000000000000000000AC
:10550000000000000000000000000000000000009B
:105510000000000000000000600C600C600C300611
:105520003006FE1FFE1F300638071803FE1FFE1F41
:10553000180318038C018C018C010000000080000E
:10554000E003F80F9C0E8C1C8C188C009800F8015E
:10555000E007800E801C8C188C189C18B80CF00F7B
:10556000E003800080000000000000000000000058
:1055700000000E181B0C110C11061106110311036B
:105580009B018E01C038C06C60446044304430449C
:105590001844186C0C380000000000000000E00106
:1055A000F0033807180618063003F001F000F80081
:1055B0009C310E33061E061C061C063FFC73F021B0
:1055C00000000000000000000000000000000000DB
:1055D0000C000C000C000C000C000C000000000083
:1055E00000000000000000000000000000000000BB
:1055F00000000000000000000000000000000002A9
:1056000000038001C000C000600060003000300076
:1056100030003000300030003000300060006000AA
:10562000C000C00080010003000200000000200054
:105630006000C00080018001000300030006000636
:105640000006000600060006000600060003000330
:1056500080018001C0006000200000000000000008
:105660000000000000000000C000C000D806F807DD
:10567000E0013003380700000000000000000000D7
:10568000000000000000000000000000000000001A
:105690000000000000000000800180018001800106
:1056A0008001FC3FFC3F800180018001800180017E
:1056B00000000000000000000000000000000000EA
:1056C00000000000000000000000000000000000DA
:1056D0000000000000000000000000000000800149
:1056E00080010001000180000000000000000000B7
:1056F00000000000000000000000000000000000AA
:1057000000000000E007E0070000000000000000CB
:105710000000000000000000000000000000000089
:105720000000000000000000000000000000000079
:105730000000000000000000000000000000C000A9
:10574000C000000000000000000000000000000C8D
:10575000000C00060006000600030003000380039F
:10576000800180018001C000C000C00060006000B6
:105770000000000000000000000000000000E00346
:10578000F007380E180C0C180C180C180C180C1804
:105790000C180C180C180C18180C380EF007E00335
:1057A00000000000000000000000000000000001F8
:1057B0008001C001F0019801880180018001800111
:1057C00080018001800180018001800180018001D1
:1057D0000000000000000000000000000000E003E6
:1057E000F80F180C0C180C1800180018000C000604
:1057F00000038001C000600030001800FC1FFC1F87
:105800000000000000000000000000000000E001B7
:10581000F807180E0C0C0C0C000C0006C003C00797
:10582000000C001800180C180C18180CF807E003EE
:105830000000000000000000000000000000000C5C
:10584000000E000F000F800DC00C600C600C300CBF
:10585000180C0C0CFC3FFC3F000C000C000C000C66
:105860000000000000000000000000000000F80F31
:10587000F80F180018000C00EC03FC071C0E001CAD
:105880000018001800180C181C0C180EF807E0037C
:105890000000000000000000000000000000C00741
:1058A000F00F381C181818000C00CC03EC0F3C0E3D
:1058B0001C1C0C180C180C18181C380EF007E003F0
:1058C0000000000000000000000000000000FC1FBD
:1058D000FC1F000C00060006000380038001C001CD
:1058E000C000E00060006000700030003000300058
:1058F0000000000000000000000000000000E003C5
:10590000F007380E180C180C180C3806F007F007C2
:10591000180C0C180C180C180C18380CF80FE003A5
:105920000000000000000000000000000000E00394
:10593000F007380E1C0C0C180C180C181C1C381E08
:10594000F81BE0190018000C000C1C0EF807F00101
:105950000000000000000000000000000000000047
:105960000000000000000000800180010000000035
:105970000000000000000000000000008001800125
:105980000000000000000000000000000000000017
:105990000000000000000000800180010000000005
:1059A00000000000000000000000000080018001F5
:1059B0000001000180000000000000000000000065
:1059C0000000000000000000000000000010001CAB
:1059D000800FE003F8001800F800E003800F001CBF
:1059E00000100000000000000000000000000000A7
:1059F000000000000000000000000000F81F000090
:105A000000000000F81F000000000000000000007F
:105A10000000000000000000000000000000000086
:105A20000000000000000000000000000800380036
:105A3000F001C007001F0018001FC007F001380068
:105A40000800000000000000000000000000E0036B
:105A5000F80F180C0C180C180018000C00060003A6
:105A60008001C000C000C00000000000C000C000F5
:105A70000000000000000000000000000000000026
:105A8000E00718180420C229224A11440944094495
:105A9000094409221113E20C024004201818E007FF
:105AA0000000000000000000000000000000800373
:105AB0008003C006C006C006600C600C30183018A9
:105AC0003018F83FF83F1C700C600C6006C006C030
:105AD0000000000000000000000000000000FC03C7
