:020000040800F2
:1000000068060020F10100080F2F000817270008DC
:100010000D2F0008D10700087D46000800000000F1
:10002000000000000000000000000000C9320008CD
:100030005108000800000000112F0008CD32000810
:100040000B0200080B0200080B0200080B0200085C
:100050000B0200080B0200080B0200080B0200084C
:100060000B0200080B0200080B020008D50700086D
:10007000E10700080B0200080B0200080B02000851
:100080000B020008000000000B0200080B02000831
:100090000B0200080B0200080B0200080B0200080C
:1000A000B53300080B0200080B0200080B02000821
:1000B000C13300080B0200080B0200080B02000805
:1000C0000B0200080B0200080B0200080B020008DC
:1000D0000B020008714600080B0200080B02000822
:1000E0000B0200080B0200080B0200080B020008BC
:1000F0000B0200080B0200080B02000800000000C1
:10010000000000000B020008000000000B020008C5
:100110000B020008000000000B0200080B020008A0
:100120000B0200080B0200080B0200080B0200087B
:100130000B02000800000000000000000B02000895
:100140000B0200080B020008000000000000000085
:10015000000000000000000000000000000000009F
:100160000000000000000000000000000B0200087A
:100170000B0200080000000000000000000000006A
:10018000000000000B02000800000000000000005A
:10019000000000000000000000000000000000005F
:1001A00000000000000000000B0200080B02000825
:1001B0000B0200080B0200080B0200080000000000
:1001C000000000000B02000800000000000000001A
:1001D0000B0200080B020008DFF810D000F0E6FA6E
:1001E0000048004721550008AFF300806806002052
:1001F0000648804706480047FEE7FEE7FEE7FEE7C1
:10020000FEE7FEE7FEE7FEE7FEE7FEE799330008BC
:10021000D90100082DE9F05F0546002092469B4673
:1002200088460646814640241BE02846414647460C
:10023000224600F00CFA53465A46C01A914110D398
:1002400011461846224600F0F3F92D1A67EB010813
:100250004F4622460120002100F0EAF917EB000981
:100260004E41201EA4F10104DFDC484631462A46F7
:100270004346BDE8F09FD2B201E000F8012B491ED1
:10028000FBD270470022F6E710B513460A46044633
:100290001946FFF7F0FF204610BD421C10F8011B65
:1002A0000029FBD1801A70472DE9FE4F804681EA74
:1002B0000300C00F0C46009021F0004123F00045E0
:1002C000B8EB0200A94105D24046214690461C46A3
:1002D0000B46024623F00040104347D0270DC7F3DA
:1002E0000A00C3F30A510290401A019040286BDAC9
:1002F000C3F3130040F4801B0098924620B1002302
:10030000D2EB030A63EB0B0B01985946C0F1400294
:10031000504600F08DF906460D4650465946019A62
:1003200000F0A5F910EB08006141002487EA1152A2
:1003300084EAE7731A4340D0009A62B3019A012A13
:100340004FEA075215DC001B61EB02014FF000423F
:1003500002EA0752CDE90042001C41F58011324605
:100360002B4600F0A5F903B0BDE8F08F40462146CA
:10037000F9E7001B61EB0201001C41F58013001836
:100380005B412018A2F5001747EB030140EAD57046
:10039000B6196D4111E06D084FEA360645EAC075A1
:1003A0004FEA0752001B61EB0201001C41F580116E
:1003B00049084FEA30000019514132462B4603B03C
:1003C000BDE8F04F00F065B900980122400000231D
:1003D000D0EB020263EBE073009821464FEAE07431
:1003E000B8EB000061EB0401E9E783F000435BE751
:1003F00081F0004158E72DE9FE4F81EA030404F043
:10040000004421F0004100944FF0000B23F0004322
:1004100050EA01045ED052EA03045BD0C3F30A54ED
:10042000C1F30A552C44A4F2F3340194A0FB025406
:10043000C1F3130141F48011C3F3130343F4801398
:1004400001FB024400FB034E840A970A44EA8154EC
:1004500047EA8357A4FB076802958D0A05FB0785C9
:100460004FEA932C04FB0C542705029D4FEA0658D3
:1004700047EA1637B5EB08056EEB070C870E920EB0
:1004800047EA811742EA8312A7FB0201B6EB0B0190
:1004900064EB00042B0D43EA0C335E1844EB1C5054
:1004A000DA465146E7FB0201C5F313044FEA0B336A
:1004B00043EA14534FEA0432019C43EA0603A4F1D1
:1004C0000C040294009CCDE900B400F0F1F803B0F4
:1004D000BDE8F08F00200146F9E72DE9F04D81EAF3
:1004E000030404F0004B21F0004514464FF0000ACD
:1004F00023F0004150EA050220D054EA01021DD049
:10050000C5F30A570246C5F31303C1F31300C1F341
:100510000A5640F4801543F48013A7EB0608101B1D
:10052000D64608F2FD3873EB050002D308F1010846
:1005300001E092185B41B8F1000F03DA0020014698
:10054000BDE8F08D00204FF48011064684460EE091
:10055000171B73EB050705D3121B63EB050306435B
:100560004CEA010C49084FEA300092185B4150EA0E
:100570000107EDD152EA030012D082EA040083EAB7
:100580000501084305D0101BAB4106D20122002310
:1005900006E000224FF0004302E06FF0010253102A
:1005A0001AEB06004CEB085110EB0A0041EB0B0173
:1005B000BDE8F04D00F06DB80EB540F23341029148
:1005C0000021CDE900110A460B4600F071F803B096
:1005D00000BDC1F30A5210B5C1F3130140F2FF335D
:1005E00041F480119A4201DA002010BD40F23343F9
:1005F0009A42A2F2334203DC524200F028F810BDC6
:10060000904010BD30B50B46014600202022012449
:1006100009E021FA02F59D4205D303FA02F5491BD0
:1006200004FA02F52844151EA2F10102F1DC30BDE6
:10063000202A04DB203A00FA02F1002070479140A2
:10064000C2F1200320FA03F3194390407047202A97
:1006500004DB203A21FA02F00021704721FA02F36C
:10066000D040C2F120029140084319467047202A29
:1006700006DBCB17203A41FA02F043EAE07306E0CA
:1006800041FA02F3D040C2F12002914008431946DA
:10069000704710B5141E73F1000408DA401C41F1D4
:1006A000000192185B411A4301D120F0010010BDF6
:1006B0002DE9F04D92469B4611B1B1FA81F202E06C
:1006C000B0FA80F220329046FFF7B2FF04460F46A0
:1006D00040EA0A0041EA0B0153465A46084313D048
:1006E000114653EA010019D0C8F140025046FFF705
:1006F000AEFF05460E46504659464246FFF798FF64
:10070000084305D0012004E020463946BDE8F08DBD
:100710000020054346EAE0762C4337430A986305F8
:10072000E40AA0EB08000022FD0A44EA47540A301C
:1007300002D500200146E9E7010510196941DDE90C
:10074000084500196941BDE8F04DA2E7C1F30A521E
:10075000C1F3130140F2FF3341F480119A4202DAEF
:1007600000200146704740F233439A42A2F23342DE
:1007700002DC5242FFF76BBFFFF75ABF30B5041ED1
:1007800071F1000404DB4FF00044404264EB0101CE
:10079000141E73F1000405DB1C464FF00043524267
:1007A00063EB0403994208BF904230BD064C074DED
:1007B00006E0E06840F0010394E807009847103431
:1007C000AC42F6D3FFF70CFDBC690008DC690008F9
:1007D000FEE70000014800F087B80000A4010020F7
:1007E000014800F081B80000040200200D490268B1
:1007F0008A4201D20C4901E00B492031D2B21423C4
:10080000083AB2FBF3F2436C02F01F0223F0030339
:100810001944816404498031C1640121914001651A
:100820007047000008040240000802400179074AAE
:1008300002EB81024265054A4432491E826501F09D
:100840001F0201219140C16570470000FC08024071
:100850007047002240F6B83306E00021491C89B2F7
:100860009942FBD3521C92B28242F6D37047704732
:1008700070B590F82520002401212346022A07D0D4
:100880000422C26380F8251080F82430012429E076
:100890000268156825F00E0515600268156825F0D8
:1008A00001051560826C156825F48075156090F857
:1008B0004420056C02F01F0201FA02F26A60D0E9DE
:1008C00013255560426D32B1156825F480751560A9
:1008D000D0E91625556080F8251080F82430816B0A
:1008E00001B18847204670BDF0B4016C0C68016806
:1008F0000D6890F8442002F01F06042202FA06F365
:10090000234211D06B070FD50B689B0603D40B68ED
:1009100023F004030B6090F8441001F01F018A409B
:10092000016C4A60016B1DE0022303FA06F72742BF
:100930004FF0000C4FF0010218D0AF0716D50C682D
:10094000A40605D40C6824F00A040C6080F8252065
:1009500090F8441001F01F018B40016C4B6080F84F
:1009600024C0C16A00291AD0F0BC08470823B3404C
:10097000234214D02B0712D50B6823F00E030B6013
:1009800090F84410036C01F01F0102FA01F1596064
:10099000C26380F8252080F824C0416BE2E7F0BCF8
:1009A0007047000070B504000CD02B4A2168142059
:1009B000914209D2294A0A44B2FBF0F080006064F7
:1009C00027480AE0012070BD234A52420A44B2FB84
:1009D000F0F080006064204808382064022084F829
:1009E00025000A6847F6F0708243D4E902031843F1
:1009F000D4E904352B431843A3691843E36918432A
:100A0000236A1843104308602046FFF7EFFEA068F2
:100A10000025B0F5804F00D16560A16C2079086099
:100A2000D4E9130141606068401E032808D82046BD
:100A3000FFF7FCFE606D0560D4E91601416002E03D
:100A40006565A565E565E563012084F8250084F802
:100A50002450002070BD000008040240F8FFFDBFD4
:100A60000000024070B5044600F0FCF80546601C2A
:100A700002D004484068044400F0F4F8401BA0424F
:100A8000FAD370BD280000202DE9FC4FDFF8A0A1AB
:100A9000002301250AF1040B03244FF00F0C0BF186
:100AA000040EBDE005FA03F632406FD04F68012F07
:100AB00005D0022F03D0112F01D0122F17D1D0F85B
:100AC00008905F0004FA07F829EA08090097D1F8AE
:100AD0000C8008FA07F848EA0908C0F80880476857
:100AE000B7430E79C6F300169E403E434660C66883
:100AF0004FEA430804FA08F7BE4301978F6807FAE4
:100B000008F73743C7604E68022E01D0122E13D16A
:100B1000DE0800EB86060096366A5F07FF0E0CFAC9
:100B200007F926EA0906D1F8109009FA07F949EA07
:100B30000609009EC6F820900668019FBE430F7903
:100B400007F0030707FA08F7374307604E68F60017
:100B500065D5384E376E47F001073766366E23F09D
:100B6000030706F001060096334E3E44B146B668D0
:100B70009F074FEA17780CFA08F7BE43B0F1904F81
:100B800005D02E4FB84204D1012717E047E00027D7
:100B900014E02B4FB84201D102270FE0294FB84291
:100BA00001D103270AE0284FB84201D1042705E00C
:100BB000264FB84201D1052700E0062707FA08F7BB
:100BC0003743C9F80870DAF800605746D1F8048056
:100BD00096435FEAC83800D516433E60DBF80060F4
:100BE0005F46D1F8048096435FEA883800D5164303
:100BF0003E60DEF800607746D1F8048096435FEAF5
:100C0000C82800D516433E60094F0C373E68D1F81E
:100C1000048096435FEA882800D516433E605B1C3B
:100C20000A6832FA03F67FF43DAFBDE8FC8F00009E
:100C30000004014000100240000001400004004890
:100C400000080048000C004800100048001400484C
:100C50000069084000D0012070470AB181617047E7
:100C600081627047014880687047000028000020BA
:100C70000248816842681144816070472800002062
:100C800010B50024032000F077F8002000F008F8E9
:100C900008B1012401E000F025F8204610BD000055
:100CA00070B50E4E05460024706898B14FF47A7105
:100CB000B1FBF0F00A490968B1FBF0F000F060FD0B
:100CC00040B9102D06D200222946501E00F034F8FB
:100CD000356000E00124204670BD0000280000209F
:100CE000340000200B4808B5016E41F00101016697
:100CF000016E01F001010091816D41F0805181652B
:100D0000806D00F0805000900348816841F480417C
:100D1000816008BD0010024000700040002809DB1F
:100D200000F01F02012191404009800000F1E02005
:100D3000C0F8001170470000F0B40E4B1B680C4661
:100D4000C3F30223C3F10705042D00D90425191D9F
:100D5000072901D2002300E0DB1E012606FA05F177
:100D6000491E214099409E40761E16403143F0BCFA
:100D700003F09ABC0CED00E0064900F00702086899
:100D80004FF6FF03184040EA0220034A1043086070
:100D9000704700000CED00E00000FA052B492C4BD9
:100DA0000A6832214A432B4940B1B0F5007F0868F8
:100DB00029D020F4C06040F480602CE00868C0F3C3
:100DC0004120022804D051F8800F20F4807022E0E6
:100DD000D1F8800020F48070C1F88000086820F409
:100DE000C06040F400700860B2FBF3F0401C00E00B
:100DF000401E4A69520501D50028F9D148694005CD
:100E00000AD503207047C0F34120022806D051F8CC
:100E1000800F40F48070086000207047D1F8800097
:100E200040F48070C1F88000086820F4C06040F48D
:100E300000700860B2FBF3F0401C00E0401E4A69FD
:100E40005205DBD50028F9D1D8E700003400002096
:100E500040420F00007000402DE9F843044600684E
:100E600000269D4D00035ED5A86D0027C00008D464
:100E7000A86D40F08050A865A86D012700F0805053
:100E80000090DFF85892D9F8001041F48071C9F849
:100E90000010FFF7E7FE804606E000BFFFF7E2FE26
:100EA000A0EB080002282BD8D9F80000C005F5D522
:100EB000D5F8900010F4407014D0216C814211D00C
:100EC000D5F89000D5F8901020F4407041F48031AE
:100ED000C5F89010D5F8901021F48031C5F8901025
:100EE000C5F89000C00711D0FFF7BCFE804641F264
:100EF000883907E0FFF7B6FEA0EB0801494501D9A4
:100F000003260BE0D5F890008007F3D5D5F89000C4
:100F1000216C20F440700843C5F890001FB1A86D03
:100F200020F08050A8652078C00707D0D5F8880049
:100F3000616820F003000843C5F888002078800726
:100F400007D5D5F88800A16820F00C000843C5F843
:100F500088002078400707D5D5F88800E16820F0A0
:100F600030000843C5F888002078000707D5D5F879
:100F70008800216920F0C0000843C5F88800207867
:100F8000800607D5D5F88800616920F440600843E1
:100F9000C5F888002078400607D5D5F88800A169F3
:100FA00020F440500843C5F888002078000607D593
:100FB000D5F88800E16920F440400843C5F888006E
:100FC0002088C00507D5D5F88800216A20F4403074
:100FD0000843C5F888002088800507D5D5F8880023
:100FE000616A20F440200843C5F888002088400545
:100FF0000FD5D5F88800A16A20F440100843C5F841
:101000008800A06AB0F5801F03D1E86840F4801022
:10101000E860208800050FD5D5F88800E16A20F443
:1010200040000843C5F88800E06AB0F5800F03D19E
:10103000E86840F48010E8602088C0040FD5D5F837
:101040008800216B20F040700843C5F88800206BB1
:10105000B0F1807F03D1E86840F48010E860208818
:101060004FF0006180040ED5D5F88800626B20F047
:1010700040601043C5F88800606B884203D1E8687F
:1010800040F48010E860208840040ED5D5F8880030
:10109000A26B20F040601043C5F88800A06B884226
:1010A00003D1E86840F48010E860208800040FD580
:1010B000D5F88800E16B20F040500843C5F888005F
:1010C000E06BB0F1805F03D1E86840F48030E86005
:1010D0003046BDE8F8830000001002400070004078
:1010E0002DE9F0470E4605004FF0000725D0DFF848
:1010F000AC81D8F8000000F00F00B0420CD2D8F854
:10110000001021F00F013143C8F80010D8F800009A
:1011100000F00F00B04210D12968614CC80741F2BD
:10112000883A5AD06868DFF87C91032808D00228F2
:1011300020682DD0400500282CDB0120BDE8F08779
:1011400020688001F9D5E06800F00302E068C0F390
:101150000310401C032A19D0534A00BFB2FBF0F021
:10116000E268C2F306225043E268C2F34162521CB5
:101170005200B0FBF2F0484517D9A06810F0F00F0C
:101180000CD0880711D5A86840B10EE0474AE5E7C2
:101190008003D0E700F0B6F8484506D9A06820F0F3
:1011A000F00040F08000A0608027A068696820F00F
:1011B00003000843A060FFF755FD814606E000BF2D
:1011C000FFF750FDA0EB090151453AD8A0686968C6
:1011D00000F00C00B0EB810FF2D12868810714D524
:1011E000400703D5A06840F4E060A06028780007BD
:1011F00005D5A06820F4605040F4E060A060A068CD
:10120000A96820F0F000084304E0802F03D1A06813
:1012100020F0F000A060D8F80010404601F00F0167
:10122000B14216D9016821F00F0131430160FFF787
:1012300019FD074607E000BFFFF714FDC11B51452C
:1012400001D903207AE7D8F8000000F00F00B0427F
:10125000F2D12878400705D5A068E96820F4E0605D
:101260000843A0602878000706D5A068296920F403
:10127000605040EAC100A06000F044F8A1680C4A48
:10128000C1F30311515C01F01F01C8400949086016
:1012900009480068BDE8F047FFF702BD00200240A2
:1012A0000010024000B4C4040024F40000366E01B3
:1012B000A4690008340000202800002005480649E1
:1012C00000688968054AC1F30221515C01F01F01E1
:1012D000C84070473400002000100240B469000884
:1012E0000548064900688968054AC1F3C221515C76
:1012F00001F01F01C8407047340000200010024078
:10130000B4690008184910B58868C0F3810217480D
:10131000012A0BD08A68164BC2F38102022A06D03A
:101320008A68C2F38102032A03D0002010BD184648
:1013300010BDCA6802F00304CA68C2F30312521C4B
:10134000032C02D0B0FBF2F001E0B3FBF2F0CA686C
:10135000C968C2F306225043C1F34161491C4900E8
:10136000B0FBF1F010BD0000001002400024F400BA
:1013700000366E012DE9F84304007AD02078FA4D4A
:10138000C00747D0A868E96800F00C0001F003012D
:101390000C2802D0082817D001E0032914D0606877
:1013A000B0F5803F17D0B0F5A02F286817D020F4F3
:1013B00080302860286820F4802028606068E0B1D0
:1013C000FFF750FC064614E02868800322D56068C9
:1013D0000028D2D01EE0286840F48030EDE740F4C9
:1013E00080202860F7E700BFFFF73CFC801B6428E3
:1013F00070D828688003F7D50CE0FFF733FC064669
:1014000005E000BFFFF72EFC801B6428F0D8286899
:101410008003F7D4207880074CD5A868E96800F0ED
:101420000C0001F003010C2802D004280DD001E0CB
:1014300002290AD0E068002828682BD040F4807088
:101440002860FFF70FFC064619E02868400502D522
:10145000E068002891D06868217C20F0FE4040EAD6
:1014600001606860C1480068FFF71AFC002800D1DD
:1014700020E076E1FFF7F6FB801B0228B8D8286849
:101480004005F7D56868217C20F0FE4040EA016005
:1014900068600FE020F480702860FFF7E3FB0646E9
:1014A00005E000BFFFF7DEFB801B0228A0D82868FC
:1014B0004005F7D42078000729D560690028D5F8C1
:1014C000940013D040F00100C5F89400FFF7CAFB68
:1014D000064606E090E000BFFFF7C4FB801B022831
:1014E00086D8D5F894008007F6D510E020F00100EA
:1014F000C5F89400FFF7B6FB064604E0FFF7B2FB21
:10150000801B022878D8D5F894008007F6D420787C
:10151000400761D5A86D0026C00008D4A86D40F032
:101520008050A865A86D012600F08050009090487A
:101530000168C90511D40168804641F480710160D9
:10154000FFF790FB074604E0FFF78CFBC01B022867
:1015500052D8D8F80000C005F6D5A068012815D0EB
:101560000528D5F8900016D020F00100C5F89000AD
:10157000D5F8900020F00400C5F89000A06841F272
:101580008838B8B1FFF76EFB07460EE0D5F890003B
:1015900040F00100F0E740F00400C5F89000F5E7E6
:1015A000FFF760FBC11B414526D8D5F890008007A6
:1015B000F6D50CE0FFF756FB074604E0FFF752FBB9
:1015C000C11B414518D8D5F890008007F6D41EB14C
:1015D000A86D20F08050A8652078800629D5A069E4
:1015E0000028D5F8980013D040F00100C5F8980005
:1015F000FFF738FB064606E077E000BFFFF732FB57
:10160000801B022877D8D5F898008007F6D510E01F
:1016100020F00100C5F89800FFF724FB064604E01F
:10162000FFF720FB801B022865D8D5F898008007BB
:10163000F6D4E069F0B3A968C1F38101032961D050
:101640000228286820F0807028600BD0E86820F01D
:101650000300E860E86847490840E860FFF702FBDC
:1016600004464BE0FFF7FEFA064604E0FFF7FAFAFD
:10167000801B02283FD828688001F7D4F4E90801CC
:101680006FF00F0202EB01110843218A520449084E
:1016900002EB4151A26841EA02210843217D4FF04B
:1016A0007E42490802EB41610843217B40EAC16068
:1016B000E96800E062E0304A11400843E8602868C9
:1016C00040F080702860E86840F08070E860FFF7C4
:1016D000C9FA044605E000BFFFF7C4FA001B022860
:1016E00009D828688001F7D548E004E0FFF7BAFA86
:1016F000001B022802D90320BDE8F8832868800176
:10170000F4D43BE00128F7D0E868226A00F0030136
:10171000914226D1616A00F0F0020901103991422C
:101720001FD1A26A00F4FE41B1EB022F19D194F847
:101730002C2000F07841B1EBC26F12D1218E00F461
:10174000C00249084905A1F50011914209D194F858
:10175000341000F0C06049084906A1F100718142CF
:101760000CD00120C8E70000001002402800002033
:1017700000700040FFFFEEFE0C809F010020BBE7E1
:1017800010B5401EB0F1807F01D3012010BD4FF095
:10179000E02460610F21601702F086FF0020A06145
:1017A00007202061002010BD7047704770477047C8
:1017B00070477047F0B590F83C20012A3AD00125D7
:1017C00080F83C50022280F83D2003685A689C68EB
:1017D000194E1A4FB34201D0BB4204D122F4700C0F
:1017E0004A6842EA0C02DFF858C002EA0C02D1F85B
:1017F00000C04CEA020CC3F804C00268B2420DD02B
:10180000B2F1804F0AD00F4B9A4207D00E4B9A424A
:1018100004D0BA4202D00D4B9A4204D1896824F018
:1018200080031943916080F83D50002180F83C10FE
:101830000846F0BD0220F0BD002C014000340140FC
:101840008FFFFFFD00040040000800400040014001
:10185000704710B5040003D094F83D0010B107E0C4
:10186000012010BD002084F83C00204600F022F842
:10187000022084F83D00211D206801F0A7FD012011
:1018800084F8480084F83E0084F83F0084F8400063
:1018900084F8410084F8420084F8430084F844004E
:1018A00084F8450084F8460084F8470084F83D0039
:1018B000002010BD10B586B0044614216846FEF71E
:1018C000E1FC21681E48B1F1804F29D01D4A9142A8
:1018D00024D1016E41F480310166016E01F4803142
:1018E0000591C16C41F00101C164C06C694600F012
:1018F0000100059004200090022001900020029039
:10190000039009200490C006FFF7BEF8002211469C
:101910001820FFF711FA1820FFF700FA06B010BDE3
:10192000816D41F001018165806D002200F00100B0
:10193000059011461C20FFF7FFF91C20ECE7000082
:10194000001002400040014070B5044690F83C0091
:10195000012815D0012584F83C50022084F83D0070
:1019600022689068354B184020F47F4090600868EA
:10197000B0F5805F50D010DC10F00F0F03D04BE0BB
:101980004FF0020070BD4FEA2012082A44D2DFE86F
:1019900002F05151515149323A1B294BC21A984217
:1019A00048D00ADCB0F5005F19D0B0F1101F41D06B
:1019B000A0F5801120392FD13CE0102A3AD0302AEE
:1019C00038D0402A28D135E0CB68D1E90121206800
:1019D00001F061FD2068816841F0770109E0CB6882
:1019E000D1E90121206801F056FD2068816841F4A9
:1019F0008041816010E0CA684968206801F044FFB6
:101A00005021206806E0CA684968206801F084FF18
:101A10006021206801F04AFD84F83D50002084F8E0
:101A20003C0070BDCA684968206801F02DFF402164
:101A30002068EFE7226801461046EBE788FFCEFFFB
:101A40003000100010B5007F0D4C01280DD0022889
:101A50000AD104210B4800F026FB64216061484351
:101A60002169B0FBF1F0607110BD0021054800F064
:101A70001AFB05492061B1FBF0F0E06010BD0000E9
:101A800008000020CC00002040420F002DE9F0416A
:101A9000054690F83C000C46012836D0012085F818
:101AA0003C008AB3042A42D02868082A51D0D4E9DD
:101AB0000023E168066A26F480560662C669076A52
:101AC00026F4407646EA03234FF6FF7606EA013114
:101AD00023F4704319434FF4204627F4204306EAC9
:101AE00002321A43C16102622868C16921F440616F
:101AF000C1612868C169A26841EA0221C161002070
:101B000085F83C00BDE8F08101E00220FAE7D4E965
:101B10000012E368286801F0C9FE2868816921F095
:101B20000C01816128688169A26811430FE0D4E942
:101B30000012E368286801F001FF2868816921F438
:101B40004061816128688169A26841EA022181615E
:101B5000D5E7D4E90027267B016A21F48071016270
:101B6000C169036A21F00301394321F0F00731070D
:101B70004FF4206647EA116123F4206306EA02224B
:101B80001A43C16102622868C16921F00C01C16178
:101B90002868C169A2681143B0E710B5040003D0FA
:101BA00094F83D0010B107E0012010BD002084F83A
:101BB0003C00204600F022F8022084F83D00211D60
:101BC000206801F003FC012084F8480084F83E00FE
:101BD00084F83F0084F8400084F8410084F8420013
:101BE00084F8430084F8440084F8450084F84600F3
:101BF00084F8470084F83D00002010BD704770B5A0
:101C00000446006801694FF00005C943890715D4EF
:101C1000C168C943890711D4E91E016101202077F9
:101C2000206880698007204602D0FFF70BFF04E0A0
:101C300000F00AF9204600F0C9F92577206801690B
:101C4000C943490717D4C168C943490713D46FF082
:101C500004010161022020772068806910F4407F30
:101C6000204602D0FFF7EEFE04E000F0EDF820463B
:101C700000F0ACF9257720680169C943090716D43B
:101C8000C168C943090712D46FF00801016104203B
:101C900020772068C0698007204602D0FFF7D2FE77
:101CA00004E000F0D1F8204600F090F92577206894
:101CB0000169C943C90617D4C168C943C90613D409
:101CC0006FF010010161082020772068C06910F4CE
:101CD000407F204602D0FFF7B5FE04E000F0B4F8E4
:101CE000204600F073F9257720680169C943C907C8
:101CF00008D1C168C943C90704D1891E01612046C2
:101D000000F0D0F920680169C943090609D4C16807
:101D1000C943090605D46FF0800101612046FFF731
:101D200044FD20680169C943C90509D4C168C94394
:101D3000090605D46FF4807101612046FFF734FD78
:101D400020680169C943490609D4C168C9434906E5
:101D500005D46FF040010161204600F0E4F92068ED
:101D60000169C943890609D4C168C943890605D4F4
:101D70006FF0200101612046FFF718FD206801691E
:101D8000C943C90209D4C168C943C90205D46FF463
:101D9000801101612046FFF70BFD20680169C943EE
:101DA000890209D4C168C943890205D46FF40011BE
:101DB00001612046FFF7FBFC20680169C943490225
:101DC00009D4C168C943490205D46FF48001016197
:101DD0002046FFF7EEFC20680169C94309020BD4D5
:101DE000C168C943090207D46FF4000101612046AC
:101DF000BDE87040FFF72CBD70BD000010B586B087
:101E0000044614216846FEF73DFA2068B0F1804F81
:101E100015D10C48C16C41F00101C164C06C694628
:101E200000F0010005900220009001900020029037
:101E30000390012004904FF09040FEF725FE06B07D
:101E400010BD000000100240704770B5044690F8C5
:101E50003C000D4601280BD0012084F83C000C2AE0
:101E600045D007DC5AB1042A1BD0082A78D12CE0CF
:101E7000022070BD102A4ED0142A71D15DE0206876
:101E800001F01EFB2068816941F008018161206832
:101E9000816921F004018161206881692A69114307
:101EA00011E0206801F05AFB2068816941F400616B
:101EB00081612068816921F4806181612068816984
:101EC0002A6941EA022181614AE0206801F08EFB23
:101ED0002068C16941F00801C1612068C16921F031
:101EE0000401C1612068C1692A69114311E02068B9
:101EF00001F0C4FB2068C16941F40061C161206840
:101F0000C16921F48061C1612068C1692A6941EA1F
:101F10000221C16124E0206801F0F8FB2068016D16
:101F200041F0080101652068016D21F0040101659F
:101F30002068016D2A69114311E0206801F01EFC40
:101F40002068016D41F4006101652068016D21F494
:101F5000806101652068016D2A6941EA02210165FD
:101F6000002084F83C0070BD10B5040003D094F844
:101F70003D0010B107E0012010BD002084F83C00B6
:101F8000204600F022F8022084F83D00211D206840
:101F900001F01CFA012084F8480084F83E0084F81F
:101FA0003F0084F8400084F8410084F8420084F83F
:101FB000430084F8440084F8450084F8460084F81F
:101FC000470084F83D00002010BD704770470000B6
:101FD00010B50446022269B1042912D0082917D08D
:101FE0000C291CD0102921D094F84300012824D0BA
:101FF000012010BD94F83E000128F9D184F83E205C
:102000001DE094F83F000128F2D184F83F2016E04B
:1020100094F840000128EBD184F840200FE094F8B8
:1020200041000128E4D184F8412008E094F84200FE
:102030000128DDD184F8422001E084F84320012208
:10204000206801F01BFA1149206888420BD0104922
:10205000884208D00F49884205D00F49884202D0F3
:102060000E49884203D1416C41F40041416420682B
:1020700081680B4A1140062906D0B1F5803F03D094
:10208000016841F001010160002010BD002C0140F9
:10209000003401400040014000440140004801403C
:1020A0000700010070470246002041B1042909D011
:1020B00008290AD00C2901D11068006C70471068FB
:1020C000406B70471068806B70471068C06B70473A
:1020D00070B5044690F83C00012812D0012584F820
:1020E0003C50022084F83D00204601F07FFB0100B7
:1020F0004FF0000007D084F83D5084F83C000120E8
:1021000070BD022070BD2168CA6822F04002CA601A
:102110002168CA6822F48042CA6084F83D5084F87D
:102120003C00002070BD704790F87C10012918D049
:10213000012180F87C102421C0F8801050F8601B29
:102140000A680B6823F001030B6022F000510022A3
:10215000426050F8603C196020210162027710460D
:10216000704702207047704770B5044690F87C00B5
:1021700001281DD0012084F87C002420C4F88000B0
:1021800020680568026822F0010202602068826807
:1021900022F060620A438260204601F0EBFB206877
:1021A00005602020C4F88000002084F87C0070BD09
:1021B000022070BD70B5044690F87C0001281DD047
:1021C000012084F87C002420C4F880002068056881
:1021D000026822F0010202602068826822F06042F8
:1021E0000A438260204601F0C5FB2068056020207C
:1021F000C4F88000002084F87C0070BD022070BD0F
:1022000070477047704700002DE9F04103680446AD
:10221000D8691A68996810F00F0F4FF0000569D05F
:102220005E4E02F490770E4037437DD0C70709D049
:10223000D70507D501271F62D4F8883043F0010382
:10224000C4F8883083070AD5CB0708D02768022353
:102250003B62D4F8883043F00403C4F88830430765
:102260000AD5CB0708D0276804233B62D4F888300E
:1022700043F00203C4F8883003070CD502F02003B2
:10228000334308D0266808233362D4F8883043F0FB
:102290000803C4F88830D4F88830002B3CD080067E
:1022A00009D502F0200001F08051084303D0E16E0F
:1022B00009B120468847D4F8880021688968490612
:1022C00001D400072AD5204601F024FC206881684B
:1022D00049061ED5816821F040018160A06FC0B120
:1022E0002F498163A06FFEF7C3FA002814D0A06FB6
:1022F000816B0AE0860617D502F0200601F08057B0
:102300003E4311D0E16E24E02046BDE8F04108478D
:102310000AE02046FFF776FFBDE8F0812046FFF790
:1023200071FFC4F88850F7E7C60209D54E0207D5F9
:102330004FF4801018622046BDE8F041FFF761BFFE
:10234000060609D502F0800601F400010E4303D011
:10235000216F0029D8D1DFE741060DD551060BD5F5
:102360001968204621F0400119602021C4F880102E
:10237000256700F0CFF9CFE7010206D5510004D55B
:102380002046BDE8F041FFF73BBFC001C4D5002A9D
:10239000C2DA2046BDE8F041FFF7E5BE01000010BB
:1023A000FF3A000810B5040003D0D4F8800010B143
:1023B00007E0012010BD002084F87C00204600F0DA
:1023C00027F82420C4F880002068016821F001016A
:1023D0000160204601F0B0FC0128EBD0A06A10B1EA
:1023E000204601F0F9FA2068416821F490414160EB
:1023F0002068816821F02A0181602068016841F02D
:10240000010101602046BDE8104001F049BB000019
:10241000F0B587B0064614216846FDF733FF2D4915
:102420003068884254D12C48016E41F480410166E5
:10243000016E01F480410591C16C41F00101C1645C
:10244000C06C002400F0010005904FF4C0600090C3
:102450000220CDE901040720CDE9034069464FF091
:102460009040FEF711FB1E4D1C4880272860182065
:10247000C5E90104C5E903476C61AC61EC6128461C
:102480002C62FEF78FFA08B1FEF7F1F9B567AE627C
:10249000134D12486035143028601920686005F12A
:1024A0000801102081E891006C61AC61EC61284664
:1024B0002C62FEF777FA08B1FEF7D9F975670022AA
:1024C00011462520AE62FEF737FC2520FEF726FCDC
:1024D00007B0F0BD00380140001002400800024083
:1024E000A401002070B5D0F88430202B6DD1B9B193
:1024F000B2B190F87C30012B67D0012380F87C309A
:102500008165A0F85C20A0F85E200021C166836888
:102510004FF48056FF24B34207D1036913B11CE086
:10252000012070BD40F2FF131DE07F259BB1B3F188
:10253000805F15D0A0F86010C0F888102223C0F882
:10254000843003689C6844F001049C60436EB3F1DE
:10255000005F0ED027E0036943B9A0F86040EBE7C5
:1025600003691BB13F23A0F86030E5E7A0F8605095
:10257000E2E7B0F86830934215D88268B24201D1E0
:10258000026972B1124AC26680F87C1001680A685A
:1025900042F480720A600068816841F08051816075
:1025A0000FE00C4AEFE78268B24201D1026952B1F2
:1025B000094AC26680F87C100068016841F4907195
:1025C0000160002070BD054AF3E7022070BD0000E5
:1025D000993C0008993B0008393C0008393B000849
:1025E00070B51C482DED028B82B000783F2827D1B2
:1025F000194C6078FDF7E0FF9FED188B53EC182B1A
:10260000FDF76BFF05460E462078FDF7D5FF53EC2E
:10261000182BFDF762FF41EC100B0E48CDE9005678
:1026200053EC102B0FA10A3002F02AF809480A30A7
:10263000FDF733FE074982B20A310E4800F01CF85C
:1026400002B00122BDEC028B0249BDE8704009488E
:10265000FFF748BF4C0000201000002000000000E1
:1026600000002440583A252E31662C593A252E3147
:10267000660D0A0018010020D0F88030202B3ED1D2
:1026800049B342B390F87C30012B38D0012380F855
:102690007C300165A0F85420A0F856200021016785
:1026A000C0F888102122C0F88020436E4FF4805279
:1026B000B3F1005F836810D0934201D10269E2B1A7
:1026C000104A026780F87C100068016841F08001C0
:1026D00001600020704701207047934201D10269D8
:1026E0004AB1094A026780F87C100068816841F4A9
:1026F00000018160EDE7054AF4E7054AE1E70220C1
:102700007047000079450008B945000821450008D8
:10271000DF4400087047FEE770B50824002500F08C
:102720009BFD13E06806050E002000F07DFD1420DF
:1027300002F0FEFC142002F0FBFC012000F074FD0E
:10274000142002F0F5FC00F07BFD0543641EE4B2AA
:10275000E8D2002000F068FD142002F0E9FC00F04F
:102760009DFD284670BD70B50446082516E000F0B2
:102770005BFD142002F0DCFC04F0800000F082FD20
:10278000142002F0D5FC6006040E142002F0D0FCE8
:10279000012000F049FD142002F0CAFC6D1EEDB2CC
:1027A0004FF00000E3D200F03FFDBDE87040142080
:1027B00002F0BEBC10B5012000F064FD142002F050
:1027C000B7FC012000F030FD142002F0B1FC002025
:1027D00000F058FD142002F0ABFC002000F024FDB6
:1027E000BDE81040142002F0A3BC10B5002000F09A
:1027F0001BFD142002F09CFC002000F043FD14207F
:1028000002F096FC012000F00FFD142002F090FC75
:10281000012000F037FDBDE81040142002F088BC14
:1028200010B5052400F018FD142002F081FC0120F1
:1028300000F0FAFC142002F07BFC05E0641EA4B258
:10284000142002F075FC6CB100F0FAFC0028F5D100
:1028500000F024FD002000F0E7FC142002F068FCEA
:10286000002010BD00F01AFDFFF7BFFF012010BDD2
:1028700000B585B014216846FDF704FD4FF6FF70E2
:10288000009000200321CDE9020101906946024831
:10289000FEF7FAF805B000BD0008004800B585B0A5
:1028A00014216846FDF7EEFC4FF6FF700090012002
:1028B0000190032003900020029069460248FEF731
:1028C000E3F805B000BD00000008004870B5002422
:1028D00006462146204600F003F900F041F94FF486
:1028E0009635304600F010F9641CAC42F9D370BD47
:1028F00030B587B014216846FDF7C4FC1E48C16C92
:1029000041F00401C164C16C01F004010591C16C86
:1029100041F00101C164C16C01F001010591C16C7C
:1029200041F00201C164C06C012500F00200059075
:102930004FF44870CDE900050024039469460294E1
:102940000E48FEF7A1F8280203940090CDE9015447
:102950004FF0904469462046FEF796F8FFF79EFF39
:10296000A06940F48070A06104481830016841F407
:102970000871016007B030BD00100240000400483B
:10298000203AD2B2034B02EB420203EB021200F0F8
:1029900019B80000D4570008F0B50E4607460025C8
:1029A00040F23F1407E021463846FFF7E9FF103CAC
:1029B0006D1CA4B2761C3278002A01D0142DF2D3FB
:1029C000F0BD00002DE9F04791468A4600260446F6
:1029D00000F086F8DFF84080012700BF00F0C0F863
:1029E0005FF0000539F8160007FA05F10842404685
:1029F00001D1408800E0008800F086F86D1C102DA1
:102A0000F0D3641CE4B25146204600F069F8761C0D
:102A1000182EE3D3BDE8F0870000002010B5FFF7C3
:102A200067FF002000F014F8084CA080A088A0F5F3
:102A30000241303906D000F0F5FA002000F008F825
:102A4000A08010BD00F065FAF7E70000000000204C
:102A500070B51D490A6842F400720A600A6842F4BF
:102A600080720A60184C103C226842F020022260FA
:102A7000164A1060086840F02000086000BF00BFE0
:102A800000BF206840F020002060206840F4807083
:102A90002060FFF7EDFE4FF09041886A40F48070AF
:102AA000886200BF00BF00BF0848001F006885B2F1
:102AB000886940F480708861FFF7F0FE206840F478
:102AC00000702060284670BD2804004814080048A3
:102AD00001B5BDF800000149488008BD0000002094
:102AE00010B50C460146202000F068F82146BDE8EC
:102AF0001040212000F062B801B5BDF80000014986
:102B0000088008BD00000020134A116841F40071DC
:102B10001160114910390B6843F480730B600B6826
:102B200043F020030B600D4B1860106840F020004C
:102B3000106000BF00BF00BF086840F020000860C0
:102B4000086840F48070086000BF00BF00BF0868DC
:102B500040F40070086070472804004814080048DA
:102B60001449086840F400700860086840F48070F8
:102B7000086010481038026842F0200202600E4BD4
:102B800022221A600A6842F020020A6000BF00BFD9
:102B900000BF016841F020010160016841F48071CB
:102BA000016000BF00BF00BF016841F40071016017
:102BB000704700002804004814080048184B10B55E
:102BC0001A6842F400721A601A6842F480721A603D
:102BD000134A103A146844F020041460114C206029
:102BE000186840F02000186000BF00BF00BF1068E8
:102BF00040F020001060106840F480701060216088
:102C0000186840F02000186000BF00BF00BF1068C7
:102C100040F020001060106840F48070106010BD1B
:102C20002804004814080048114808B5816C41F098
:102C300004018164816C01F004010091816C41F018
:102C400001018164806C002200F0010000901146B7
:102C50000B20FEF771F80B20FEF760F800221146FA
:102C60000C20FEF769F8BDE808400C20FEF756B8C6
:102C700000100240F0B587B014216846FDF702FB52
:102C80002948C16C41F02001C164C16C01F02001F0
:102C90000591C16C41F00101C164C16C01F00101F9
:102CA0000591C16C41F00201C164C16C01F00201E7
:102CB0000591C16C41F00801C164C06C1B4E00F06D
:102CC00008000590012204213046FDF7C6FF184F89
:102CD0000122C0213846FDF7C0FF00240125CDE9BF
:102CE000005469464FF090400294FDF7CDFE072056
:102CF000CDE90004694638460294FDF7C5FE04207C
:102D00000090CDE90154694630460394FDF7BCFEBE
:102D1000C0200090CDE90154694638460394FDF780
:102D2000B3FE07B0F0BD000000100240000C0048E8
:102D30000004004810B590B0002409940A940B9444
:102D4000142104A80C94FDF79DFA2E4800940394D6
:102D5000019402940D940E9429490F9401604F211F
:102D6000C0E901144FF6FF71C0E903148021C0E9E6
:102D70000541FEF76EFD08B1FDF779FD4FF4805077
:102D8000099009A91F48FEF7DFFD08B1FDF76FFDA7
:102D90001C48FEF702FF08B1FDF769FD042004900E
:102DA0005020CDE90504079404A916480894FFF7BC
:102DB0008FF908B1FDF75BFD0120CDE900400294D9
:102DC000002269460F480394FEF760FE08B1FDF744
:102DD0004EFD022000900190042269460948FEF74A
:102DE00055FE08B1FDF743FD0D940DA905480F945C
:102DF000FEF7E0FC002801D0FDF739FD10B010BD52
:102E000000400140CC00002010B58EB00024079493
:102E1000089409940A940B940C941C2168460D9410
:102E2000FDF730FA1E484FF0804101604F21C0E9A4
:102E3000011440F2F311C0E9031480218161FEF70F
:102E400008FD08B1FDF713FD4FF48050079007A966
:102E50001348FEF779FD08B1FDF709FD1048FFF7AB
:102E600083F808B1FDF703FD0B940BA90C480D94F2
:102E7000FEF7A0FC08B1FDF7FAFC602000901920D5
:102E8000CDE901040422694605480494FEF7DDFFFC
:102E900008B1FDF7ECFC0248FEF7B0FF0EB010BD24
:102EA00080000020184810B5164901604FF41651F3
:102EB0004160002181600C22C160C0E9041281617F
:102EC000C161016241628162FFF76CFA08B1FDF7EE
:102ED000CEFC00210C48FFF76DF908B1FDF7C7FCE7
:102EE00000210948FFF740F908B1FDF7C0FC06488A
:102EF000FFF71AF9002803D0BDE81040FDF7B7BC72
:102F000010BD00000038014018010020FEE77047A6
:102F1000704730B501210020FFF750FE4FF47A7062
:102F2000FDF797FC00210120FFF748FE41F2907168
:102F30001020FFF743FE4FF41C516020FFF73EFEC8
:102F400001216120FFF73AFE02214620FFF736FEFD
:102F500048F210011320FFF731FE48F2FE01122063
:102F6000FFF72CFE4FF4A0610220FFF727FE41F28D
:102F700030010320FFF722FE40F2033421463020C7
:102F8000FFF71CFE21463120FFF718FE21463220B4
:102F9000FFF714FEE51E29463320FFF70FFE03213D
:102FA0003420FFF70BFE21463520FFF707FE1421E2
:102FB0003620FFF703FE21463720FFF7FFFD2146AD
:102FC0003820FFF7FBFD21463920FFF7F7FD2946A2
:102FD0003A20FFF7F3FD03213B20FFF7EFFD2146E9
:102FE0003C20FFF7EBFD4FF4A0513D20FFF7E6FD3D
:102FF0004FF400719220FFF7E1FD21469320FFF787
:10300000DDFD40F60D019020FFF7D8FD41F21801DB
:103010000320FFF7D3FDBDE8304040F273110720D5
:10302000FFF7CCBD10B543F20801E320FFF7C6FD62
:103030001221E720FFF7C2FD41F23121EF20FFF717
:10304000BDFD00210120FFF7B9FD4FF4E061022032
:10305000FFF7B4FD41F230010320FFF7AFFD00217F
:103060000420FFF7ABFD40F207210820FFF7A6FD83
:1030700000210920FFF7A2FD00210A20FFF79EFD95
:1030800000210C20FFF79AFD00210D20FFF796FD8F
:1030900000210F20FFF792FD00211020FFF78EFD89
:1030A00007211120FFF78AFD00211220FFF786FD7E
:1030B00000211320FFF782FDC820FDF7D3FC41F269
:1030C00090611020FFF77AFD40F227211120FFF7D1
:1030D00075FD3220FDF7C6FC1D211220FFF76EFDA5
:1030E0003220FDF7BFFC4FF400611320FFF766FDAF
:1030F00014212920FFF762FD0B212B20FFF75EFD35
:103100003220FDF7AFFC00212020FFF757FD002102
:103110002120FFF753FD07213020FFF74FFD40F23C
:1031200007713120FFF74AFD06213220FFF746FDE7
:1031300040F204713520FFF741FD41F6047136205D
:10314000FFF73CFD04213720FFF738FD0021382030
:10315000FFF734FD40F206713920FFF72FFD40F2F2
:1031600001713C20FFF72AFD0F213D20FFF726FDCE
:1031700000215020FFF722FDEF215120FFF71EFD17
:1031800000215220FFF71AFD40F23F115320FFF7B4
:1031900015FD4FF41C516020FFF710FD0121612047
:1031A000FFF70CFD00216A20FFF708FD00218020B9
:1031B000FFF704FD00218120FFF700FD00218220A0
:1031C000FFF7FCFC00218320FFF7F8FC002184209E
:1031D000FFF7F4FC00218520FFF7F0FC1021902080
:1031E000FFF7ECFC00219220FFF7E8FC032193207D
:1031F000FFF7E4FC4FF488719520FFF7DFFC002116
:103200009720FFF7DBFC00219820FFF7D7FC41F265
:1032100018010320FFF7D2FCBDE8104040F2731103
:103220000720FFF7CBBC000008B1044801E00348C9
:103230001030016841F040010160704718040048F7
:1032400010B580210348FDF703FD012800D00020C0
:1032500010BD00000004004800B585B01421684688
:10326000FDF710F8802000900020019001200290CE
:103270000220039069460248FDF706FC05B000BD38
:103280000004004808B1044801E003481030016818
:1032900041F08001016070471804004800B585B016
:1032A00014216846FCF7EEFF802000901120019069
:1032B000002002900220039069460248FDF7E4FBDB
:1032C00005B000BD000400487047000070B5FDF770
:1032D000CFFC1248124C0025017869B1216841F2F7
:1032E0008832491C2160914206D9057005214FF4AE
:1032F000FA60256001F04EFE0A48007800280AD0E6
:103300006068401C6060642805D90748017819B1DD
:1033100000210170656070BD0121FAE708000020FE
:1033200020000020090000200C00002030B5A5B0CE
:1033300038216846FCF7A6FF14211FA8FCF7A2FF5E
:1033400044210EA8FCF79EFF4FF40070FDF726FD08
:1033500001252804CDE9005002200324CDE907040B
:103360001421CDE90A100C900D9009946846FEF7DF
:1033700001F80F20CDE91F04002421942294032199
:103380001FA82394FDF7ACFECDE90E540EA8FDF75F
:1033900063FD25B030BD00000548016841F47001AF
:1033A000016003494FF000608039086070470000F9
:1033B00088ED00E00148FEF722BC0000CC000020B0
:1033C0000148FEF71CBC0000800000202DE9F043FE
:1033D0000268234B234D244E244C4FF080499842E1
:1033E00007D0484505D0A84203D0B04201D0A04242
:1033F00003D122F070074A683A431D4FDFF874C0CA
:10340000DFF8748098420DD048450BD0A84209D00F
:10341000B04207D0A04205D0B84203D0604501D0E9
:10342000404503D122F44075CA682A434D6922F011
:1034300080022A4302608A68C2620A6882629842F5
:1034400007D0A04205D0B84203D0604501D0404526
:1034500001D10969016301214161BDE8F0830000E8
:10346000002C0140000400400008004000340140EE
:1034700000400140004401400048014010B501F007
:103480001F030121046A99408C430462016A9A4037
:103490001143016210BD10B5846842EA032224F48E
:1034A0007F440A432243826010BD00008268034BC0
:1034B0001A400A4342F00701816070478FFFCFFF37
:1034C0002DE9F043026A22F001020262056A4368B4
:1034D00082691C4C25F0020522400C6822F0030290
:1034E00014438A68194E2A43174D194FDFF864C0F8
:1034F000DFF86490A84207D0B04205D0B84203D0AC
:10350000604501D0484506D122F00808CA6842EA61
:10351000080222F00402A84207D0B04205D0B84207
:1035200003D0604501D0484505D14D6923F440736F
:103530001D438B692B434360846149684163026288
:10354000BDE8F0838FFFFEFF002C014000340140F6
:10355000004001400044014000480140F0B5026ACB
:1035600022F010020262056A42688369194C1B4E00
:1035700023400C6823F4407343EA042425F020031D
:103580008D6843EA0513144DA84201D0B04206D11C
:10359000CF6823F0800343EA071323F04003A842D7
:1035A0000AD0B04208D00E4DA84205D00D4DA84219
:1035B00002D00D4DA84207D14D6922F4406242EA83
:1035C00085028D6942EA85024260846149688163AF
:1035D0000362F0BDFF8FFFFE002C0140003401406C
:1035E000004001400044014000480140F0B5026A3B
:1035F00022F480720262056A4368C269194C1B4E4C
:1036000022400C6822F00302144325F400728D68F6
:1036100042EA0522144DA84201D0B04206D1CF683B
:1036200022F4006242EA072222F48062A8420AD011
:10363000B04208D00E4DA84205D00E4DA84202D08F
:103640000D4DA84207D14D6923F4405343EA0513B9
:103650008D6943EA05134360C4614968C16302622E
:10366000F0BD00008FFFFEFF002C01400034014040
:10367000004001400044014000480140F0B5026AAA
:1036800022F480520262056A4268C369194C1B4EDB
:1036900023400C6823F4407343EA042425F40053C8
:1036A0008D6843EA0533144DA84201D0B04206D1DB
:1036B000CF6823F4004343EA073323F48043A8424E
:1036C0000AD0B04208D00E4DA84205D00D4DA842F8
:1036D00002D00D4DA84207D14D6922F4404242EA82
:1036E00085128D6942EA85124260C46149680164AD
:1036F0000362F0BDFF8FFFFE002C0140003401404B
:1037000000400140004401400048014030B5026AD9
:1037100022F480320262046A4268036D114D2B402C
:103720000D681D4324F400330C8943EA04430E4C16
:10373000A0420BD00D4CA04208D00D4CA04205D0A9
:103740000C4CA04202D00C4CA04204D14C6922F493
:10375000803242EA0422426005654968816403625E
:1037600030BD00008FFFFEFF002C014000340140FF
:1037700000400140004401400048014030B5026A69
:1037800022F480120262046A4268036D114D24F42F
:1037900000142B400D6843EA05230D8944EA0554C3
:1037A0000D4DA8420BD00D4DA84208D00C4DA8429B
:1037B00005D00C4DA84202D00B4DA84204D14D6952
:1037C00022F4802242EA8522426003654968C1648E
:1037D000046230BDFF8FFFFE002C01400034014029
:1037E00000400140004401400048014010B5046819
:1037F000A268234B1A404B681343224A13400A68BD
:103800001A43A2604A68702A0DD037DC12F00F0FFD
:1038100034D14FEA2212072A30D2DFE802F02F2FEC
:103820002F2F0B242A000B69D1E902210068FFF732
:1038300032FE23E00A68052A13D0B2F1011F10D02E
:103840000268136A146A24F001041462026894691D
:10385000096924F0F00444EA0111916100680362EF
:103860000CE0012010BD0A698968006800F00CF8BE
:1038700004E00A698968006800F04EF8002010BD75
:103880008FFFCFFFF8FFFEFF10B5036A046A24F034
:1038900001040462846924F0F00444EA021423F071
:1038A0000A020A438461026210BD000070B5046A16
:1038B00024F0010404628469056A124EB0420ED0FD
:1038C000B0F1804F0BD0104EB04208D00F4EB04236
:1038D00005D00F4EB04202D00E4EB04203D124F0BC
:1038E0000304144301E044F001041A0724F0F00437
:1038F00044EA126225F00A0301F00A0119438261C9
:10390000016270BD002C014000040040000800402E
:10391000003401400040014010B5036A23F0100359
:1039200003628369046A23F4704343EA023224F099
:10393000A00343EA01118261016210BD30B5046A3F
:1039400024F0100404628469056A24F4407444EA93
:10395000022222F470444FF6FF7202EA033222433D
:10396000A02425F0A00304EA011119438261016239
:1039700030BD00003FB514A1D1E90021CDE90021FF
:1039800013A2D2E90012CDE90212416EB9B1026868
:1039900091689268C1F34261520F1DF80240E50040
:1039A00002ACA25CB5FBF2F2A0F86A201DF801207F
:1039B000615CD200B2FBF1F1A0F868103FBD0121BB
:1039C000A0F86A10F8E700000101010307010000F8
:1039D000080402040801010190F82810C90706D064
:1039E00001684A68C36A22F400321A434A6090F8B8
:1039F0002810890706D501684A68036B22F48032D3
:103A00001A434A6090F82810490706D501684A68A9
:103A1000436B22F480221A434A6090F82810090769
:103A200006D501684A68836B22F400421A434A6053
:103A300090F82810C90606D501688A68C36B22F47D
:103A400080521A438A6090F82810890606D50168CA
:103A50008A68036C22F400521A438A6090F8281096
:103A6000490611D501684A68436C22F480121A4352
:103A70004A60416CB1F5801F06D101684A68836CC9
:103A800022F4C0021A434A6090F82810090606D5AD
:103A900001684A68C06C22F4002202434A60704701
:103AA000F8B500260446C0F88860FDF7DBF8054647
:103AB000206800686FF07E47000708D52B4600227B
:103AC0004FF400112046009700F0A0FD60B9206877
:103AD000006840070AD52B4600224FF4800120469B
:103AE000009700F093FD08B10320F8BD2020C4F832
:103AF0008000C4F8840084F87C600020F8BD10B514
:103B0000806A0021A0F85E10A0F85610FEF77AFB3C
:103B100010BD000001680A6822F490720A60016812
:103B20008A68044B1A408A602021C0F88410002162
:103B3000C1667047FEFFFFEF10B5B0F86020D0F807
:103B400084300168222B04D0886940F00800886125
:103B500010BD496A836D11401980816D891C816592
:103B6000B0F85E10491EA0F85E10B0F85E10002993
:103B7000EED101680A6822F490720A6001688A68CE
:103B800022F001028A602021C0F884100021C16661
:103B9000FEF726FD10BD000070B50446B0F8606069
:103BA000D0F88400222805D02068816941F00801FE
:103BB000816170BDB4F8685023E02068406AA16D4F
:103BC00030400880A06D801CA065B4F85E00401EE7
:103BD000A4F85E00B4F85E0088B92068016821F49A
:103BE0008071016020688168114A11408160202045
:103BF000C4F884000020E0662046FEF7F1FC6D1E4C
:103C0000ADB2002DD9D1B4F85E000028D1D0B4F8FF
:103C100068108142CDD92068816821F0805181608F
:103C20000448E0662068016841F02001016070BD31
:103C3000FEFFFFEF393B000810B5B0F86020D0F868
:103C400084300168222B04D0886940F00800886124
:103C500010BD496A1140826D1170816D491C8165EA
:103C6000B0F85E10491EA0F85E10B0F85E10002992
:103C7000EED101680A6822F490720A6001688A68CD
:103C800022F001028A602021C0F884100021C16660
:103C9000FEF7A6FC10BD000070B50446B0F86060E9
:103CA000D0F88400222805D02068816941F00801FD
:103CB000816170BDB4F8685023E02068406AA16D4E
:103CC00030400870A06D401CA065B4F85E00401E36
:103CD000A4F85E00B4F85E0088B92068016821F499
:103CE0008071016020688168114A11408160202044
:103CF000C4F884000020E0662046FEF771FC6D1ECB
:103D0000ADB2002DD9D1B4F85E000028D1D0B4F8FE
:103D100068108142CDD92068816821F0805181608E
:103D20000448E0662068016841F02001016070BD30
:103D3000FEFFFFEF393C00082DE9F05F0446016803
:103D400080682369E5691843636900272B4318439A
:103D5000636EFA4A03430868F94D28401843086027
:103D600020684168E36821F44051194341602168AB
:103D7000A069914201D0236A18438B68F14D2B4012
:103D800003438B602068C16A636A21F00F01194305
:103D9000C162ED4B2068ED4998420DD1D1F88810F1
:103DA00011F0030106D001295AD0022956D0032967
:103DB0003FD157E001253DE0E54B98420BD1D1F8CA
:103DC000881011F00C0147D0042949D0082945D0AA
:103DD0000C292ED146E0DF4B98420BD1D1F8881048
:103DE00011F0300138D010293AD0202936D03029AE
:103DF0001FD137E0D84B98420BD1D1F8881011F081
:103E0000C00129D040292BD0802927D0C02910D12A
:103E100028E090420DD1D1F8881011F440611BD0F8
:103E2000B1F5806F1CD0B1F5006F17D0B1F5406FC0
:103E300018D01025DFF824A34FF480764FF0000946
:103E40004FF4004B90426ED175B1022D29D0042D54
:103E500059D0082D68D176E00025EBE70225E9E787
:103E60000425E7E70825E5E7FDF728FA4DE00128F6
:103E700051D0022851D0032851D0042851D0052810
:103E800053D0062853D0072853D0082853D00928E8
:103E900053D00A2853D00B2853D03AE0B1FBF0F0AE
:103EA0006CE0606AA8B1012817D0022817D0032857
:103EB00017D0042817D0052817D0062817D00728B0
:103EC00017D0082817D0092817D00A2817D00B2890
:103ED00017D00120BAFBF0F050E00220FAE70420EE
:103EE000F8E70620F6E70820F4E70A20F2E70C20BE
:103EF000F0E71020EEE72020ECE74020EAE7802002
:103F0000E8E73046E6E7FDF7FDF90146606A00287C
:103F1000ADD10120C2E70220C0E70420BEE70620A1
:103F2000BCE70820BAE761E14AE00A20B6E70C20C6
:103F3000B4E71020B2E72020B0E74020AEE78020B1
:103F4000ACE73046AAE7606AA8B1012822D002286F
:103F500022D0032822D0042822D0052822D00628E7
:103F600022D0072822D0082822D0092822D00A28C7
:103F700022D00B2822D00120BBFBF0F0002820D05B
:103F80006168884601EB4101814219D8B0EB083FD6
:103F900016D817E00220EFE70420EDE70620EBE754
:103FA0000820E9E70A20E7E70C20E5E71020E3E72F
:103FB0002020E1E74020DFE78020DDE73046DBE737
:103FC000012739E27DB3022D61D0042D7DD0082D6B
:103FD000F6D1606AA8B1012878D0022877D00328EA
:103FE00076D0042875D0052874D0062873D0072809
:103FF00072D0082871D0092870D00A286FD00B28F9
:1040000000D0012632464D46002358460021FCF7D9
:1040100001F9090241EA106102024FEA5800101842
:104020006941424670E0FFE7FDF748F90146606AE2
:10403000A8B1012817D0022817D0032817D00428C8
:1040400017D0052817D0062817D0072817D008281A
:1040500017D0092817D00A2817D00B2800D001261E
:1040600032464D468CE00226FAE70426F8E706269B
:10407000F6E70826F4E70A26F2E70C26F0E7102612
:10408000EEE72026ECE74026EAE78026E8E7606ACC
:10409000A8B1012824D0022824D0032824D0042841
:1040A00024D0052824D0062824D0072824D0082886
:1040B00024D0092824D00A2824D00B2800D0012697
:1040C00032464D4600235046A0E726E07AE07BE0EA
:1040D0007CE07DE07EE07FE080E081E082E083E0E4
:1040E0000226EDE70426EBE70626E9E70826E7E7E0
:1040F0000A26E5E70C26E3E71026E1E72026DFE7BE
:104100004026DDE78026DBE70023FCF783F8144A2E
:10411000A0F54071914271D952E7FDF7F3F80146DD
:10412000606A50B3012839D0022839D0032839D029
:10413000042839D0052839D0062813E00080004033
:10414000F369FFCFFFF4FF11003801400010024077
:104150000044004000480040004C00400024F400AF
:10416000FFFC0F0024D0072824D0082824D00928D9
:1041700024D00A2824D00B2800D001264D463246F0
:10418000002308461946FCF745F80902626841EA2F
:1041900010610302500818186941B5E70226EDE7DF
:1041A0000426EBE70626E9E70826E7E70A26E5E71F
:1041B0000C26E3E71026E1E72026DFE74026DDE7CF
:1041C0008026DBE702261DE704261BE7062619E703
:1041D000082617E70A2615E70C2613E7102611E72D
:1041E00020260FE740260DE780260BE7E0694FF613
:1041F000EF78584570D1092D8ED200E01AE1DFE842
:1042000005F006093C05800505058300D8E6FDF7A5
:1042100055F801E0FDF764F80146606AA8B101288D
:1042200015D0022815D0032815D0042815D005284C
:1042300015D0062815D0072815D0082815D009282C
:1042400015D00A2815D00B2814D0012612E002261A
:1042500010E004260EE006260CE008260AE00A26F6
:1042600008E00C2606E0102604E0202602E04026A6
:1042700000E08026B1FBF6F01AE0606AA8B10128E0
:104280002BD002282BD003282BD004282BD0052894
:104290002BD006282BD007282BD008282BD0092874
:1042A0002BD00A282BD00B2800D00126BAFBF6F021
:1042B0004100606801EB5001B1FBF0F080B2A0F169
:1042C00010014145A2D84FF6F0710140C0F3420001
:1042D00001432068C160AFE046E00226E6E704261D
:1042E000E4E70626E2E70826E0E70A26DEE70C26F2
:1042F000DCE71026DAE72026D8E74026D6E7802636
:10430000D4E7FCF7FFFF87E7606AA8B1012817D060
:10431000022817D0032817D0042817D0052817D053
:10432000062817D0072817D0082817D0092817D033
:104330000A2817D00B2800D00126BBFBF6F0B7E700
:104340000226FAE70426F8E70626F6E70826F4E749
:104350000A26F2E70C26F0E71026EEE72026ECE727
:104360004026EAE78026E8E7092DBFF4D5AEDFE86E
:1043700005F006093C0583050505860020E6FCF7E7
:104380009DFF01E0FCF7ACFF0146606AA8B101287F
:1043900015D0022815D0032815D0042815D00528DB
:1043A00015D0062815D0072815D0082815D00928BB
:1043B00015D00A2815D00B2814D0012612E00226A9
:1043C00010E004260EE006260CE008260AE00A2685
:1043D00008E00C2606E0102604E0202602E0402635
:1043E00000E08026B1FBF6F11AE0606AA8B101286E
:1043F0002ED002282ED003282ED004282ED0052817
:104400002ED006282ED007282ED008282ED00928F6
:104410002ED00A282ED00B2800D00126BAFBF6F1A8
:10442000606801EB5001B1FBF0F080B2A0F1100127
:104430004145A3D82168C8600120A4F86A0024F887
:10444000680F3846C4F80490C4F80890BDE8F09F9F
:104450000226E3E70426E1E70626DFE70826DDE794
:104460000A26DBE70C26D9E71026D7E72026D5E772
:104470004026D3E78026D1E7FCF744FF84E7606A53
:10448000A8B1012817D0022817D0032817D0042874
:1044900017D0052817D0062817D0072817D00828C6
:1044A00017D0092817D00A2817D00B2800D00126CA
:1044B000BBFBF6F1B4E70226FAE70426F8E7062686
:1044C000F6E70826F4E70A26F2E70C26F0E71026BE
:1044D000EEE72026ECE74026EAE78026E8E7D0F87A
:1044E0008010212910D1B0F8561071B1016D026809
:1044F0000988C1F308019162016D891C0165B0F85A
:104500005610491EA0F85610704701680A6822F03C
:1045100080020A600068016841F040010160704754
:10452000D0F8801021291BD1B0F86A1016E000BF26
:10453000B0F85620AAB10268D3691B060CD5036DEA
:104540001B88C3F308039362026D921C0265B0F8E6
:104550005620521EA0F85620491E89B20029E7D1E4
:10456000704701688A6822F400028A600068016866
:1045700041F0400101607047D0F8801021290ED130
:10458000B0F8561061B1016D026809789162016D51
:10459000491C0165B0F85610491EA0F85610704726
:1045A00001680A6822F080020A600068016841F030
:1045B0004001016070470000D0F88010212919D116
:1045C000B0F86A1014E000BFB0F856209AB1026843
:1045D000D3691B060AD5036D1B789362026D521CCA
:1045E0000265B0F85620521EA0F85620491E89B226
:1045F0000029E9D1704701688A6822F400028A60C4
:104600000068016841F04001016070472DE9F04108
:10461000984617460E460446069D08E0681C06D0DC
:10462000FCF720FBA0EB0800A8420BD855B120688E
:10463000C06936EA000019D00020B842EED0002050
:10464000BDE8F0812068016821F4D0710160206824
:10465000816821F0010181602020C4F88000C4F845
:104660008400002084F87C000320E9E70120E4E7CF
:104670000148FDF7C9BD000018010020FEE7000059
:104680000FB4084B10B504A902AA039800F0EEF885
:10469000044602A9002000F06CFC204610BC5DF826
:1046A00014FB0000734F00080907090E002804DB03
:1046B00000F1E02080F80014704700F00F0000F1D6
:1046C000E02080F8141D704702E008C8121F08C1DE
:1046D000002AFAD170477047002001E001C1121F83
:1046E000002AFBD1704700002DE9FF5F82B0002156
:1046F000DDE90430020DDDF840B0034318D044F684
:104700001050A2F2FF3242431514119801281FD015
:10471000A5EB0B00401C5FEA000A4FF000064E4F6D
:10472000DFF83891B046504615D5CAF1000413E0C1
:10473000119801244AA3012801D16FEA0B010298C4
:10474000119AC0E90031C0E9024206B0BDE8F09F0D
:10475000CBF10000DFE704460021404A491842EB54
:104760000450CDE9001012E0E00707D032463B4686
:1047700040464946FBF73FFE8046894632463B4667
:1047800010461946FBF737FE06460F466410002C0C
:10479000EAD1DDE90401DDE90023BAF1000F06DA10
:1047A000FBF729FE42464B46FBF725FE05E0FBF7EB
:1047B00094FE42464B46FBF790FE04460E4600220E
:1047C000284BFBF7DBFF03D84FF0FF30014607E033
:1047D0000022254B20463146FBF766FDFBF7B6FF6E
:1047E000102409E0002C0ADB0A220023FBF712FD4B
:1047F000039B30321A55641E50EA0102F2D1641C48
:10480000039AC4F111031444119A012A03D001221E
:1048100008430DD10AE0084304D000204FF0110BEB
:10482000119072E7A3EB0B056D1E0DE05B4504DDF7
:104830004FF0000205F1010504E003DA4FF0000239
:10484000A5F10105002AECD002981199C0E90231C6
:10485000C0E9004579E70000000014400000F03F87
:10486000300000000000F0430000E03F2DE9FF4F62
:1048700095B09A46884606460025EEE1252877D170
:1048800000242746F94A0121039400E0044316F866
:10489000013F203B01FA03F01042F7D130782A287B
:1048A00011D06FF02F033078A0F13002092A16D80A
:1048B000039A44F0020402EB820203EB420210442A
:1048C000761C0390EFE758F8042B0392002A03DAD2
:1048D000504244F40054039044F00204761C3078B3
:1048E0002E2816D116F8010F44F004042A280DD002
:1048F0006FF02F023078A0F13003092B09D807EBB5
:10490000870302EB4303C718761CF3E758F8047BD0
:10491000761C30786C280FD006DC4C2817D068281D
:104920000DD06A2814D104E0742810D07A280FD151
:104930000DE044F400140AE044F4801401E044F46F
:1049400040147278824202D104F58014761C761CE1
:10495000307866280BD013DC582877D009DC002883
:1049600075D04528F6D04628F4D047281AD193E1CF
:1049700018E0632835D0642879D0652812D18BE1FE
:10498000702873D008DC6728F1D069286FD06E28B2
:104990000DD06F2806D1ACE073282CD0752874D0C8
:1049A000782853D05246179990476D1C54E1C4F3B0
:1049B0000250022809D003280DD0D8F8001004288E
:1049C0000DD00D6008F1040846E1D8F80010EA1790
:1049D000C1E90052F6E7D8F800100D80F2E70D703B
:1049E000F0E718F8041B8DF8001000208DF8010086
:1049F000EB46012003E058F804BB4FF0FF3061079D
:104A00004FF0000102D40DE009F101018946B942DD
:104A10000FDA8145F8DB1BF809100029F4D108E012
:104A200009F1010189468142FADB1BF809100029CE
:104A3000F6D103985346A0EB090721463846179A4A
:104A400000F080FA284400EB090507E044E008E1A3
:104A50000DE01BF8010B524617999047B9F1010977
:104A6000F7D2534621463846179AF2E039E00A2138
:104A7000C4F302524FF0000B0091022A06D058F8FE
:104A8000040BC117032A09D00AE023E008F107004C
:104A900020F00702F2E80201904605E000B2C117DB
:104AA000042A01D140B2C117002906DA0A460021C2
:104AB000404261EB02012D2202E0220504D52B22A7
:104AC0008DF80420012203E0E20701D02022F7E75D
:104AD000914657E00A2100E010214FF0000B0091B1
:104AE0000BE010214FF0000B44F004040827009164
:104AF00003E008204FF0000B0090C4F30252022A9A
:104B000005D058F8040B0021032A08D008E008F16A
:104B1000070020F00702F2E80201904603E080B2AD
:104B2000042A00D1C0B24FF0000922072AD53278FA
:104B3000702A07D0DDF800C08CF0100C5CEA0B0C7A
:104B400005D00EE040228DF80420012208E050EA52
:104B5000010306D030238DF804308DF805200222A1
:104B60009146009B83F0080353EA0B030AD150EAF5
:104B7000010201D1620705D530228DF804204FF0E3
:104B800001097F1E3278582A04D039A20C920CAA4F
:104B900002920BE03BA2F9E75B46009AFBF73AFB77
:104BA0000C9B9B5C029A521E0292137050EA010207
:104BB000F2D1029804A9081A00F1200B600702D56F
:104BC00024F4803400E001275F4502DDA7EB0B00F1
:104BD00000E0002000EB0B01009003984944401ACC
:104BE0000390E00306D453462146179A039800F039
:104BF000A9F90544002706E001A85246C05D1799AF
:104C000090476D1C7F1C4F45F6DBE0030CD55346E7
:104C10002146179A039800F095F9054404E03020E6
:104C20005246179990476D1C0099481E0090002924
:104C3000F5DC08E00298029952460078491C02917E
:104C4000179990476D1CBBF10001ABF1010BF1DC32
:104C50005BE100F065F90544761C307800287FF4AC
:104C60000DAE19B02846BDE8F08F000009280100FC
:104C700030313233343536373839616263646566D2
:104C80000000000030313233343536373839414294
:104C90004344454600000000600700D4062708F1A1
:104CA000070020F00700F0E80223804603F0004CE4
:104CB0005FEA0C0001D097A009E0200501D596A07D
:104CC00005E0E00701D095A001E0AFF24C001390A1
:104CD000307823F0004365280CD006DC452809D045
:104CE00046281DD047287FD13BE0662818D067288A
:104CF0007AD136E00021112F01DB112000E0781C71
:104D0000CDE9000104A90CA8FFF7EEFCDDE90D01D7
:104D10000C9A4FF0000B07F10109109200914EE040
:104D20004FF000400097CDE9011004A90CA8FFF74F
:104D3000DBFCDDE90D020C9B0F994FF0000B914657
:104D40001093009211B9791C00EB0109B7EB09002F
:104D500003D4C0F1FF3B07F10109A9EB0700019063
:104D600042E0012F00DA01270021112F01DD11207F
:104D700000E03846CDE9000104A90CA8FFF7B4FC17
:104D8000DDE90D010C9A00914FF0000BB94610922D
:104D900021070FD4009A4A4503DA914601E0A9F1B0
:104DA0000109B9F1010F05DD109AA9F10101515C6A
:104DB0003029F4D0B84202DA10F1040F03DA0121ED
:104DC000CDE9011010E0002803DC8344A9EB0001C9
:104DD00002E0411C494500DD8946A0EB0B00401C68
:104DE00001904FF000400290200705D401984845FB
:104DF00002DB4FF0FF30019000208DF84B0002984D
:104E00000DF14B07B0F1004F25D002200C902B2064
:104E10000D90029800280CDA404202902D200D904F
:104E200007E00A210298FBF7EDFB3031029007F80A
:104E3000011D0C99481E0C900029F2DC02980028F4
:104E4000EFD1791E0D980870307800F0200040F006
:104E5000450007F8020D11A8C01BC01D0290139851
:104E6000007800B1012000EB0901019801EBE0712D
:104E7000029801440398401A401E0390E00306D4B0
:104E800053462146179A039800F05CF8054413989E
:104E9000007818B15246179990476D1CE00323D54E
:104EA00053462146179A039800F04CF805441BE03E
:104EB000BBF1000F07DB0098584504DD10981799E7
:104EC00010F80B0001E017993020524690470198E6
:104ED0000BF1010B401E05F10105019004D12E20BC
:104EE0005246179990476D1CB9F10001A9F10109CB
:104EF000DEDC05E017F8010B5246179990476D1C50
:104F00000299481E02900029F4DC53462146179A64
:104F100003989EE62D0000002B00000020000000FA
:104F20002DE9F041044600251E461746880404D4A6
:104F300005E039462020B0476D1C641EF9D528468F
:104F4000BDE8F0812DE9F041044600251E4690465B
:104F5000C80301D5302700E02027880404D505E0E8
:104F600041463846B0476D1C641EF9D52846BDE859
:104F7000F0810A68531C0B601070704704490A5C8A
:104F8000521CD2B20A54152A01D10A220A5470477F
:104F90001000002070B500242DED028B8EB00E465F
:104FA00005460794089409940A940B940C941C21C8
:104FB00068460D94FBF766F92F484FF08041016079
:104FC0004F21C0E901142D49B1FBF5F1491EC0E99B
:104FD000031480218161FCF73CFC08B1FBF747FC1E
:104FE0004FF48050079007A92348FCF7ADFC08B1A7
:104FF000FBF73DFC2048FCF7B7FF08B1FBF737FC97
:105000000B940BA91C480D94FCF7D4FB08B1FBF7DB
:105010002EFC602000902846FBF7CEFA41EC180BDE
:105020003046FBF7C9FA9FED161B53EC112BFBF72B
:10503000E2F953EC182BFBF750FA9FED131B53ECDE
:10504000112BFBF74AFAFBF7C4FACDE9010404225D
:10505000694609480494FCF7F8FE08B1FBF707FC21
:105060000548FCF7CBFE04210348FCF7B1FF0EB066
:10507000BDEC028B70BD00008000002040420F009C
:105080000000000080842E41000000000000594014
:10509000084910B54FF47F400860074C01220421F5
:1050A0002046FBF7DAFD20460022BDE8104004212F
:1050B000FBF7D3BD14080048000C0048194810B590
:1050C0000278A0F10A010AB9407860B10020154ABF
:1050D00048700A3A0B781448144C127943B122B143
:1050E0004FF47C410CE00120F1E74FF47E4107E0F2
:1050F000497891B112B14FF47D4101E04FF47F4105
:105100000160012204212046FBF7A7FD2046002272
:10511000BDE810400421FBF7A0BDBDE81040FFF73B
:10512000B7BF00001200002014080048000C00481F
:10513000002100E0491C8142FCD370470748807879
:10514000012805D0022805D0032805D100F068B851
:1051500000F0A4B800F004B8704700000800002078
:1051600010B52DED028B18A11820FDF715FC1C4C75
:105170002078FBF721FA9FED1B8B53EC182BFBF7E4
:10518000ACF941EC100B19A153EC102B1D48FFF7A3
:1051900077FA1C494820FDF7FFFB6078FBF70CFA13
:1051A00053EC182BFBF799F941EC100B16A153ECBB
:1051B000102B1448FFF764FABDEC028B6020BDE8A9
:1051C00010401049FDF7E8BB20202020202020209F
:1051D000505249434520202020202020000000007C
:1051E00010000020000000000000244020202020AB
:1051F00020583A252E3166202020202020202020F3
:1052000020000000380000202020202020593A25CE
:105210002E31662020202020202020202000000089
:1052200010B50CA11820FDF7B7FB104C10A11548C4
:105230002278FFF725FA13494820FDF7ADFB627885
:1052400011A11048FFF71CFABDE810400D4960207D
:10525000FDF7A2BB202020202020202052455020F6
:10526000202020202020202000000000120000200C
:105270002020202020583A25642020202020202093
:1052800020202000380000202020202020593A250E
:1052900064202020202020202020200010B50CA1F8
:1052A0001820FDF779FB104C10A115482278FFF764
:1052B000E7F913494820FDF76FFB627811A1104808
:1052C000FFF7DEF9BDE810400D496020FDF764BB33
:1052D000202020202020202053484F502020202014
:1052E00020202020000000000E0000202020202090
:1052F00020583A2564202020202020202020200033
:10530000380000202020202020593A256420202029
:1053100020202020202020002DE9F0477E4C012174
:105320002046FBF795FC7D4E4FF00108A8B90520FB
:10533000FBF798FB01212046FBF78AFC68B9B0789F
:10534000401CC0B2B070042801D386F8028001214D
:105350002046FBF77DFC0028F9D0704DB0780A3567
:10536000012827D002286AD0032821D10221204613
:10537000FBF76EFC00287CD004212046FBF768FC7C
:10538000002815D10520FBF76DFB04212046FBF713
:105390005FFC00280CD16878401CC1B26970012004
:1053A00000F000FA04212046FBF752FC0028F9D057
:1053B000BDE8F087022127462046FBF749FC574C01
:1053C0004FF00009A41D00B304213846FBF740FC50
:1053D000A0B34FF0904401212046FBF739FC002890
:1053E000E6D10520FBF73EFB01212046FBF730FC10
:1053F0000028DDD186F8038086F800800121204650
:10540000FBF726FC0028F9D0D2E70520FBF72AFBA2
:1054100002213846FBF71CFC0028C9D12078401C2B
:10542000C0B220702978884201D984F80090022106
:105430003846FBF70DFC0028F9D0B9E700E019E089
:105440000520FBF70FFB04213846FBF701FC002881
:10545000AED16078401CC0B260706978884201D9D2
:1054600084F8019004213846FBF7F2FB0028F9D0BC
:105470009EE739E002212046FBF7EAFB274D08357D
:10548000E0B104212046FBF7E3FB002890D1052082
:10549000FBF7E8FA04212046FBF7DAFB002887D166
:1054A0000120FFF76BFD6978032000F07BF90421F0
:1054B0002046FBF7CDFB0028F9D079E70520FBF764
:1054C000D1FA02212046FBF7C3FB00289CD1FFF74D
:1054D00055FD2978022000F065F902212046FBF7EE
:1054E000B7FB0028F9D063E70520FBF7BBFA0221E0
:1054F0002046FBF7ADFB002886D12878401CC1B2BE
:105500002970002000F04EF902212046FBF7A0FB95
:105510000028F9D04CE700000004004808000020F3
:10552000FBF7AEFBFDF702FFFDF7A4FBFDF77CFBED
:10553000FDF76AFCFDF7FEFBFDF7B4FC00F082F816
:1055400000F074F8FCE700002DE9F041DFF8B480CA
:105550002DED048B82B098F8030000284CD008F1A0
:105560000604A71C6678787816FB00F0FBF724F891
:105570009FED259B53EC192BFAF7AFFF41EC180B6D
:105580002578387815FB00F0FBF716F853EC192B4B
:10559000FAF7A3FF53EC182BFAF786FECDE90001CA
:1055A00033462A461AA11F48FFF76AF81D48FAF742
:1055B00074FE82B21B491C48FDF75EF8251D217858
:1055C0002878401AC1B2297068786278801A6870A9
:1055D000002000F0E7F80A20FBF744FA6978012080
:1055E00000F0E0F80025257065701E214FF4FA6088
:1055F000FFF7D0FC88F8035002B0BDEC048BBDE887
:10560000F08100000800002000000000000024409D
:10561000583A25642C593A25642C5A3A252E31667D
:105620000D0A0000560000201801002010B5FFF7F9
:1056300045FDFFF783FDFFF76FFEBDE81040FFF764
:1056400083BF000010B5102000F08EF8424C0A28ED
:105650000ED00A20FBF706FA0A21102000F0A2F86B
:105660000A20FBF7FFF90A21002000F09BF803E075
:10567000002000F079F820700A20FBF7F3F91120E0
:1056800000F072F80A280ED00A20FBF7EBF90A2185
:10569000112000F087F80A20FBF7E4F90A21012025
:1056A00000F080F803E0012000F05EF860700A204E
:1056B000FBF7D8F9122000F057F8274CA41E0A284F
:1056C0000ED00A21122000F06DF80A20FBF7CAF96B
:1056D0000A21022000F066F80A20FBF7C3F903E074
:1056E000022000F041F820700A20FBF7BBF91320DC
:1056F00000F03AF80A280ED00A21132000F052F8E0
:105700000A20FBF7AFF90A21032000F04BF80A202A
:10571000FBF7A8F903E0032000F026F860700A20E8
:10572000FBF7A0F9FDF77AF90020FDF7CFF84FF667
:10573000FF70FDF7E1F90020FDF7CAF9FFF7A8FCBB
:1057400004210648FCF744FCBDE81040012204494E
:105750000448FCF7C7BE00001200002080000020B3
:105760004C0000201801002010B50446FDF722F877
:10577000A020FCF7F8FFFDF753F82046FCF7F3FFF5
:10578000FDF74EF8FDF731F8FDF714F8A120FCF70E
:10579000EAFFFDF745F8FCF7BFFF0446FDF725F8E3
:1057A000204610BD70B50D460446FDF703F8A02055
:1057B000FCF7D9FFFDF734F82046FCF7D4FFFDF7DE
:1057C0002FF82846FCF7CFFFFDF72AF8BDE8704018
:1057D000FDF70BB800000000000000000000000012
:1057E00000000000000000000000000000000000B9
:1057F00000000000000000000000000000000000A9
:105800000000000000008001800180018001800113
:105810008001800180018001800180018001800180
:105820000000000080018001000000000000000076
:105830000000000000000000CC00CC00CC00CC0038
:10584000CC00CC00000000000000000000000000C0
:105850000000000000000000000000000000000048
:105860000000000000000000000000000000000038
:10587000600C600C600C30063006FE1FFE1F300608
:1058800038071803FE1FFE1F180318038C018C0134
:105890008C01000000008000E003F80F9C0E8C1CBF
:1058A0008C188C009800F801E007800E801C8C1882
:1058B0008C189C18B80CF00FE003800080000000EA
:1058C000000000000000000000000E181B0C110C6E
:1058D00011061106110311039B018E01C038C06C23
:1058E00060446044304430441844186C0C38000064
:1058F000000000000000E001F00338071806180659
:105900003003F001F000F8009C310E33061E061C37
:10591000061C063FFC73F0210000000000000000A0
:1059200000000000000000000C000C000C000C0047
:105930000C000C000000000000000000000000004F
:105940000000000000000000000000000000000057
:10595000000000000000000200038001C000C00041
:105960006000600030003000300030003000300057
:105970003000300060006000C000C0008001000303
:1059800000020000000020006000C00080018001D3
:1059900000030003000600060006000600060006DD
:1059A000000600060003000380018001C0006000C3
:1059B00020000000000000000000000000000000C7
:1059C000C000C000D806F807E00130033807000027
:1059D00000000000000000000000000000000000C7
:1059E00000000000000000000000000000000000B7
:1059F00080018001800180018001FC3FFC3F80012B
:105A00008001800180018001000000000000000092
:105A10000000000000000000000000000000000086
:105A20000000000000000000000000000000000076
:105A300000000000000080018001000100018000E2
:105A40000000000000000000000000000000000056
:105A5000000000000000000000000000E007E00778
:105A60000000000000000000000000000000000036
:105A70000000000000000000000000000000000026
:105A80000000000000000000000000000000000016
:105A9000000000000000C000C00000000000000086
:105AA000000000000000000C000C000600060006CC
:105AB0000003000300038003800180018001C00017
:105AC000C000C00060006000000000000000000096
:105AD000000000000000E003F007380E180C0C185E
